{
  "contractName": "PotOwnership",
  "abi": [
    {
      "inputs": [
        {
          "internalType": "string",
          "name": "name_",
          "type": "string"
        },
        {
          "internalType": "string",
          "name": "symbol_",
          "type": "string"
        }
      ],
      "stateMutability": "nonpayable",
      "type": "constructor"
    },
    {
      "anonymous": false,
      "inputs": [
        {
          "indexed": true,
          "internalType": "address",
          "name": "owner",
          "type": "address"
        },
        {
          "indexed": true,
          "internalType": "address",
          "name": "approved",
          "type": "address"
        },
        {
          "indexed": true,
          "internalType": "uint256",
          "name": "tokenId",
          "type": "uint256"
        }
      ],
      "name": "Approval",
      "type": "event"
    },
    {
      "anonymous": false,
      "inputs": [
        {
          "indexed": true,
          "internalType": "address",
          "name": "owner",
          "type": "address"
        },
        {
          "indexed": true,
          "internalType": "address",
          "name": "operator",
          "type": "address"
        },
        {
          "indexed": false,
          "internalType": "bool",
          "name": "approved",
          "type": "bool"
        }
      ],
      "name": "ApprovalForAll",
      "type": "event"
    },
    {
      "anonymous": false,
      "inputs": [
        {
          "indexed": true,
          "internalType": "address",
          "name": "from",
          "type": "address"
        },
        {
          "indexed": true,
          "internalType": "address",
          "name": "to",
          "type": "address"
        },
        {
          "indexed": true,
          "internalType": "uint256",
          "name": "tokenId",
          "type": "uint256"
        }
      ],
      "name": "Transfer",
      "type": "event"
    },
    {
      "anonymous": false,
      "inputs": [
        {
          "indexed": false,
          "internalType": "address",
          "name": "owner",
          "type": "address"
        },
        {
          "indexed": false,
          "internalType": "uint256",
          "name": "potId",
          "type": "uint256"
        },
        {
          "indexed": false,
          "internalType": "uint256",
          "name": "design",
          "type": "uint256"
        }
      ],
      "name": "newPot",
      "type": "event"
    },
    {
      "inputs": [
        {
          "internalType": "address",
          "name": "to",
          "type": "address"
        },
        {
          "internalType": "uint256",
          "name": "tokenId",
          "type": "uint256"
        }
      ],
      "name": "approve",
      "outputs": [],
      "stateMutability": "nonpayable",
      "type": "function"
    },
    {
      "inputs": [
        {
          "internalType": "address",
          "name": "owner",
          "type": "address"
        }
      ],
      "name": "balanceOf",
      "outputs": [
        {
          "internalType": "uint256",
          "name": "",
          "type": "uint256"
        }
      ],
      "stateMutability": "view",
      "type": "function",
      "constant": true
    },
    {
      "inputs": [
        {
          "internalType": "uint256",
          "name": "tokenId",
          "type": "uint256"
        }
      ],
      "name": "getApproved",
      "outputs": [
        {
          "internalType": "address",
          "name": "",
          "type": "address"
        }
      ],
      "stateMutability": "view",
      "type": "function",
      "constant": true
    },
    {
      "inputs": [
        {
          "internalType": "address",
          "name": "owner",
          "type": "address"
        },
        {
          "internalType": "address",
          "name": "operator",
          "type": "address"
        }
      ],
      "name": "isApprovedForAll",
      "outputs": [
        {
          "internalType": "bool",
          "name": "",
          "type": "bool"
        }
      ],
      "stateMutability": "view",
      "type": "function",
      "constant": true
    },
    {
      "inputs": [],
      "name": "name",
      "outputs": [
        {
          "internalType": "string",
          "name": "",
          "type": "string"
        }
      ],
      "stateMutability": "view",
      "type": "function",
      "constant": true
    },
    {
      "inputs": [
        {
          "internalType": "uint256",
          "name": "tokenId",
          "type": "uint256"
        }
      ],
      "name": "ownerOf",
      "outputs": [
        {
          "internalType": "address",
          "name": "",
          "type": "address"
        }
      ],
      "stateMutability": "view",
      "type": "function",
      "constant": true
    },
    {
      "inputs": [
        {
          "internalType": "address",
          "name": "from",
          "type": "address"
        },
        {
          "internalType": "address",
          "name": "to",
          "type": "address"
        },
        {
          "internalType": "uint256",
          "name": "tokenId",
          "type": "uint256"
        }
      ],
      "name": "safeTransferFrom",
      "outputs": [],
      "stateMutability": "nonpayable",
      "type": "function"
    },
    {
      "inputs": [
        {
          "internalType": "address",
          "name": "from",
          "type": "address"
        },
        {
          "internalType": "address",
          "name": "to",
          "type": "address"
        },
        {
          "internalType": "uint256",
          "name": "tokenId",
          "type": "uint256"
        },
        {
          "internalType": "bytes",
          "name": "_data",
          "type": "bytes"
        }
      ],
      "name": "safeTransferFrom",
      "outputs": [],
      "stateMutability": "nonpayable",
      "type": "function"
    },
    {
      "inputs": [
        {
          "internalType": "address",
          "name": "operator",
          "type": "address"
        },
        {
          "internalType": "bool",
          "name": "approved",
          "type": "bool"
        }
      ],
      "name": "setApprovalForAll",
      "outputs": [],
      "stateMutability": "nonpayable",
      "type": "function"
    },
    {
      "inputs": [
        {
          "internalType": "bytes4",
          "name": "interfaceId",
          "type": "bytes4"
        }
      ],
      "name": "supportsInterface",
      "outputs": [
        {
          "internalType": "bool",
          "name": "",
          "type": "bool"
        }
      ],
      "stateMutability": "view",
      "type": "function",
      "constant": true
    },
    {
      "inputs": [],
      "name": "symbol",
      "outputs": [
        {
          "internalType": "string",
          "name": "",
          "type": "string"
        }
      ],
      "stateMutability": "view",
      "type": "function",
      "constant": true
    },
    {
      "inputs": [
        {
          "internalType": "uint256",
          "name": "tokenId",
          "type": "uint256"
        }
      ],
      "name": "tokenURI",
      "outputs": [
        {
          "internalType": "string",
          "name": "",
          "type": "string"
        }
      ],
      "stateMutability": "view",
      "type": "function",
      "constant": true
    },
    {
      "inputs": [
        {
          "internalType": "address",
          "name": "from",
          "type": "address"
        },
        {
          "internalType": "address",
          "name": "to",
          "type": "address"
        },
        {
          "internalType": "uint256",
          "name": "tokenId",
          "type": "uint256"
        }
      ],
      "name": "transferFrom",
      "outputs": [],
      "stateMutability": "nonpayable",
      "type": "function"
    },
    {
      "inputs": [
        {
          "internalType": "uint256",
          "name": "_design",
          "type": "uint256"
        },
        {
          "internalType": "uint256",
          "name": "_price",
          "type": "uint256"
        }
      ],
      "name": "buyPot",
      "outputs": [
        {
          "internalType": "uint256",
          "name": "",
          "type": "uint256"
        }
      ],
      "stateMutability": "payable",
      "type": "function",
      "payable": true
    },
    {
      "inputs": [
        {
          "internalType": "address",
          "name": "_owner",
          "type": "address"
        }
      ],
      "name": "potsOfOwner",
      "outputs": [
        {
          "internalType": "uint256[]",
          "name": "ownerTokens",
          "type": "uint256[]"
        }
      ],
      "stateMutability": "view",
      "type": "function",
      "constant": true
    },
    {
      "inputs": [
        {
          "internalType": "uint256",
          "name": "_potId",
          "type": "uint256"
        },
        {
          "internalType": "uint256",
          "name": "_succId",
          "type": "uint256"
        }
      ],
      "name": "setPotSucc",
      "outputs": [
        {
          "internalType": "bool",
          "name": "",
          "type": "bool"
        }
      ],
      "stateMutability": "nonpayable",
      "type": "function"
    },
    {
      "inputs": [
        {
          "internalType": "uint256",
          "name": "_potId",
          "type": "uint256"
        }
      ],
      "name": "getPotInfo",
      "outputs": [
        {
          "internalType": "uint256",
          "name": "design",
          "type": "uint256"
        },
        {
          "internalType": "uint256",
          "name": "succId",
          "type": "uint256"
        }
      ],
      "stateMutability": "view",
      "type": "function",
      "constant": true
    },
    {
      "inputs": [
        {
          "internalType": "address",
          "name": "_newAdmin",
          "type": "address"
        }
      ],
      "name": "setAdmin",
      "outputs": [
        {
          "internalType": "bool",
          "name": "",
          "type": "bool"
        }
      ],
      "stateMutability": "nonpayable",
      "type": "function"
    },
    {
      "inputs": [
        {
          "internalType": "uint256",
          "name": "_potId",
          "type": "uint256"
        }
      ],
      "name": "getPotAge",
      "outputs": [
        {
          "internalType": "uint256",
          "name": "",
          "type": "uint256"
        }
      ],
      "stateMutability": "view",
      "type": "function",
      "constant": true
    },
    {
      "inputs": [],
      "name": "getAdmin",
      "outputs": [
        {
          "internalType": "address",
          "name": "",
          "type": "address"
        }
      ],
      "stateMutability": "view",
      "type": "function",
      "constant": true
    }
  ],
  "bytecode": "0x60806040523480156200001157600080fd5b50604051620035ae380380620035ae8339818101604052810190620000379190620001d8565b8181816000908051906020019062000051929190620000b6565b5080600190805190602001906200006a929190620000b6565b50505033600660006101000a81548173ffffffffffffffffffffffffffffffffffffffff021916908373ffffffffffffffffffffffffffffffffffffffff16021790555050506200037c565b828054620000c490620002e8565b90600052602060002090601f016020900481019282620000e8576000855562000134565b82601f106200010357805160ff191683800117855562000134565b8280016001018555821562000134579182015b828111156200013357825182559160200191906001019062000116565b5b50905062000143919062000147565b5090565b5b808211156200016257600081600090555060010162000148565b5090565b60006200017d62000177846200027f565b6200024b565b9050828152602081018484840111156200019657600080fd5b620001a3848285620002b2565b509392505050565b600082601f830112620001bd57600080fd5b8151620001cf84826020860162000166565b91505092915050565b60008060408385031215620001ec57600080fd5b600083015167ffffffffffffffff8111156200020757600080fd5b6200021585828601620001ab565b925050602083015167ffffffffffffffff8111156200023357600080fd5b6200024185828601620001ab565b9150509250929050565b6000604051905081810181811067ffffffffffffffff821117156200027557620002746200034d565b5b8060405250919050565b600067ffffffffffffffff8211156200029d576200029c6200034d565b5b601f19601f8301169050602081019050919050565b60005b83811015620002d2578082015181840152602081019050620002b5565b83811115620002e2576000848401525b50505050565b600060028204905060018216806200030157607f821691505b602082108114156200031857620003176200031e565b5b50919050565b7f4e487b7100000000000000000000000000000000000000000000000000000000600052602260045260246000fd5b7f4e487b7100000000000000000000000000000000000000000000000000000000600052604160045260246000fd5b613222806200038c6000396000f3fe60806040526004361061011f5760003560e01c80636e9960c3116100a0578063a22cb46511610064578063a22cb46514610439578063b0e4c99b14610462578063b88d4fde1461049f578063c87b56dd146104c8578063e985e9c5146105055761011f565b80636e9960c31461032c578063704b6c021461035757806370a082311461039457806395d89b41146103d1578063993cbf69146103fc5761011f565b80632701483a116100e75780632701483a1461021b5780633e64e78a1461024b57806342842e0e146102885780636352211e146102b15780636e1e277b146102ee5761011f565b806301ffc9a71461012457806306fdde0314610161578063081812fc1461018c578063095ea7b3146101c957806323b872dd146101f2575b600080fd5b34801561013057600080fd5b5061014b600480360381019061014691906122b6565b610542565b6040516101589190612b48565b60405180910390f35b34801561016d57600080fd5b50610176610624565b6040516101839190612b63565b60405180910390f35b34801561019857600080fd5b506101b360048036038101906101ae9190612308565b6106b6565b6040516101c09190612a88565b60405180910390f35b3480156101d557600080fd5b506101f060048036038101906101eb919061227a565b61073b565b005b3480156101fe57600080fd5b5061021960048036038101906102149190612174565b610853565b005b61023560048036038101906102309190612331565b6108b3565b6040516102429190612d85565b60405180910390f35b34801561025757600080fd5b50610272600480360381019061026d919061210f565b610909565b60405161027f9190612b26565b60405180910390f35b34801561029457600080fd5b506102af60048036038101906102aa9190612174565b610ae3565b005b3480156102bd57600080fd5b506102d860048036038101906102d39190612308565b610b03565b6040516102e59190612a88565b60405180910390f35b3480156102fa57600080fd5b5061031560048036038101906103109190612308565b610bb5565b604051610323929190612da0565b60405180910390f35b34801561033857600080fd5b50610341610ca1565b60405161034e9190612a88565b60405180910390f35b34801561036357600080fd5b5061037e6004803603810190610379919061210f565b610ccb565b60405161038b9190612b48565b60405180910390f35b3480156103a057600080fd5b506103bb60048036038101906103b6919061210f565b610da7565b6040516103c89190612d85565b60405180910390f35b3480156103dd57600080fd5b506103e6610e5f565b6040516103f39190612b63565b60405180910390f35b34801561040857600080fd5b50610423600480360381019061041e9190612331565b610ef1565b6040516104309190612b48565b60405180910390f35b34801561044557600080fd5b50610460600480360381019061045b919061223e565b611086565b005b34801561046e57600080fd5b5061048960048036038101906104849190612308565b611207565b6040516104969190612d85565b60405180910390f35b3480156104ab57600080fd5b506104c660048036038101906104c191906121c3565b611281565b005b3480156104d457600080fd5b506104ef60048036038101906104ea9190612308565b6112e3565b6040516104fc9190612b63565b60405180910390f35b34801561051157600080fd5b5061052c60048036038101906105279190612138565b61138a565b6040516105399190612b48565b60405180910390f35b60007f80ac58cd000000000000000000000000000000000000000000000000000000007bffffffffffffffffffffffffffffffffffffffffffffffffffffffff1916827bffffffffffffffffffffffffffffffffffffffffffffffffffffffff1916148061060d57507f5b5e139f000000000000000000000000000000000000000000000000000000007bffffffffffffffffffffffffffffffffffffffffffffffffffffffff1916827bffffffffffffffffffffffffffffffffffffffffffffffffffffffff1916145b8061061d575061061c8261141e565b5b9050919050565b60606000805461063390613017565b80601f016020809104026020016040519081016040528092919081815260200182805461065f90613017565b80156106ac5780601f10610681576101008083540402835291602001916106ac565b820191906000526020600020905b81548152906001019060200180831161068f57829003601f168201915b5050505050905090565b60006106c182611488565b610700576040517f08c379a00000000000000000000000000000000000000000000000000000000081526004016106f790612ce5565b60405180910390fd5b6004600083815260200190815260200160002060009054906101000a900473ffffffffffffffffffffffffffffffffffffffff169050919050565b600061074682610b03565b90508073ffffffffffffffffffffffffffffffffffffffff168373ffffffffffffffffffffffffffffffffffffffff1614156107b7576040517f08c379a00000000000000000000000000000000000000000000000000000000081526004016107ae90612d45565b60405180910390fd5b8073ffffffffffffffffffffffffffffffffffffffff166107d66114f4565b73ffffffffffffffffffffffffffffffffffffffff1614806108055750610804816107ff6114f4565b61138a565b5b610844576040517f08c379a000000000000000000000000000000000000000000000000000000000815260040161083b90612c65565b60405180910390fd5b61084e83836114fc565b505050565b61086461085e6114f4565b826115b5565b6108a3576040517f08c379a000000000000000000000000000000000000000000000000000000000815260040161089a90612d65565b60405180910390fd5b6108ae838383611693565b505050565b60008134146108f7576040517f08c379a00000000000000000000000000000000000000000000000000000000081526004016108ee90612c25565b60405180910390fd5b61090183336118ef565b905092915050565b6060600061091683610da7565b9050600081141561099957600067ffffffffffffffff811115610962577f4e487b7100000000000000000000000000000000000000000000000000000000600052604160045260246000fd5b6040519080825280602002602001820160405280156109905781602001602082028036833780820191505090505b50915050610ade565b60008167ffffffffffffffff8111156109db577f4e487b7100000000000000000000000000000000000000000000000000000000600052604160045260246000fd5b604051908082528060200260200182016040528015610a095781602001602082028036833780820191505090505b50905060006001600780549050610a209190612f2d565b9050600080600190505b828111610ad5578673ffffffffffffffffffffffffffffffffffffffff16610a5182610b03565b73ffffffffffffffffffffffffffffffffffffffff161415610ac25780848381518110610aa7577f4e487b7100000000000000000000000000000000000000000000000000000000600052603260045260246000fd5b6020026020010181815250508180610abe90613049565b9250505b8080610acd90613049565b915050610a2a565b83955050505050505b919050565b610afe83838360405180602001604052806000815250611281565b505050565b6000806002600084815260200190815260200160002060009054906101000a900473ffffffffffffffffffffffffffffffffffffffff169050600073ffffffffffffffffffffffffffffffffffffffff168173ffffffffffffffffffffffffffffffffffffffff161415610bac576040517f08c379a0000000000000000000000000000000000000000000000000000000008152600401610ba390612ca5565b60405180910390fd5b80915050919050565b600080600060078481548110610bf4577f4e487b7100000000000000000000000000000000000000000000000000000000600052603260045260246000fd5b906000526020600020016040518060600160405290816000820160009054906101000a900467ffffffffffffffff1667ffffffffffffffff1667ffffffffffffffff1681526020016000820160089054906101000a900463ffffffff1663ffffffff1663ffffffff16815260200160008201600c9054906101000a900461ffff1661ffff1661ffff16815250509050806040015161ffff169250806020015163ffffffff16915050915091565b6000600660009054906101000a900473ffffffffffffffffffffffffffffffffffffffff16905090565b6000600660009054906101000a900473ffffffffffffffffffffffffffffffffffffffff1673ffffffffffffffffffffffffffffffffffffffff163373ffffffffffffffffffffffffffffffffffffffff1614610d5d576040517f08c379a0000000000000000000000000000000000000000000000000000000008152600401610d5490612c05565b60405180910390fd5b81600660006101000a81548173ffffffffffffffffffffffffffffffffffffffff021916908373ffffffffffffffffffffffffffffffffffffffff16021790555060019050919050565b60008073ffffffffffffffffffffffffffffffffffffffff168273ffffffffffffffffffffffffffffffffffffffff161415610e18576040517f08c379a0000000000000000000000000000000000000000000000000000000008152600401610e0f90612c85565b60405180910390fd5b600360008373ffffffffffffffffffffffffffffffffffffffff1673ffffffffffffffffffffffffffffffffffffffff168152602001908152602001600020549050919050565b606060018054610e6e90613017565b80601f0160208091040260200160405190810160405280929190818152602001828054610e9a90613017565b8015610ee75780601f10610ebc57610100808354040283529160200191610ee7565b820191906000526020600020905b815481529060010190602001808311610eca57829003601f168201915b5050505050905090565b6000600660009054906101000a900473ffffffffffffffffffffffffffffffffffffffff1673ffffffffffffffffffffffffffffffffffffffff163373ffffffffffffffffffffffffffffffffffffffff1614610f83576040517f08c379a0000000000000000000000000000000000000000000000000000000008152600401610f7a90612c05565b60405180910390fd5b8160078481548110610fbe577f4e487b7100000000000000000000000000000000000000000000000000000000600052603260045260246000fd5b9060005260206000200160000160086101000a81548163ffffffff021916908363ffffffff1602179055508160078481548110611024577f4e487b7100000000000000000000000000000000000000000000000000000000600052603260045260246000fd5b9060005260206000200160000160089054906101000a900463ffffffff1663ffffffff161461107c577f4e487b7100000000000000000000000000000000000000000000000000000000600052600160045260246000fd5b6001905092915050565b61108e6114f4565b73ffffffffffffffffffffffffffffffffffffffff168273ffffffffffffffffffffffffffffffffffffffff1614156110fc576040517f08c379a00000000000000000000000000000000000000000000000000000000081526004016110f390612be5565b60405180910390fd5b80600560006111096114f4565b73ffffffffffffffffffffffffffffffffffffffff1673ffffffffffffffffffffffffffffffffffffffff16815260200190815260200160002060008473ffffffffffffffffffffffffffffffffffffffff1673ffffffffffffffffffffffffffffffffffffffff16815260200190815260200160002060006101000a81548160ff0219169083151502179055508173ffffffffffffffffffffffffffffffffffffffff166111b66114f4565b73ffffffffffffffffffffffffffffffffffffffff167f17307eab39ab6107e8899845ad3d59bd9653f200f220920489ca2b5937696c31836040516111fb9190612b48565b60405180910390a35050565b600060078281548110611243577f4e487b7100000000000000000000000000000000000000000000000000000000600052603260045260246000fd5b9060005260206000200160000160009054906101000a900467ffffffffffffffff1667ffffffffffffffff164261127a9190612f2d565b9050919050565b61129261128c6114f4565b836115b5565b6112d1576040517f08c379a00000000000000000000000000000000000000000000000000000000081526004016112c890612d65565b60405180910390fd5b6112dd84848484611a28565b50505050565b60606112ee82611488565b61132d576040517f08c379a000000000000000000000000000000000000000000000000000000000815260040161132490612d25565b60405180910390fd5b6000611337611a84565b905060008151116113575760405180602001604052806000815250611382565b8061136184611a9b565b604051602001611372929190612a64565b6040516020818303038152906040525b915050919050565b6000600560008473ffffffffffffffffffffffffffffffffffffffff1673ffffffffffffffffffffffffffffffffffffffff16815260200190815260200160002060008373ffffffffffffffffffffffffffffffffffffffff1673ffffffffffffffffffffffffffffffffffffffff16815260200190815260200160002060009054906101000a900460ff16905092915050565b60007f01ffc9a7000000000000000000000000000000000000000000000000000000007bffffffffffffffffffffffffffffffffffffffffffffffffffffffff1916827bffffffffffffffffffffffffffffffffffffffffffffffffffffffff1916149050919050565b60008073ffffffffffffffffffffffffffffffffffffffff166002600084815260200190815260200160002060009054906101000a900473ffffffffffffffffffffffffffffffffffffffff1673ffffffffffffffffffffffffffffffffffffffff1614159050919050565b600033905090565b816004600083815260200190815260200160002060006101000a81548173ffffffffffffffffffffffffffffffffffffffff021916908373ffffffffffffffffffffffffffffffffffffffff160217905550808273ffffffffffffffffffffffffffffffffffffffff1661156f83610b03565b73ffffffffffffffffffffffffffffffffffffffff167f8c5be1e5ebec7d5bd14f71427d1e84f3dd0314c0f7b2291e5b200ac8c7c3b92560405160405180910390a45050565b60006115c082611488565b6115ff576040517f08c379a00000000000000000000000000000000000000000000000000000000081526004016115f690612c45565b60405180910390fd5b600061160a83610b03565b90508073ffffffffffffffffffffffffffffffffffffffff168473ffffffffffffffffffffffffffffffffffffffff16148061167957508373ffffffffffffffffffffffffffffffffffffffff16611661846106b6565b73ffffffffffffffffffffffffffffffffffffffff16145b8061168a5750611689818561138a565b5b91505092915050565b8273ffffffffffffffffffffffffffffffffffffffff166116b382610b03565b73ffffffffffffffffffffffffffffffffffffffff1614611709576040517f08c379a000000000000000000000000000000000000000000000000000000000815260040161170090612d05565b60405180910390fd5b600073ffffffffffffffffffffffffffffffffffffffff168273ffffffffffffffffffffffffffffffffffffffff161415611779576040517f08c379a000000000000000000000000000000000000000000000000000000000815260040161177090612bc5565b60405180910390fd5b611784838383611c48565b61178f6000826114fc565b6001600360008573ffffffffffffffffffffffffffffffffffffffff1673ffffffffffffffffffffffffffffffffffffffff16815260200190815260200160002060008282546117df9190612f2d565b925050819055506001600360008473ffffffffffffffffffffffffffffffffffffffff1673ffffffffffffffffffffffffffffffffffffffff16815260200190815260200160002060008282546118369190612ea6565b92505081905550816002600083815260200190815260200160002060006101000a81548173ffffffffffffffffffffffffffffffffffffffff021916908373ffffffffffffffffffffffffffffffffffffffff160217905550808273ffffffffffffffffffffffffffffffffffffffff168473ffffffffffffffffffffffffffffffffffffffff167fddf252ad1be2c89b69c2b068fc378daa952ba7f163c4a11628f55a4df523b3ef60405160405180910390a4505050565b6000600760405180606001604052804267ffffffffffffffff168152602001600063ffffffff1681526020018561ffff168152509080600181540180825580915050600190039060005260206000200160009091909190915060008201518160000160006101000a81548167ffffffffffffffff021916908367ffffffffffffffff16021790555060208201518160000160086101000a81548163ffffffff021916908363ffffffff160217905550604082015181600001600c6101000a81548161ffff021916908361ffff1602179055505050600060016007805490506119d79190612f2d565b90506119e38382611c4d565b7f14e4d68bce3be952de68ddd0224dc99b83896c22c8707c3b51a52172714adf18838286604051611a1693929190612aef565b60405180910390a18091505092915050565b611a33848484611693565b611a3f84848484611c6b565b611a7e576040517f08c379a0000000000000000000000000000000000000000000000000000000008152600401611a7590612b85565b60405180910390fd5b50505050565b606060405180602001604052806000815250905090565b60606000821415611ae3576040518060400160405280600181526020017f30000000000000000000000000000000000000000000000000000000000000008152509050611c43565b600082905060005b60008214611b15578080611afe90613049565b915050600a82611b0e9190612efc565b9150611aeb565b60008167ffffffffffffffff811115611b57577f4e487b7100000000000000000000000000000000000000000000000000000000600052604160045260246000fd5b6040519080825280601f01601f191660200182016040528015611b895781602001600182028036833780820191505090505b5090505b60008514611c3c57600182611ba29190612f2d565b9150600a85611bb19190613092565b6030611bbd9190612ea6565b60f81b818381518110611bf9577f4e487b7100000000000000000000000000000000000000000000000000000000600052603260045260246000fd5b60200101907effffffffffffffffffffffffffffffffffffffffffffffffffffffffffffff1916908160001a905350600a85611c359190612efc565b9450611b8d565b8093505050505b919050565b505050565b611c67828260405180602001604052806000815250611e02565b5050565b6000611c8c8473ffffffffffffffffffffffffffffffffffffffff16611e5d565b15611df5578373ffffffffffffffffffffffffffffffffffffffff1663150b7a02611cb56114f4565b8786866040518563ffffffff1660e01b8152600401611cd79493929190612aa3565b602060405180830381600087803b158015611cf157600080fd5b505af1925050508015611d2257506040513d601f19601f82011682018060405250810190611d1f91906122df565b60015b611da5573d8060008114611d52576040519150601f19603f3d011682016040523d82523d6000602084013e611d57565b606091505b50600081511415611d9d576040517f08c379a0000000000000000000000000000000000000000000000000000000008152600401611d9490612b85565b60405180910390fd5b805181602001fd5b63150b7a0260e01b7bffffffffffffffffffffffffffffffffffffffffffffffffffffffff1916817bffffffffffffffffffffffffffffffffffffffffffffffffffffffff191614915050611dfa565b600190505b949350505050565b611e0c8383611e70565b611e196000848484611c6b565b611e58576040517f08c379a0000000000000000000000000000000000000000000000000000000008152600401611e4f90612b85565b60405180910390fd5b505050565b600080823b905060008111915050919050565b600073ffffffffffffffffffffffffffffffffffffffff168273ffffffffffffffffffffffffffffffffffffffff161415611ee0576040517f08c379a0000000000000000000000000000000000000000000000000000000008152600401611ed790612cc5565b60405180910390fd5b611ee981611488565b15611f29576040517f08c379a0000000000000000000000000000000000000000000000000000000008152600401611f2090612ba5565b60405180910390fd5b611f3560008383611c48565b6001600360008473ffffffffffffffffffffffffffffffffffffffff1673ffffffffffffffffffffffffffffffffffffffff1681526020019081526020016000206000828254611f859190612ea6565b92505081905550816002600083815260200190815260200160002060006101000a81548173ffffffffffffffffffffffffffffffffffffffff021916908373ffffffffffffffffffffffffffffffffffffffff160217905550808273ffffffffffffffffffffffffffffffffffffffff16600073ffffffffffffffffffffffffffffffffffffffff167fddf252ad1be2c89b69c2b068fc378daa952ba7f163c4a11628f55a4df523b3ef60405160405180910390a45050565b600061205161204c84612dfa565b612dc9565b90508281526020810184848401111561206957600080fd5b612074848285612fd5565b509392505050565b60008135905061208b81613190565b92915050565b6000813590506120a0816131a7565b92915050565b6000813590506120b5816131be565b92915050565b6000815190506120ca816131be565b92915050565b600082601f8301126120e157600080fd5b81356120f184826020860161203e565b91505092915050565b600081359050612109816131d5565b92915050565b60006020828403121561212157600080fd5b600061212f8482850161207c565b91505092915050565b6000806040838503121561214b57600080fd5b60006121598582860161207c565b925050602061216a8582860161207c565b9150509250929050565b60008060006060848603121561218957600080fd5b60006121978682870161207c565b93505060206121a88682870161207c565b92505060406121b9868287016120fa565b9150509250925092565b600080600080608085870312156121d957600080fd5b60006121e78782880161207c565b94505060206121f88782880161207c565b9350506040612209878288016120fa565b925050606085013567ffffffffffffffff81111561222657600080fd5b612232878288016120d0565b91505092959194509250565b6000806040838503121561225157600080fd5b600061225f8582860161207c565b925050602061227085828601612091565b9150509250929050565b6000806040838503121561228d57600080fd5b600061229b8582860161207c565b92505060206122ac858286016120fa565b9150509250929050565b6000602082840312156122c857600080fd5b60006122d6848285016120a6565b91505092915050565b6000602082840312156122f157600080fd5b60006122ff848285016120bb565b91505092915050565b60006020828403121561231a57600080fd5b6000612328848285016120fa565b91505092915050565b6000806040838503121561234457600080fd5b6000612352858286016120fa565b9250506020612363858286016120fa565b9150509250929050565b60006123798383612a46565b60208301905092915050565b61238e81612f61565b82525050565b600061239f82612e3a565b6123a98185612e68565b93506123b483612e2a565b8060005b838110156123e55781516123cc888261236d565b97506123d783612e5b565b9250506001810190506123b8565b5085935050505092915050565b6123fb81612f73565b82525050565b600061240c82612e45565b6124168185612e79565b9350612426818560208601612fe4565b61242f8161317f565b840191505092915050565b600061244582612e50565b61244f8185612e8a565b935061245f818560208601612fe4565b6124688161317f565b840191505092915050565b600061247e82612e50565b6124888185612e9b565b9350612498818560208601612fe4565b80840191505092915050565b60006124b1603283612e8a565b91507f4552433732313a207472616e7366657220746f206e6f6e20455243373231526560008301527f63656976657220696d706c656d656e74657200000000000000000000000000006020830152604082019050919050565b6000612517601c83612e8a565b91507f4552433732313a20746f6b656e20616c7265616479206d696e746564000000006000830152602082019050919050565b6000612557602483612e8a565b91507f4552433732313a207472616e7366657220746f20746865207a65726f2061646460008301527f72657373000000000000000000000000000000000000000000000000000000006020830152604082019050919050565b60006125bd601983612e8a565b91507f4552433732313a20617070726f766520746f2063616c6c6572000000000000006000830152602082019050919050565b60006125fd600a83612e8a565b91507f6f6e6c792061646d696e000000000000000000000000000000000000000000006000830152602082019050919050565b600061263d601883612e8a565b91507f57726f6e67207072696365207061696420666f7220706f7400000000000000006000830152602082019050919050565b600061267d602c83612e8a565b91507f4552433732313a206f70657261746f7220717565727920666f72206e6f6e657860008301527f697374656e7420746f6b656e00000000000000000000000000000000000000006020830152604082019050919050565b60006126e3603883612e8a565b91507f4552433732313a20617070726f76652063616c6c6572206973206e6f74206f7760008301527f6e6572206e6f7220617070726f76656420666f7220616c6c00000000000000006020830152604082019050919050565b6000612749602a83612e8a565b91507f4552433732313a2062616c616e636520717565727920666f7220746865207a6560008301527f726f2061646472657373000000000000000000000000000000000000000000006020830152604082019050919050565b60006127af602983612e8a565b91507f4552433732313a206f776e657220717565727920666f72206e6f6e657869737460008301527f656e7420746f6b656e00000000000000000000000000000000000000000000006020830152604082019050919050565b6000612815602083612e8a565b91507f4552433732313a206d696e7420746f20746865207a65726f20616464726573736000830152602082019050919050565b6000612855602c83612e8a565b91507f4552433732313a20617070726f76656420717565727920666f72206e6f6e657860008301527f697374656e7420746f6b656e00000000000000000000000000000000000000006020830152604082019050919050565b60006128bb602983612e8a565b91507f4552433732313a207472616e73666572206f6620746f6b656e2074686174206960008301527f73206e6f74206f776e00000000000000000000000000000000000000000000006020830152604082019050919050565b6000612921602f83612e8a565b91507f4552433732314d657461646174613a2055524920717565727920666f72206e6f60008301527f6e6578697374656e7420746f6b656e00000000000000000000000000000000006020830152604082019050919050565b6000612987602183612e8a565b91507f4552433732313a20617070726f76616c20746f2063757272656e74206f776e6560008301527f72000000000000000000000000000000000000000000000000000000000000006020830152604082019050919050565b60006129ed603183612e8a565b91507f4552433732313a207472616e736665722063616c6c6572206973206e6f74206f60008301527f776e6572206e6f7220617070726f7665640000000000000000000000000000006020830152604082019050919050565b612a4f81612fcb565b82525050565b612a5e81612fcb565b82525050565b6000612a708285612473565b9150612a7c8284612473565b91508190509392505050565b6000602082019050612a9d6000830184612385565b92915050565b6000608082019050612ab86000830187612385565b612ac56020830186612385565b612ad26040830185612a55565b8181036060830152612ae48184612401565b905095945050505050565b6000606082019050612b046000830186612385565b612b116020830185612a55565b612b1e6040830184612a55565b949350505050565b60006020820190508181036000830152612b408184612394565b905092915050565b6000602082019050612b5d60008301846123f2565b92915050565b60006020820190508181036000830152612b7d818461243a565b905092915050565b60006020820190508181036000830152612b9e816124a4565b9050919050565b60006020820190508181036000830152612bbe8161250a565b9050919050565b60006020820190508181036000830152612bde8161254a565b9050919050565b60006020820190508181036000830152612bfe816125b0565b9050919050565b60006020820190508181036000830152612c1e816125f0565b9050919050565b60006020820190508181036000830152612c3e81612630565b9050919050565b60006020820190508181036000830152612c5e81612670565b9050919050565b60006020820190508181036000830152612c7e816126d6565b9050919050565b60006020820190508181036000830152612c9e8161273c565b9050919050565b60006020820190508181036000830152612cbe816127a2565b9050919050565b60006020820190508181036000830152612cde81612808565b9050919050565b60006020820190508181036000830152612cfe81612848565b9050919050565b60006020820190508181036000830152612d1e816128ae565b9050919050565b60006020820190508181036000830152612d3e81612914565b9050919050565b60006020820190508181036000830152612d5e8161297a565b9050919050565b60006020820190508181036000830152612d7e816129e0565b9050919050565b6000602082019050612d9a6000830184612a55565b92915050565b6000604082019050612db56000830185612a55565b612dc26020830184612a55565b9392505050565b6000604051905081810181811067ffffffffffffffff82111715612df057612def613150565b5b8060405250919050565b600067ffffffffffffffff821115612e1557612e14613150565b5b601f19601f8301169050602081019050919050565b6000819050602082019050919050565b600081519050919050565b600081519050919050565b600081519050919050565b6000602082019050919050565b600082825260208201905092915050565b600082825260208201905092915050565b600082825260208201905092915050565b600081905092915050565b6000612eb182612fcb565b9150612ebc83612fcb565b9250827fffffffffffffffffffffffffffffffffffffffffffffffffffffffffffffffff03821115612ef157612ef06130c3565b5b828201905092915050565b6000612f0782612fcb565b9150612f1283612fcb565b925082612f2257612f216130f2565b5b828204905092915050565b6000612f3882612fcb565b9150612f4383612fcb565b925082821015612f5657612f556130c3565b5b828203905092915050565b6000612f6c82612fab565b9050919050565b60008115159050919050565b60007fffffffff0000000000000000000000000000000000000000000000000000000082169050919050565b600073ffffffffffffffffffffffffffffffffffffffff82169050919050565b6000819050919050565b82818337600083830152505050565b60005b83811015613002578082015181840152602081019050612fe7565b83811115613011576000848401525b50505050565b6000600282049050600182168061302f57607f821691505b6020821081141561304357613042613121565b5b50919050565b600061305482612fcb565b91507fffffffffffffffffffffffffffffffffffffffffffffffffffffffffffffffff821415613087576130866130c3565b5b600182019050919050565b600061309d82612fcb565b91506130a883612fcb565b9250826130b8576130b76130f2565b5b828206905092915050565b7f4e487b7100000000000000000000000000000000000000000000000000000000600052601160045260246000fd5b7f4e487b7100000000000000000000000000000000000000000000000000000000600052601260045260246000fd5b7f4e487b7100000000000000000000000000000000000000000000000000000000600052602260045260246000fd5b7f4e487b7100000000000000000000000000000000000000000000000000000000600052604160045260246000fd5b6000601f19601f8301169050919050565b61319981612f61565b81146131a457600080fd5b50565b6131b081612f73565b81146131bb57600080fd5b50565b6131c781612f7f565b81146131d257600080fd5b50565b6131de81612fcb565b81146131e957600080fd5b5056fea264697066735822122096f16bb5dafed68e5ae6f455c0ad3cca8e67382d81869eb50b75de985cfec3f264736f6c63430008000033",
  "immutableReferences": {},
  "source": "pragma solidity ^0.8.0;\n\nimport \"./PotOwnershipInterface.sol\";\nimport \"@openzeppelin/contracts/token/ERC721/ERC721.sol\";\n\ncontract PotOwnership is PotOwnershipInterface, ERC721 {\n    address admin;\n    // string name = \"CryptoPots\";\n    // string symbol = \"CP\";\n\n    modifier onlyAdmin() {\n        require(msg.sender == admin, \"only admin\");\n        _;\n    }\n\n    struct Pot {\n        uint64 creationTime;\n        uint32 succId;\n        uint16 design;\n    }\n\n    Pot[] pots;\n\n    constructor(string memory name_, string memory symbol_)\n        ERC721(name_, symbol_)\n    {\n        // name = name_;\n        // symbol = symbol_;\n        admin = msg.sender;\n    }\n\n    function _createPot(uint256 _design, address _owner)\n        internal\n        returns (uint256)\n    {\n        pots.push(Pot(uint64(block.timestamp), 0, uint16(_design)));\n        uint256 _newPotIndex = pots.length - 1;\n        _safeMint(_owner, _newPotIndex);\n        emit newPot(_owner, _newPotIndex, _design);\n        return _newPotIndex;\n    }\n\n    function buyPot(uint256 _design, uint256 _price)\n        external\n        payable\n        override\n        returns (uint256)\n    {\n        require(msg.value == _price, \"Wrong price paid for pot\");\n        return _createPot(_design, msg.sender);\n    }\n\n    function potsOfOwner(address _owner)\n        external\n        view\n        override\n        returns (uint256[] memory ownerTokens)\n    {\n        uint256 tokenCount = balanceOf(_owner);\n\n        if (tokenCount == 0) {\n            // Return an empty array\n            return new uint256[](0);\n        } else {\n            uint256[] memory result = new uint256[](tokenCount);\n            uint256 totalPots = pots.length - 1;\n            uint256 resultIndex = 0;\n\n            // We count on the fact that all pots have IDs starting at 1 and increasing\n            // sequentially up to the totalPots count.\n            uint256 potId;\n\n            for (potId = 1; potId <= totalPots; potId++) {\n                if (ownerOf(potId) == _owner) {\n                    result[resultIndex] = potId;\n                    resultIndex++;\n                }\n            }\n\n            return result;\n        }\n    }\n\n    function setPotSucc(uint256 _potId, uint256 _succId)\n        external\n        override\n        onlyAdmin\n        returns (bool)\n    {\n        pots[_potId].succId = uint32(_succId);\n        assert(pots[_potId].succId == _succId);\n        return true;\n    }\n\n    function getPotInfo(uint256 _potId)\n        external\n        view\n        override\n        returns (uint256 design, uint256 succId)\n    {\n        Pot memory _thisPot = pots[_potId];\n        design = uint256(_thisPot.design);\n        succId = uint256(_thisPot.succId);\n    }\n\n    function setAdmin(address _newAdmin)\n        external\n        override\n        onlyAdmin\n        returns (bool)\n    {\n        admin = _newAdmin;\n        return true;\n    }\n\n    function getPotAge(uint256 _potId)\n        external\n        view\n        override\n        returns (uint256)\n    {\n        return block.timestamp - pots[_potId].creationTime;\n    }\n\n    function getAdmin() external view returns (address) {\n        return admin;\n    }\n}\n",
  "sourcePath": "/Users/ellenguo6/Hacks/crypto-succs/contracts/PotOwnership.sol",
  "compiler": {
    "name": "solc",
    "version": "0.8.0+commit.c7dfd78e.Emscripten.clang"
  },
  "schemaVersion": "3.4.1",
  "updatedAt": "2021-05-30T00:15:06.387Z",
  "networkType": "ethereum",
  "devdoc": {
    "kind": "dev",
    "methods": {
      "approve(address,uint256)": {
        "details": "See {IERC721-approve}."
      },
      "balanceOf(address)": {
        "details": "See {IERC721-balanceOf}."
      },
      "getApproved(uint256)": {
        "details": "See {IERC721-getApproved}."
      },
      "isApprovedForAll(address,address)": {
        "details": "See {IERC721-isApprovedForAll}."
      },
      "name()": {
        "details": "See {IERC721Metadata-name}."
      },
      "ownerOf(uint256)": {
        "details": "See {IERC721-ownerOf}."
      },
      "safeTransferFrom(address,address,uint256)": {
        "details": "See {IERC721-safeTransferFrom}."
      },
      "safeTransferFrom(address,address,uint256,bytes)": {
        "details": "See {IERC721-safeTransferFrom}."
      },
      "setApprovalForAll(address,bool)": {
        "details": "See {IERC721-setApprovalForAll}."
      },
      "supportsInterface(bytes4)": {
        "details": "See {IERC165-supportsInterface}."
      },
      "symbol()": {
        "details": "See {IERC721Metadata-symbol}."
      },
      "tokenURI(uint256)": {
        "details": "See {IERC721Metadata-tokenURI}."
      },
      "transferFrom(address,address,uint256)": {
        "details": "See {IERC721-transferFrom}."
      }
    },
    "version": 1
  },
  "userdoc": {
    "kind": "user",
    "methods": {},
    "version": 1
  }
}