{
  "contractName": "SuccOwnership",
  "abi": [
    {
      "inputs": [
        {
          "internalType": "address",
          "name": "PotOwnership_",
          "type": "address"
        },
        {
          "internalType": "string",
          "name": "name_",
          "type": "string"
        },
        {
          "internalType": "string",
          "name": "symbol_",
          "type": "string"
        }
      ],
      "stateMutability": "nonpayable",
      "type": "constructor"
    },
    {
      "anonymous": false,
      "inputs": [
        {
          "indexed": true,
          "internalType": "address",
          "name": "owner",
          "type": "address"
        },
        {
          "indexed": true,
          "internalType": "address",
          "name": "approved",
          "type": "address"
        },
        {
          "indexed": true,
          "internalType": "uint256",
          "name": "tokenId",
          "type": "uint256"
        }
      ],
      "name": "Approval",
      "type": "event"
    },
    {
      "anonymous": false,
      "inputs": [
        {
          "indexed": true,
          "internalType": "address",
          "name": "owner",
          "type": "address"
        },
        {
          "indexed": true,
          "internalType": "address",
          "name": "operator",
          "type": "address"
        },
        {
          "indexed": false,
          "internalType": "bool",
          "name": "approved",
          "type": "bool"
        }
      ],
      "name": "ApprovalForAll",
      "type": "event"
    },
    {
      "anonymous": false,
      "inputs": [
        {
          "indexed": true,
          "internalType": "address",
          "name": "from",
          "type": "address"
        },
        {
          "indexed": true,
          "internalType": "address",
          "name": "to",
          "type": "address"
        },
        {
          "indexed": true,
          "internalType": "uint256",
          "name": "tokenId",
          "type": "uint256"
        }
      ],
      "name": "Transfer",
      "type": "event"
    },
    {
      "anonymous": false,
      "inputs": [
        {
          "indexed": false,
          "internalType": "address",
          "name": "owner",
          "type": "address"
        },
        {
          "indexed": false,
          "internalType": "uint256",
          "name": "succId",
          "type": "uint256"
        },
        {
          "indexed": false,
          "internalType": "uint256",
          "name": "parent1Id",
          "type": "uint256"
        },
        {
          "indexed": false,
          "internalType": "uint256",
          "name": "parent2Id",
          "type": "uint256"
        },
        {
          "indexed": false,
          "internalType": "uint256",
          "name": "genes",
          "type": "uint256"
        }
      ],
      "name": "newSucc",
      "type": "event"
    },
    {
      "inputs": [
        {
          "internalType": "address",
          "name": "to",
          "type": "address"
        },
        {
          "internalType": "uint256",
          "name": "tokenId",
          "type": "uint256"
        }
      ],
      "name": "approve",
      "outputs": [],
      "stateMutability": "nonpayable",
      "type": "function"
    },
    {
      "inputs": [
        {
          "internalType": "address",
          "name": "owner",
          "type": "address"
        }
      ],
      "name": "balanceOf",
      "outputs": [
        {
          "internalType": "uint256",
          "name": "",
          "type": "uint256"
        }
      ],
      "stateMutability": "view",
      "type": "function",
      "constant": true
    },
    {
      "inputs": [
        {
          "internalType": "uint256",
          "name": "tokenId",
          "type": "uint256"
        }
      ],
      "name": "getApproved",
      "outputs": [
        {
          "internalType": "address",
          "name": "",
          "type": "address"
        }
      ],
      "stateMutability": "view",
      "type": "function",
      "constant": true
    },
    {
      "inputs": [
        {
          "internalType": "address",
          "name": "owner",
          "type": "address"
        },
        {
          "internalType": "address",
          "name": "operator",
          "type": "address"
        }
      ],
      "name": "isApprovedForAll",
      "outputs": [
        {
          "internalType": "bool",
          "name": "",
          "type": "bool"
        }
      ],
      "stateMutability": "view",
      "type": "function",
      "constant": true
    },
    {
      "inputs": [],
      "name": "name",
      "outputs": [
        {
          "internalType": "string",
          "name": "",
          "type": "string"
        }
      ],
      "stateMutability": "view",
      "type": "function",
      "constant": true
    },
    {
      "inputs": [
        {
          "internalType": "uint256",
          "name": "tokenId",
          "type": "uint256"
        }
      ],
      "name": "ownerOf",
      "outputs": [
        {
          "internalType": "address",
          "name": "",
          "type": "address"
        }
      ],
      "stateMutability": "view",
      "type": "function",
      "constant": true
    },
    {
      "inputs": [
        {
          "internalType": "address",
          "name": "from",
          "type": "address"
        },
        {
          "internalType": "address",
          "name": "to",
          "type": "address"
        },
        {
          "internalType": "uint256",
          "name": "tokenId",
          "type": "uint256"
        }
      ],
      "name": "safeTransferFrom",
      "outputs": [],
      "stateMutability": "nonpayable",
      "type": "function"
    },
    {
      "inputs": [
        {
          "internalType": "address",
          "name": "from",
          "type": "address"
        },
        {
          "internalType": "address",
          "name": "to",
          "type": "address"
        },
        {
          "internalType": "uint256",
          "name": "tokenId",
          "type": "uint256"
        },
        {
          "internalType": "bytes",
          "name": "_data",
          "type": "bytes"
        }
      ],
      "name": "safeTransferFrom",
      "outputs": [],
      "stateMutability": "nonpayable",
      "type": "function"
    },
    {
      "inputs": [
        {
          "internalType": "address",
          "name": "operator",
          "type": "address"
        },
        {
          "internalType": "bool",
          "name": "approved",
          "type": "bool"
        }
      ],
      "name": "setApprovalForAll",
      "outputs": [],
      "stateMutability": "nonpayable",
      "type": "function"
    },
    {
      "inputs": [
        {
          "internalType": "bytes4",
          "name": "interfaceId",
          "type": "bytes4"
        }
      ],
      "name": "supportsInterface",
      "outputs": [
        {
          "internalType": "bool",
          "name": "",
          "type": "bool"
        }
      ],
      "stateMutability": "view",
      "type": "function",
      "constant": true
    },
    {
      "inputs": [],
      "name": "symbol",
      "outputs": [
        {
          "internalType": "string",
          "name": "",
          "type": "string"
        }
      ],
      "stateMutability": "view",
      "type": "function",
      "constant": true
    },
    {
      "inputs": [
        {
          "internalType": "uint256",
          "name": "tokenId",
          "type": "uint256"
        }
      ],
      "name": "tokenURI",
      "outputs": [
        {
          "internalType": "string",
          "name": "",
          "type": "string"
        }
      ],
      "stateMutability": "view",
      "type": "function",
      "constant": true
    },
    {
      "inputs": [
        {
          "internalType": "address",
          "name": "from",
          "type": "address"
        },
        {
          "internalType": "address",
          "name": "to",
          "type": "address"
        },
        {
          "internalType": "uint256",
          "name": "tokenId",
          "type": "uint256"
        }
      ],
      "name": "transferFrom",
      "outputs": [],
      "stateMutability": "nonpayable",
      "type": "function"
    },
    {
      "inputs": [
        {
          "internalType": "uint256",
          "name": "",
          "type": "uint256"
        }
      ],
      "name": "watersNeeded",
      "outputs": [
        {
          "internalType": "uint8",
          "name": "",
          "type": "uint8"
        }
      ],
      "stateMutability": "view",
      "type": "function",
      "constant": true
    },
    {
      "inputs": [
        {
          "internalType": "uint256",
          "name": "_genes",
          "type": "uint256"
        },
        {
          "internalType": "uint256",
          "name": "_price",
          "type": "uint256"
        }
      ],
      "name": "buySucc",
      "outputs": [
        {
          "internalType": "uint256",
          "name": "",
          "type": "uint256"
        }
      ],
      "stateMutability": "payable",
      "type": "function",
      "payable": true
    },
    {
      "inputs": [
        {
          "internalType": "address",
          "name": "_owner",
          "type": "address"
        }
      ],
      "name": "succsOfOwner",
      "outputs": [
        {
          "internalType": "uint256[]",
          "name": "ownerTokens",
          "type": "uint256[]"
        }
      ],
      "stateMutability": "view",
      "type": "function",
      "constant": true
    },
    {
      "inputs": [
        {
          "internalType": "uint256",
          "name": "_succId",
          "type": "uint256"
        },
        {
          "internalType": "uint256",
          "name": "_potId",
          "type": "uint256"
        }
      ],
      "name": "putSuccInPot",
      "outputs": [
        {
          "internalType": "bool",
          "name": "",
          "type": "bool"
        }
      ],
      "stateMutability": "nonpayable",
      "type": "function"
    },
    {
      "inputs": [
        {
          "internalType": "uint256",
          "name": "_succId",
          "type": "uint256"
        }
      ],
      "name": "getSuccInfo",
      "outputs": [
        {
          "internalType": "uint256",
          "name": "genes",
          "type": "uint256"
        },
        {
          "internalType": "uint256",
          "name": "sproutTime",
          "type": "uint256"
        },
        {
          "internalType": "uint256",
          "name": "potId",
          "type": "uint256"
        },
        {
          "internalType": "uint256",
          "name": "timesWatered",
          "type": "uint256"
        },
        {
          "internalType": "uint256",
          "name": "watersNeededIndex",
          "type": "uint256"
        },
        {
          "internalType": "bool",
          "name": "isBlooming",
          "type": "bool"
        }
      ],
      "stateMutability": "view",
      "type": "function",
      "constant": true
    },
    {
      "inputs": [
        {
          "internalType": "uint256",
          "name": "_succId",
          "type": "uint256"
        }
      ],
      "name": "getSuccAge",
      "outputs": [
        {
          "internalType": "uint256",
          "name": "",
          "type": "uint256"
        }
      ],
      "stateMutability": "view",
      "type": "function",
      "constant": true
    },
    {
      "inputs": [],
      "name": "getPotOwnership",
      "outputs": [
        {
          "internalType": "contract PotOwnershipInterface",
          "name": "",
          "type": "address"
        }
      ],
      "stateMutability": "view",
      "type": "function",
      "constant": true
    }
  ],
  "bytecode": "0x6080604052604051806101000160405280600160ff1660ff168152602001600260ff1660ff168152602001600460ff1660ff168152602001600860ff1660ff168152602001600f60ff1660ff168152602001601960ff1660ff168152602001602860ff1660ff168152602001603c60ff1660ff16815250600690600862000088929190620001af565b503480156200009657600080fd5b5060405162003c5038038062003c508339818101604052810190620000bc919062000389565b81818160009080519060200190620000d692919062000250565b508060019080519060200190620000ef92919062000250565b505050600073ffffffffffffffffffffffffffffffffffffffff168373ffffffffffffffffffffffffffffffffffffffff16141562000165576040517f08c379a00000000000000000000000000000000000000000000000000000000081526004016200015c9062000479565b60405180910390fd5b82600960006101000a81548173ffffffffffffffffffffffffffffffffffffffff021916908373ffffffffffffffffffffffffffffffffffffffff1602179055505050506200062b565b826008601f016020900481019282156200023d5791602002820160005b838211156200020c57835183826101000a81548160ff021916908360ff1602179055509260200192600101602081600001049283019260010302620001cc565b80156200023b5782816101000a81549060ff02191690556001016020816000010492830192600103026200020c565b505b5090506200024c9190620002e1565b5090565b8280546200025e906200057d565b90600052602060002090601f016020900481019282620002825760008555620002ce565b82601f106200029d57805160ff1916838001178555620002ce565b82800160010185558215620002ce579182015b82811115620002cd578251825591602001919060010190620002b0565b5b509050620002dd9190620002e1565b5090565b5b80821115620002fc576000816000905550600101620002e2565b5090565b6000620003176200031184620004cf565b6200049b565b9050828152602081018484840111156200033057600080fd5b6200033d84828562000547565b509392505050565b600081519050620003568162000611565b92915050565b600082601f8301126200036e57600080fd5b81516200038084826020860162000300565b91505092915050565b6000806000606084860312156200039f57600080fd5b6000620003af8682870162000345565b935050602084015167ffffffffffffffff811115620003cd57600080fd5b620003db868287016200035c565b925050604084015167ffffffffffffffff811115620003f957600080fd5b62000407868287016200035c565b9150509250925092565b60006200042060218362000502565b91507f506f744f776e65727368697020636f6e74726163742063616e6e6f742062652060008301527f30000000000000000000000000000000000000000000000000000000000000006020830152604082019050919050565b60006020820190508181036000830152620004948162000411565b9050919050565b6000604051905081810181811067ffffffffffffffff82111715620004c557620004c4620005e2565b5b8060405250919050565b600067ffffffffffffffff821115620004ed57620004ec620005e2565b5b601f19601f8301169050602081019050919050565b600082825260208201905092915050565b6000620005208262000527565b9050919050565b600073ffffffffffffffffffffffffffffffffffffffff82169050919050565b60005b83811015620005675780820151818401526020810190506200054a565b8381111562000577576000848401525b50505050565b600060028204905060018216806200059657607f821691505b60208210811415620005ad57620005ac620005b3565b5b50919050565b7f4e487b7100000000000000000000000000000000000000000000000000000000600052602260045260246000fd5b7f4e487b7100000000000000000000000000000000000000000000000000000000600052604160045260246000fd5b6200061c8162000513565b81146200062857600080fd5b50565b613615806200063b6000396000f3fe60806040526004361061011f5760003560e01c80635fd9ce03116100a05780639a3ff89e116100645780639a3ff89e1461043d578063a22cb4651461047a578063b88d4fde146104a3578063c87b56dd146104cc578063e985e9c5146105095761011f565b80635fd9ce031461032b5780636352211e1461035b57806370a082311461039857806395d89b41146103d557806399dba903146104005761011f565b80631a995864116100e75780631a9958641461022f57806323b872dd1461025a578063277608cd1461028357806342842e0e146102c05780634caea647146102e95761011f565b806301ffc9a71461012457806306fdde0314610161578063081812fc1461018c578063095ea7b3146101c95780631481c37e146101f2575b600080fd5b34801561013057600080fd5b5061014b600480360381019061014691906124f0565b610546565b6040516101589190612e22565b60405180910390f35b34801561016d57600080fd5b50610176610628565b6040516101839190612e58565b60405180910390f35b34801561019857600080fd5b506101b360048036038101906101ae9190612542565b6106ba565b6040516101c09190612d46565b60405180910390f35b3480156101d557600080fd5b506101f060048036038101906101eb919061248b565b61073f565b005b3480156101fe57600080fd5b50610219600480360381019061021491906122f7565b610857565b6040516102269190612e00565b60405180910390f35b34801561023b57600080fd5b50610244610a31565b6040516102519190612e3d565b60405180910390f35b34801561026657600080fd5b50610281600480360381019061027c9190612385565b610a5b565b005b34801561028f57600080fd5b506102aa60048036038101906102a59190612542565b610abb565b6040516102b7919061309a565b60405180910390f35b3480156102cc57600080fd5b506102e760048036038101906102e29190612385565b610b39565b005b3480156102f557600080fd5b50610310600480360381019061030b9190612542565b610b59565b604051610322969594939291906130de565b60405180910390f35b6103456004803603810190610340919061256b565b610cba565b604051610352919061309a565b60405180910390f35b34801561036757600080fd5b50610382600480360381019061037d9190612542565b610d13565b60405161038f9190612d46565b60405180910390f35b3480156103a457600080fd5b506103bf60048036038101906103ba91906122f7565b610dc5565b6040516103cc919061309a565b60405180910390f35b3480156103e157600080fd5b506103ea610e7d565b6040516103f79190612e58565b60405180910390f35b34801561040c57600080fd5b506104276004803603810190610422919061256b565b610f0f565b6040516104349190612e22565b60405180910390f35b34801561044957600080fd5b50610464600480360381019061045f9190612542565b6111c0565b604051610471919061313f565b60405180910390f35b34801561048657600080fd5b506104a1600480360381019061049c919061244f565b6111ea565b005b3480156104af57600080fd5b506104ca60048036038101906104c591906123d4565b61136b565b005b3480156104d857600080fd5b506104f360048036038101906104ee9190612542565b6113cd565b6040516105009190612e58565b60405180910390f35b34801561051557600080fd5b50610530600480360381019061052b9190612349565b611474565b60405161053d9190612e22565b60405180910390f35b60007f80ac58cd000000000000000000000000000000000000000000000000000000007bffffffffffffffffffffffffffffffffffffffffffffffffffffffff1916827bffffffffffffffffffffffffffffffffffffffffffffffffffffffff1916148061061157507f5b5e139f000000000000000000000000000000000000000000000000000000007bffffffffffffffffffffffffffffffffffffffffffffffffffffffff1916827bffffffffffffffffffffffffffffffffffffffffffffffffffffffff1916145b80610621575061062082611508565b5b9050919050565b6060600080546106379061340a565b80601f01602080910402602001604051908101604052809291908181526020018280546106639061340a565b80156106b05780601f10610685576101008083540402835291602001916106b0565b820191906000526020600020905b81548152906001019060200180831161069357829003601f168201915b5050505050905090565b60006106c582611572565b610704576040517f08c379a00000000000000000000000000000000000000000000000000000000081526004016106fb90612fba565b60405180910390fd5b6004600083815260200190815260200160002060009054906101000a900473ffffffffffffffffffffffffffffffffffffffff169050919050565b600061074a82610d13565b90508073ffffffffffffffffffffffffffffffffffffffff168373ffffffffffffffffffffffffffffffffffffffff1614156107bb576040517f08c379a00000000000000000000000000000000000000000000000000000000081526004016107b29061303a565b60405180910390fd5b8073ffffffffffffffffffffffffffffffffffffffff166107da6115de565b73ffffffffffffffffffffffffffffffffffffffff1614806108095750610808816108036115de565b611474565b5b610848576040517f08c379a000000000000000000000000000000000000000000000000000000000815260040161083f90612f3a565b60405180910390fd5b61085283836115e6565b505050565b6060600061086483610dc5565b905060008114156108e757600067ffffffffffffffff8111156108b0577f4e487b7100000000000000000000000000000000000000000000000000000000600052604160045260246000fd5b6040519080825280602002602001820160405280156108de5781602001602082028036833780820191505090505b50915050610a2c565b60008167ffffffffffffffff811115610929577f4e487b7100000000000000000000000000000000000000000000000000000000600052604160045260246000fd5b6040519080825280602002602001820160405280156109575781602001602082028036833780820191505090505b5090506000600160078054905061096e91906132ef565b9050600080600190505b828111610a23578673ffffffffffffffffffffffffffffffffffffffff1661099f82610d13565b73ffffffffffffffffffffffffffffffffffffffff161415610a1057808483815181106109f5577f4e487b7100000000000000000000000000000000000000000000000000000000600052603260045260246000fd5b6020026020010181815250508180610a0c9061343c565b9250505b8080610a1b9061343c565b915050610978565b83955050505050505b919050565b6000600960009054906101000a900473ffffffffffffffffffffffffffffffffffffffff16905090565b610a6c610a666115de565b8261169f565b610aab576040517f08c379a0000000000000000000000000000000000000000000000000000000008152600401610aa29061305a565b60405180910390fd5b610ab683838361177d565b505050565b600060078281548110610af7577f4e487b7100000000000000000000000000000000000000000000000000000000600052603260045260246000fd5b906000526020600020906002020160010160009054906101000a900467ffffffffffffffff1667ffffffffffffffff1642610b3291906132ef565b9050919050565b610b548383836040518060200160405280600081525061136b565b505050565b600080600080600080600060078881548110610b9e577f4e487b7100000000000000000000000000000000000000000000000000000000600052603260045260246000fd5b90600052602060002090600202016040518060c0016040529081600082015481526020016001820160009054906101000a900467ffffffffffffffff1667ffffffffffffffff1667ffffffffffffffff1681526020016001820160089054906101000a900463ffffffff1663ffffffff1663ffffffff16815260200160018201600c9054906101000a900460ff1660ff1660ff16815260200160018201600d9054906101000a900460ff1660ff1660ff16815260200160018201600e9054906101000a900460ff161515151581525050905080600001519650806020015167ffffffffffffffff169550806040015163ffffffff169450806060015160ff169350806080015160ff1692508060a0015191505091939550919395565b6000813414610cfe576040517f08c379a0000000000000000000000000000000000000000000000000000000008152600401610cf590612e9a565b60405180910390fd5b610d0b60008085336119d9565b905092915050565b6000806002600084815260200190815260200160002060009054906101000a900473ffffffffffffffffffffffffffffffffffffffff169050600073ffffffffffffffffffffffffffffffffffffffff168173ffffffffffffffffffffffffffffffffffffffff161415610dbc576040517f08c379a0000000000000000000000000000000000000000000000000000000008152600401610db390612f7a565b60405180910390fd5b80915050919050565b60008073ffffffffffffffffffffffffffffffffffffffff168273ffffffffffffffffffffffffffffffffffffffff161415610e36576040517f08c379a0000000000000000000000000000000000000000000000000000000008152600401610e2d90612f5a565b60405180910390fd5b600360008373ffffffffffffffffffffffffffffffffffffffff1673ffffffffffffffffffffffffffffffffffffffff168152602001908152602001600020549050919050565b606060018054610e8c9061340a565b80601f0160208091040260200160405190810160405280929190818152602001828054610eb89061340a565b8015610f055780601f10610eda57610100808354040283529160200191610f05565b820191906000526020600020905b815481529060010190602001808311610ee857829003601f168201915b5050505050905090565b60003373ffffffffffffffffffffffffffffffffffffffff16610f3184610d13565b73ffffffffffffffffffffffffffffffffffffffff1614610f87576040517f08c379a0000000000000000000000000000000000000000000000000000000008152600401610f7e90612fda565b60405180910390fd5b3373ffffffffffffffffffffffffffffffffffffffff16600960009054906101000a900473ffffffffffffffffffffffffffffffffffffffff1673ffffffffffffffffffffffffffffffffffffffff16636352211e846040518263ffffffff1660e01b8152600401610ff9919061309a565b60206040518083038186803b15801561101157600080fd5b505afa158015611025573d6000803e3d6000fd5b505050506040513d601f19601f820116820180604052508101906110499190612320565b73ffffffffffffffffffffffffffffffffffffffff161461109f576040517f08c379a00000000000000000000000000000000000000000000000000000000081526004016110969061307a565b60405180910390fd5b81600784815481106110da577f4e487b7100000000000000000000000000000000000000000000000000000000600052603260045260246000fd5b906000526020600020906002020160010160086101000a81548163ffffffff021916908363ffffffff160217905550600960009054906101000a900473ffffffffffffffffffffffffffffffffffffffff1673ffffffffffffffffffffffffffffffffffffffff1663993cbf6983856040518363ffffffff1660e01b81526004016111669291906130b5565b602060405180830381600087803b15801561118057600080fd5b505af1158015611194573d6000803e3d6000fd5b505050506040513d601f19601f820116820180604052508101906111b891906124c7565b905092915050565b600681600881106111d057600080fd5b60209182820401919006915054906101000a900460ff1681565b6111f26115de565b73ffffffffffffffffffffffffffffffffffffffff168273ffffffffffffffffffffffffffffffffffffffff161415611260576040517f08c379a000000000000000000000000000000000000000000000000000000000815260040161125790612efa565b60405180910390fd5b806005600061126d6115de565b73ffffffffffffffffffffffffffffffffffffffff1673ffffffffffffffffffffffffffffffffffffffff16815260200190815260200160002060008473ffffffffffffffffffffffffffffffffffffffff1673ffffffffffffffffffffffffffffffffffffffff16815260200190815260200160002060006101000a81548160ff0219169083151502179055508173ffffffffffffffffffffffffffffffffffffffff1661131a6115de565b73ffffffffffffffffffffffffffffffffffffffff167f17307eab39ab6107e8899845ad3d59bd9653f200f220920489ca2b5937696c318360405161135f9190612e22565b60405180910390a35050565b61137c6113766115de565b8361169f565b6113bb576040517f08c379a00000000000000000000000000000000000000000000000000000000081526004016113b29061305a565b60405180910390fd5b6113c784848484611be6565b50505050565b60606113d882611572565b611417576040517f08c379a000000000000000000000000000000000000000000000000000000000815260040161140e9061301a565b60405180910390fd5b6000611421611c42565b90506000815111611441576040518060200160405280600081525061146c565b8061144b84611c59565b60405160200161145c929190612d22565b6040516020818303038152906040525b915050919050565b6000600560008473ffffffffffffffffffffffffffffffffffffffff1673ffffffffffffffffffffffffffffffffffffffff16815260200190815260200160002060008373ffffffffffffffffffffffffffffffffffffffff1673ffffffffffffffffffffffffffffffffffffffff16815260200190815260200160002060009054906101000a900460ff16905092915050565b60007f01ffc9a7000000000000000000000000000000000000000000000000000000007bffffffffffffffffffffffffffffffffffffffffffffffffffffffff1916827bffffffffffffffffffffffffffffffffffffffffffffffffffffffff1916149050919050565b60008073ffffffffffffffffffffffffffffffffffffffff166002600084815260200190815260200160002060009054906101000a900473ffffffffffffffffffffffffffffffffffffffff1673ffffffffffffffffffffffffffffffffffffffff1614159050919050565b600033905090565b816004600083815260200190815260200160002060006101000a81548173ffffffffffffffffffffffffffffffffffffffff021916908373ffffffffffffffffffffffffffffffffffffffff160217905550808273ffffffffffffffffffffffffffffffffffffffff1661165983610d13565b73ffffffffffffffffffffffffffffffffffffffff167f8c5be1e5ebec7d5bd14f71427d1e84f3dd0314c0f7b2291e5b200ac8c7c3b92560405160405180910390a45050565b60006116aa82611572565b6116e9576040517f08c379a00000000000000000000000000000000000000000000000000000000081526004016116e090612f1a565b60405180910390fd5b60006116f483610d13565b90508073ffffffffffffffffffffffffffffffffffffffff168473ffffffffffffffffffffffffffffffffffffffff16148061176357508373ffffffffffffffffffffffffffffffffffffffff1661174b846106ba565b73ffffffffffffffffffffffffffffffffffffffff16145b8061177457506117738185611474565b5b91505092915050565b8273ffffffffffffffffffffffffffffffffffffffff1661179d82610d13565b73ffffffffffffffffffffffffffffffffffffffff16146117f3576040517f08c379a00000000000000000000000000000000000000000000000000000000081526004016117ea90612ffa565b60405180910390fd5b600073ffffffffffffffffffffffffffffffffffffffff168273ffffffffffffffffffffffffffffffffffffffff161415611863576040517f08c379a000000000000000000000000000000000000000000000000000000000815260040161185a90612eda565b60405180910390fd5b61186e838383611e06565b6118796000826115e6565b6001600360008573ffffffffffffffffffffffffffffffffffffffff1673ffffffffffffffffffffffffffffffffffffffff16815260200190815260200160002060008282546118c991906132ef565b925050819055506001600360008473ffffffffffffffffffffffffffffffffffffffff1673ffffffffffffffffffffffffffffffffffffffff16815260200190815260200160002060008282546119209190613237565b92505081905550816002600083815260200190815260200160002060006101000a81548173ffffffffffffffffffffffffffffffffffffffff021916908373ffffffffffffffffffffffffffffffffffffffff160217905550808273ffffffffffffffffffffffffffffffffffffffff168473ffffffffffffffffffffffffffffffffffffffff167fddf252ad1be2c89b69c2b068fc378daa952ba7f163c4a11628f55a4df523b3ef60405160405180910390a4505050565b600080600260078781548110611a18577f4e487b7100000000000000000000000000000000000000000000000000000000600052603260045260246000fd5b9060005260206000209060020201600101600d9054906101000a900460ff16611a4191906132be565b905060076040518060c001604052808681526020014267ffffffffffffffff168152602001600063ffffffff168152602001600060ff1681526020018360ff1681526020016000151581525090806001815401808255809150506001900390600052602060002090600202016000909190919091506000820151816000015560208201518160010160006101000a81548167ffffffffffffffff021916908367ffffffffffffffff16021790555060408201518160010160086101000a81548163ffffffff021916908363ffffffff160217905550606082015181600101600c6101000a81548160ff021916908360ff160217905550608082015181600101600d6101000a81548160ff021916908360ff16021790555060a082015181600101600e6101000a81548160ff021916908315150217905550505060006001600780549050611b8e91906132ef565b9050611b9a8482611e0b565b7feecb12278ac480113175d528cc5d2742a52d8ac03232f9fbe587411e2c7b62b68482898989604051611bd1959493929190612dad565b60405180910390a18092505050949350505050565b611bf184848461177d565b611bfd84848484611e29565b611c3c576040517f08c379a0000000000000000000000000000000000000000000000000000000008152600401611c3390612e7a565b60405180910390fd5b50505050565b606060405180602001604052806000815250905090565b60606000821415611ca1576040518060400160405280600181526020017f30000000000000000000000000000000000000000000000000000000000000008152509050611e01565b600082905060005b60008214611cd3578080611cbc9061343c565b915050600a82611ccc919061328d565b9150611ca9565b60008167ffffffffffffffff811115611d15577f4e487b7100000000000000000000000000000000000000000000000000000000600052604160045260246000fd5b6040519080825280601f01601f191660200182016040528015611d475781602001600182028036833780820191505090505b5090505b60008514611dfa57600182611d6091906132ef565b9150600a85611d6f9190613485565b6030611d7b9190613237565b60f81b818381518110611db7577f4e487b7100000000000000000000000000000000000000000000000000000000600052603260045260246000fd5b60200101907effffffffffffffffffffffffffffffffffffffffffffffffffffffffffffff1916908160001a905350600a85611df3919061328d565b9450611d4b565b8093505050505b919050565b505050565b611e25828260405180602001604052806000815250611fc0565b5050565b6000611e4a8473ffffffffffffffffffffffffffffffffffffffff1661201b565b15611fb3578373ffffffffffffffffffffffffffffffffffffffff1663150b7a02611e736115de565b8786866040518563ffffffff1660e01b8152600401611e959493929190612d61565b602060405180830381600087803b158015611eaf57600080fd5b505af1925050508015611ee057506040513d601f19601f82011682018060405250810190611edd9190612519565b60015b611f63573d8060008114611f10576040519150601f19603f3d011682016040523d82523d6000602084013e611f15565b606091505b50600081511415611f5b576040517f08c379a0000000000000000000000000000000000000000000000000000000008152600401611f5290612e7a565b60405180910390fd5b805181602001fd5b63150b7a0260e01b7bffffffffffffffffffffffffffffffffffffffffffffffffffffffff1916817bffffffffffffffffffffffffffffffffffffffffffffffffffffffff191614915050611fb8565b600190505b949350505050565b611fca838361202e565b611fd76000848484611e29565b612016576040517f08c379a000000000000000000000000000000000000000000000000000000000815260040161200d90612e7a565b60405180910390fd5b505050565b600080823b905060008111915050919050565b600073ffffffffffffffffffffffffffffffffffffffff168273ffffffffffffffffffffffffffffffffffffffff16141561209e576040517f08c379a000000000000000000000000000000000000000000000000000000000815260040161209590612f9a565b60405180910390fd5b6120a781611572565b156120e7576040517f08c379a00000000000000000000000000000000000000000000000000000000081526004016120de90612eba565b60405180910390fd5b6120f360008383611e06565b6001600360008473ffffffffffffffffffffffffffffffffffffffff1673ffffffffffffffffffffffffffffffffffffffff16815260200190815260200160002060008282546121439190613237565b92505081905550816002600083815260200190815260200160002060006101000a81548173ffffffffffffffffffffffffffffffffffffffff021916908373ffffffffffffffffffffffffffffffffffffffff160217905550808273ffffffffffffffffffffffffffffffffffffffff16600073ffffffffffffffffffffffffffffffffffffffff167fddf252ad1be2c89b69c2b068fc378daa952ba7f163c4a11628f55a4df523b3ef60405160405180910390a45050565b600061220f61220a8461318b565b61315a565b90508281526020810184848401111561222757600080fd5b6122328482856133c8565b509392505050565b60008135905061224981613583565b92915050565b60008151905061225e81613583565b92915050565b6000813590506122738161359a565b92915050565b6000815190506122888161359a565b92915050565b60008135905061229d816135b1565b92915050565b6000815190506122b2816135b1565b92915050565b600082601f8301126122c957600080fd5b81356122d98482602086016121fc565b91505092915050565b6000813590506122f1816135c8565b92915050565b60006020828403121561230957600080fd5b60006123178482850161223a565b91505092915050565b60006020828403121561233257600080fd5b60006123408482850161224f565b91505092915050565b6000806040838503121561235c57600080fd5b600061236a8582860161223a565b925050602061237b8582860161223a565b9150509250929050565b60008060006060848603121561239a57600080fd5b60006123a88682870161223a565b93505060206123b98682870161223a565b92505060406123ca868287016122e2565b9150509250925092565b600080600080608085870312156123ea57600080fd5b60006123f88782880161223a565b94505060206124098782880161223a565b935050604061241a878288016122e2565b925050606085013567ffffffffffffffff81111561243757600080fd5b612443878288016122b8565b91505092959194509250565b6000806040838503121561246257600080fd5b60006124708582860161223a565b925050602061248185828601612264565b9150509250929050565b6000806040838503121561249e57600080fd5b60006124ac8582860161223a565b92505060206124bd858286016122e2565b9150509250929050565b6000602082840312156124d957600080fd5b60006124e784828501612279565b91505092915050565b60006020828403121561250257600080fd5b60006125108482850161228e565b91505092915050565b60006020828403121561252b57600080fd5b6000612539848285016122a3565b91505092915050565b60006020828403121561255457600080fd5b6000612562848285016122e2565b91505092915050565b6000806040838503121561257e57600080fd5b600061258c858286016122e2565b925050602061259d858286016122e2565b9150509250929050565b60006125b38383612cf5565b60208301905092915050565b6125c881613323565b82525050565b60006125d9826131cb565b6125e381856131f9565b93506125ee836131bb565b8060005b8381101561261f57815161260688826125a7565b9750612611836131ec565b9250506001810190506125f2565b5085935050505092915050565b61263581613335565b82525050565b6000612646826131d6565b612650818561320a565b93506126608185602086016133d7565b61266981613572565b840191505092915050565b61267d816133a4565b82525050565b600061268e826131e1565b612698818561321b565b93506126a88185602086016133d7565b6126b181613572565b840191505092915050565b60006126c7826131e1565b6126d1818561322c565b93506126e18185602086016133d7565b80840191505092915050565b60006126fa60328361321b565b91507f4552433732313a207472616e7366657220746f206e6f6e20455243373231526560008301527f63656976657220696d706c656d656e74657200000000000000000000000000006020830152604082019050919050565b6000612760601e8361321b565b91507f57726f6e67207072696365207061696420666f722073756363756c656e7400006000830152602082019050919050565b60006127a0601c8361321b565b91507f4552433732313a20746f6b656e20616c7265616479206d696e746564000000006000830152602082019050919050565b60006127e060248361321b565b91507f4552433732313a207472616e7366657220746f20746865207a65726f2061646460008301527f72657373000000000000000000000000000000000000000000000000000000006020830152604082019050919050565b600061284660198361321b565b91507f4552433732313a20617070726f766520746f2063616c6c6572000000000000006000830152602082019050919050565b6000612886602c8361321b565b91507f4552433732313a206f70657261746f7220717565727920666f72206e6f6e657860008301527f697374656e7420746f6b656e00000000000000000000000000000000000000006020830152604082019050919050565b60006128ec60388361321b565b91507f4552433732313a20617070726f76652063616c6c6572206973206e6f74206f7760008301527f6e6572206e6f7220617070726f76656420666f7220616c6c00000000000000006020830152604082019050919050565b6000612952602a8361321b565b91507f4552433732313a2062616c616e636520717565727920666f7220746865207a6560008301527f726f2061646472657373000000000000000000000000000000000000000000006020830152604082019050919050565b60006129b860298361321b565b91507f4552433732313a206f776e657220717565727920666f72206e6f6e657869737460008301527f656e7420746f6b656e00000000000000000000000000000000000000000000006020830152604082019050919050565b6000612a1e60208361321b565b91507f4552433732313a206d696e7420746f20746865207a65726f20616464726573736000830152602082019050919050565b6000612a5e602c8361321b565b91507f4552433732313a20617070726f76656420717565727920666f72206e6f6e657860008301527f697374656e7420746f6b656e00000000000000000000000000000000000000006020830152604082019050919050565b6000612ac460268361321b565b91507f6d73672e73656e64657220646f6573206e6f74206f776e20746869732073756360008301527f63756c656e7400000000000000000000000000000000000000000000000000006020830152604082019050919050565b6000612b2a60298361321b565b91507f4552433732313a207472616e73666572206f6620746f6b656e2074686174206960008301527f73206e6f74206f776e00000000000000000000000000000000000000000000006020830152604082019050919050565b6000612b90602f8361321b565b91507f4552433732314d657461646174613a2055524920717565727920666f72206e6f60008301527f6e6578697374656e7420746f6b656e00000000000000000000000000000000006020830152604082019050919050565b6000612bf660218361321b565b91507f4552433732313a20617070726f76616c20746f2063757272656e74206f776e6560008301527f72000000000000000000000000000000000000000000000000000000000000006020830152604082019050919050565b6000612c5c60318361321b565b91507f4552433732313a207472616e736665722063616c6c6572206973206e6f74206f60008301527f776e6572206e6f7220617070726f7665640000000000000000000000000000006020830152604082019050919050565b6000612cc260208361321b565b91507f6d73672e73656e64657220646f6573206e6f74206f776e207468697320706f746000830152602082019050919050565b612cfe8161338d565b82525050565b612d0d8161338d565b82525050565b612d1c81613397565b82525050565b6000612d2e82856126bc565b9150612d3a82846126bc565b91508190509392505050565b6000602082019050612d5b60008301846125bf565b92915050565b6000608082019050612d7660008301876125bf565b612d8360208301866125bf565b612d906040830185612d04565b8181036060830152612da2818461263b565b905095945050505050565b600060a082019050612dc260008301886125bf565b612dcf6020830187612d04565b612ddc6040830186612d04565b612de96060830185612d04565b612df66080830184612d04565b9695505050505050565b60006020820190508181036000830152612e1a81846125ce565b905092915050565b6000602082019050612e37600083018461262c565b92915050565b6000602082019050612e526000830184612674565b92915050565b60006020820190508181036000830152612e728184612683565b905092915050565b60006020820190508181036000830152612e93816126ed565b9050919050565b60006020820190508181036000830152612eb381612753565b9050919050565b60006020820190508181036000830152612ed381612793565b9050919050565b60006020820190508181036000830152612ef3816127d3565b9050919050565b60006020820190508181036000830152612f1381612839565b9050919050565b60006020820190508181036000830152612f3381612879565b9050919050565b60006020820190508181036000830152612f53816128df565b9050919050565b60006020820190508181036000830152612f7381612945565b9050919050565b60006020820190508181036000830152612f93816129ab565b9050919050565b60006020820190508181036000830152612fb381612a11565b9050919050565b60006020820190508181036000830152612fd381612a51565b9050919050565b60006020820190508181036000830152612ff381612ab7565b9050919050565b6000602082019050818103600083015261301381612b1d565b9050919050565b6000602082019050818103600083015261303381612b83565b9050919050565b6000602082019050818103600083015261305381612be9565b9050919050565b6000602082019050818103600083015261307381612c4f565b9050919050565b6000602082019050818103600083015261309381612cb5565b9050919050565b60006020820190506130af6000830184612d04565b92915050565b60006040820190506130ca6000830185612d04565b6130d76020830184612d04565b9392505050565b600060c0820190506130f36000830189612d04565b6131006020830188612d04565b61310d6040830187612d04565b61311a6060830186612d04565b6131276080830185612d04565b61313460a083018461262c565b979650505050505050565b60006020820190506131546000830184612d13565b92915050565b6000604051905081810181811067ffffffffffffffff8211171561318157613180613543565b5b8060405250919050565b600067ffffffffffffffff8211156131a6576131a5613543565b5b601f19601f8301169050602081019050919050565b6000819050602082019050919050565b600081519050919050565b600081519050919050565b600081519050919050565b6000602082019050919050565b600082825260208201905092915050565b600082825260208201905092915050565b600082825260208201905092915050565b600081905092915050565b60006132428261338d565b915061324d8361338d565b9250827fffffffffffffffffffffffffffffffffffffffffffffffffffffffffffffffff03821115613282576132816134b6565b5b828201905092915050565b60006132988261338d565b91506132a38361338d565b9250826132b3576132b26134e5565b5b828204905092915050565b60006132c982613397565b91506132d483613397565b9250826132e4576132e36134e5565b5b828204905092915050565b60006132fa8261338d565b91506133058361338d565b925082821015613318576133176134b6565b5b828203905092915050565b600061332e8261336d565b9050919050565b60008115159050919050565b60007fffffffff0000000000000000000000000000000000000000000000000000000082169050919050565b600073ffffffffffffffffffffffffffffffffffffffff82169050919050565b6000819050919050565b600060ff82169050919050565b60006133af826133b6565b9050919050565b60006133c18261336d565b9050919050565b82818337600083830152505050565b60005b838110156133f55780820151818401526020810190506133da565b83811115613404576000848401525b50505050565b6000600282049050600182168061342257607f821691505b6020821081141561343657613435613514565b5b50919050565b60006134478261338d565b91507fffffffffffffffffffffffffffffffffffffffffffffffffffffffffffffffff82141561347a576134796134b6565b5b600182019050919050565b60006134908261338d565b915061349b8361338d565b9250826134ab576134aa6134e5565b5b828206905092915050565b7f4e487b7100000000000000000000000000000000000000000000000000000000600052601160045260246000fd5b7f4e487b7100000000000000000000000000000000000000000000000000000000600052601260045260246000fd5b7f4e487b7100000000000000000000000000000000000000000000000000000000600052602260045260246000fd5b7f4e487b7100000000000000000000000000000000000000000000000000000000600052604160045260246000fd5b6000601f19601f8301169050919050565b61358c81613323565b811461359757600080fd5b50565b6135a381613335565b81146135ae57600080fd5b50565b6135ba81613341565b81146135c557600080fd5b50565b6135d18161338d565b81146135dc57600080fd5b5056fea26469706673582212202a3e825a55ad0d8369b324c8218e401c6765a0f5a2a2684f663e7b2c9043d8ef64736f6c63430008000033",
  "immutableReferences": {},
  "source": "pragma solidity ^0.8.0;\n\nimport \"@openzeppelin/contracts/token/ERC721/ERC721.sol\";\nimport \"./PotOwnershipInterface.sol\";\n\n// import \"@openzeppelin/contracts/token/ERC721/IERC721.sol\";\n\ncontract SuccOwnership is ERC721 {\n    // string name = \"CryptoSuccs\";\n    // string symbol = \"CS\";\n\n    event newSucc(\n        address owner,\n        uint256 succId,\n        uint256 parent1Id,\n        uint256 parent2Id,\n        uint256 genes\n    );\n\n    struct Succ {\n        uint256 genes;\n        uint64 sproutTime;\n        uint32 potId;\n        uint8 timesWatered;\n        uint8 watersNeededIndex;\n        bool isBlooming;\n    }\n\n    uint8[8] public watersNeeded = [\n        uint8(1),\n        uint8(2),\n        uint8(4),\n        uint8(8),\n        uint8(15),\n        uint8(25),\n        uint8(40),\n        uint8(60)\n    ];\n\n    Succ[] succs;\n\n    mapping(address => uint256) ownerToWaterOrbs;\n\n    PotOwnershipInterface PotOwnership;\n\n    constructor(\n        address PotOwnership_,\n        string memory name_,\n        string memory symbol_\n    ) ERC721(name_, symbol_) {\n        require(\n            PotOwnership_ != address(0),\n            \"PotOwnership contract cannot be 0\"\n        );\n        PotOwnership = PotOwnershipInterface(PotOwnership_);\n        // name = name_;\n        // symbol = symbol_;\n    }\n\n    function _createSucc(\n        uint256 _parent1Id,\n        uint256 _parent2Id,\n        uint256 _genes,\n        address _owner\n    ) internal returns (uint256) {\n        uint8 watersNeededIndex = succs[_parent1Id].watersNeededIndex / 2;\n        succs.push(\n            Succ(\n                _genes,\n                uint64(block.timestamp),\n                0,\n                0,\n                watersNeededIndex,\n                false\n            )\n        );\n        uint256 _newSuccIndex = succs.length - 1;\n        _safeMint(_owner, _newSuccIndex);\n        emit newSucc(_owner, _newSuccIndex, _parent1Id, _parent2Id, _genes);\n        return _newSuccIndex;\n    }\n\n    function buySucc(uint256 _genes, uint256 _price)\n        external\n        payable\n        returns (uint256)\n    {\n        require(msg.value == _price, \"Wrong price paid for succulent\");\n        return _createSucc(0, 0, _genes, msg.sender);\n    }\n\n    function succsOfOwner(address _owner)\n        external\n        view\n        returns (uint256[] memory ownerTokens)\n    {\n        uint256 tokenCount = balanceOf(_owner);\n\n        if (tokenCount == 0) {\n            // Return an empty array\n            return new uint256[](0);\n        } else {\n            uint256[] memory result = new uint256[](tokenCount);\n            uint256 totalSuccs = succs.length - 1;\n            uint256 resultIndex = 0;\n\n            // We count on the fact that all succulents have IDs starting at 1 and increasing\n            // sequentially up to the totalSucc count.\n            uint256 succId;\n\n            for (succId = 1; succId <= totalSuccs; succId++) {\n                if (ownerOf(succId) == _owner) {\n                    result[resultIndex] = succId;\n                    resultIndex++;\n                }\n            }\n\n            return result;\n        }\n    }\n\n    function putSuccInPot(uint256 _succId, uint256 _potId)\n        external\n        returns (bool)\n    {\n        require(\n            ownerOf(_succId) == msg.sender,\n            \"msg.sender does not own this succulent\"\n        );\n        require(\n            PotOwnership.ownerOf(_potId) == msg.sender,\n            \"msg.sender does not own this pot\"\n        );\n        succs[_succId].potId = uint32(_potId);\n        return PotOwnership.setPotSucc(_potId, _succId);\n    }\n\n    function getSuccInfo(uint256 _succId)\n        external\n        view\n        returns (\n            uint256 genes,\n            uint256 sproutTime,\n            uint256 potId,\n            uint256 timesWatered,\n            uint256 watersNeededIndex,\n            bool isBlooming\n        )\n    {\n        Succ memory _thisSucc = succs[_succId];\n        genes = _thisSucc.genes;\n        sproutTime = uint256(_thisSucc.sproutTime);\n        potId = uint256(_thisSucc.potId);\n        timesWatered = uint256(_thisSucc.timesWatered);\n        watersNeededIndex = uint256(_thisSucc.watersNeededIndex);\n        isBlooming = _thisSucc.isBlooming;\n    }\n\n    function getSuccAge(uint256 _succId) external view returns (uint256) {\n        return block.timestamp - uint256(succs[_succId].sproutTime);\n    }\n\n    function getPotOwnership() external view returns (PotOwnershipInterface) {\n        return PotOwnership;\n    }\n}\n",
  "sourcePath": "/Users/ellenguo6/Hacks/crypto-succs/contracts/SuccOwnership.sol",
  "compiler": {
    "name": "solc",
    "version": "0.8.0+commit.c7dfd78e.Emscripten.clang"
  },
  "schemaVersion": "3.4.1",
  "updatedAt": "2021-05-30T00:15:06.371Z",
  "networkType": "ethereum",
  "devdoc": {
    "kind": "dev",
    "methods": {
      "approve(address,uint256)": {
        "details": "See {IERC721-approve}."
      },
      "balanceOf(address)": {
        "details": "See {IERC721-balanceOf}."
      },
      "getApproved(uint256)": {
        "details": "See {IERC721-getApproved}."
      },
      "isApprovedForAll(address,address)": {
        "details": "See {IERC721-isApprovedForAll}."
      },
      "name()": {
        "details": "See {IERC721Metadata-name}."
      },
      "ownerOf(uint256)": {
        "details": "See {IERC721-ownerOf}."
      },
      "safeTransferFrom(address,address,uint256)": {
        "details": "See {IERC721-safeTransferFrom}."
      },
      "safeTransferFrom(address,address,uint256,bytes)": {
        "details": "See {IERC721-safeTransferFrom}."
      },
      "setApprovalForAll(address,bool)": {
        "details": "See {IERC721-setApprovalForAll}."
      },
      "supportsInterface(bytes4)": {
        "details": "See {IERC165-supportsInterface}."
      },
      "symbol()": {
        "details": "See {IERC721Metadata-symbol}."
      },
      "tokenURI(uint256)": {
        "details": "See {IERC721Metadata-tokenURI}."
      },
      "transferFrom(address,address,uint256)": {
        "details": "See {IERC721-transferFrom}."
      }
    },
    "version": 1
  },
  "userdoc": {
    "kind": "user",
    "methods": {},
    "version": 1
  }
}