{
  "contractName": "PotOwnership",
  "abi": [
    {
      "inputs": [
        {
          "internalType": "string",
          "name": "name_",
          "type": "string"
        },
        {
          "internalType": "string",
          "name": "symbol_",
          "type": "string"
        }
      ],
      "stateMutability": "nonpayable",
      "type": "constructor"
    },
    {
      "anonymous": false,
      "inputs": [
        {
          "indexed": true,
          "internalType": "address",
          "name": "owner",
          "type": "address"
        },
        {
          "indexed": true,
          "internalType": "address",
          "name": "approved",
          "type": "address"
        },
        {
          "indexed": true,
          "internalType": "uint256",
          "name": "tokenId",
          "type": "uint256"
        }
      ],
      "name": "Approval",
      "type": "event"
    },
    {
      "anonymous": false,
      "inputs": [
        {
          "indexed": true,
          "internalType": "address",
          "name": "owner",
          "type": "address"
        },
        {
          "indexed": true,
          "internalType": "address",
          "name": "operator",
          "type": "address"
        },
        {
          "indexed": false,
          "internalType": "bool",
          "name": "approved",
          "type": "bool"
        }
      ],
      "name": "ApprovalForAll",
      "type": "event"
    },
    {
      "anonymous": false,
      "inputs": [
        {
          "indexed": true,
          "internalType": "address",
          "name": "from",
          "type": "address"
        },
        {
          "indexed": true,
          "internalType": "address",
          "name": "to",
          "type": "address"
        },
        {
          "indexed": true,
          "internalType": "uint256",
          "name": "tokenId",
          "type": "uint256"
        }
      ],
      "name": "Transfer",
      "type": "event"
    },
    {
      "anonymous": false,
      "inputs": [
        {
          "indexed": false,
          "internalType": "address",
          "name": "owner",
          "type": "address"
        },
        {
          "indexed": false,
          "internalType": "uint256",
          "name": "potId",
          "type": "uint256"
        },
        {
          "indexed": false,
          "internalType": "uint256",
          "name": "design",
          "type": "uint256"
        }
      ],
      "name": "newPot",
      "type": "event"
    },
    {
      "inputs": [
        {
          "internalType": "address",
          "name": "to",
          "type": "address"
        },
        {
          "internalType": "uint256",
          "name": "tokenId",
          "type": "uint256"
        }
      ],
      "name": "approve",
      "outputs": [],
      "stateMutability": "nonpayable",
      "type": "function"
    },
    {
      "inputs": [
        {
          "internalType": "address",
          "name": "owner",
          "type": "address"
        }
      ],
      "name": "balanceOf",
      "outputs": [
        {
          "internalType": "uint256",
          "name": "",
          "type": "uint256"
        }
      ],
      "stateMutability": "view",
      "type": "function",
      "constant": true
    },
    {
      "inputs": [
        {
          "internalType": "uint256",
          "name": "tokenId",
          "type": "uint256"
        }
      ],
      "name": "getApproved",
      "outputs": [
        {
          "internalType": "address",
          "name": "",
          "type": "address"
        }
      ],
      "stateMutability": "view",
      "type": "function",
      "constant": true
    },
    {
      "inputs": [
        {
          "internalType": "address",
          "name": "owner",
          "type": "address"
        },
        {
          "internalType": "address",
          "name": "operator",
          "type": "address"
        }
      ],
      "name": "isApprovedForAll",
      "outputs": [
        {
          "internalType": "bool",
          "name": "",
          "type": "bool"
        }
      ],
      "stateMutability": "view",
      "type": "function",
      "constant": true
    },
    {
      "inputs": [],
      "name": "name",
      "outputs": [
        {
          "internalType": "string",
          "name": "",
          "type": "string"
        }
      ],
      "stateMutability": "view",
      "type": "function",
      "constant": true
    },
    {
      "inputs": [
        {
          "internalType": "uint256",
          "name": "tokenId",
          "type": "uint256"
        }
      ],
      "name": "ownerOf",
      "outputs": [
        {
          "internalType": "address",
          "name": "",
          "type": "address"
        }
      ],
      "stateMutability": "view",
      "type": "function",
      "constant": true
    },
    {
      "inputs": [
        {
          "internalType": "address",
          "name": "from",
          "type": "address"
        },
        {
          "internalType": "address",
          "name": "to",
          "type": "address"
        },
        {
          "internalType": "uint256",
          "name": "tokenId",
          "type": "uint256"
        }
      ],
      "name": "safeTransferFrom",
      "outputs": [],
      "stateMutability": "nonpayable",
      "type": "function"
    },
    {
      "inputs": [
        {
          "internalType": "address",
          "name": "from",
          "type": "address"
        },
        {
          "internalType": "address",
          "name": "to",
          "type": "address"
        },
        {
          "internalType": "uint256",
          "name": "tokenId",
          "type": "uint256"
        },
        {
          "internalType": "bytes",
          "name": "_data",
          "type": "bytes"
        }
      ],
      "name": "safeTransferFrom",
      "outputs": [],
      "stateMutability": "nonpayable",
      "type": "function"
    },
    {
      "inputs": [
        {
          "internalType": "address",
          "name": "operator",
          "type": "address"
        },
        {
          "internalType": "bool",
          "name": "approved",
          "type": "bool"
        }
      ],
      "name": "setApprovalForAll",
      "outputs": [],
      "stateMutability": "nonpayable",
      "type": "function"
    },
    {
      "inputs": [
        {
          "internalType": "bytes4",
          "name": "interfaceId",
          "type": "bytes4"
        }
      ],
      "name": "supportsInterface",
      "outputs": [
        {
          "internalType": "bool",
          "name": "",
          "type": "bool"
        }
      ],
      "stateMutability": "view",
      "type": "function",
      "constant": true
    },
    {
      "inputs": [],
      "name": "symbol",
      "outputs": [
        {
          "internalType": "string",
          "name": "",
          "type": "string"
        }
      ],
      "stateMutability": "view",
      "type": "function",
      "constant": true
    },
    {
      "inputs": [
        {
          "internalType": "uint256",
          "name": "tokenId",
          "type": "uint256"
        }
      ],
      "name": "tokenURI",
      "outputs": [
        {
          "internalType": "string",
          "name": "",
          "type": "string"
        }
      ],
      "stateMutability": "view",
      "type": "function",
      "constant": true
    },
    {
      "inputs": [
        {
          "internalType": "address",
          "name": "from",
          "type": "address"
        },
        {
          "internalType": "address",
          "name": "to",
          "type": "address"
        },
        {
          "internalType": "uint256",
          "name": "tokenId",
          "type": "uint256"
        }
      ],
      "name": "transferFrom",
      "outputs": [],
      "stateMutability": "nonpayable",
      "type": "function"
    },
    {
      "inputs": [
        {
          "internalType": "uint256",
          "name": "_design",
          "type": "uint256"
        },
        {
          "internalType": "uint256",
          "name": "_price",
          "type": "uint256"
        }
      ],
      "name": "buyPot",
      "outputs": [
        {
          "internalType": "uint256",
          "name": "",
          "type": "uint256"
        }
      ],
      "stateMutability": "payable",
      "type": "function",
      "payable": true
    },
    {
      "inputs": [
        {
          "internalType": "address",
          "name": "_owner",
          "type": "address"
        }
      ],
      "name": "potsOfOwner",
      "outputs": [
        {
          "internalType": "uint256[]",
          "name": "ownerTokens",
          "type": "uint256[]"
        }
      ],
      "stateMutability": "view",
      "type": "function",
      "constant": true
    },
    {
      "inputs": [
        {
          "internalType": "uint256",
          "name": "_potId",
          "type": "uint256"
        },
        {
          "internalType": "uint256",
          "name": "_succId",
          "type": "uint256"
        }
      ],
      "name": "setPotSucc",
      "outputs": [
        {
          "internalType": "bool",
          "name": "",
          "type": "bool"
        }
      ],
      "stateMutability": "nonpayable",
      "type": "function"
    },
    {
      "inputs": [
        {
          "internalType": "uint256",
          "name": "_potId",
          "type": "uint256"
        }
      ],
      "name": "getPotInfo",
      "outputs": [
        {
          "internalType": "uint256",
          "name": "design",
          "type": "uint256"
        },
        {
          "internalType": "uint256",
          "name": "succId",
          "type": "uint256"
        }
      ],
      "stateMutability": "view",
      "type": "function",
      "constant": true
    },
    {
      "inputs": [
        {
          "internalType": "address",
          "name": "_newAdmin",
          "type": "address"
        }
      ],
      "name": "setAdmin",
      "outputs": [
        {
          "internalType": "bool",
          "name": "",
          "type": "bool"
        }
      ],
      "stateMutability": "nonpayable",
      "type": "function"
    },
    {
      "inputs": [
        {
          "internalType": "uint256",
          "name": "_potId",
          "type": "uint256"
        }
      ],
      "name": "getPotAge",
      "outputs": [
        {
          "internalType": "uint256",
          "name": "",
          "type": "uint256"
        }
      ],
      "stateMutability": "view",
      "type": "function",
      "constant": true
    }
  ],
  "bytecode": "0x60806040523480156200001157600080fd5b506040516200343038038062003430833981810160405281019062000037919062000197565b818181600090805190602001906200005192919062000075565b5080600190805190602001906200006a92919062000075565b50505050506200033b565b8280546200008390620002a7565b90600052602060002090601f016020900481019282620000a75760008555620000f3565b82601f10620000c257805160ff1916838001178555620000f3565b82800160010185558215620000f3579182015b82811115620000f2578251825591602001919060010190620000d5565b5b50905062000102919062000106565b5090565b5b808211156200012157600081600090555060010162000107565b5090565b60006200013c62000136846200023e565b6200020a565b9050828152602081018484840111156200015557600080fd5b6200016284828562000271565b509392505050565b600082601f8301126200017c57600080fd5b81516200018e84826020860162000125565b91505092915050565b60008060408385031215620001ab57600080fd5b600083015167ffffffffffffffff811115620001c657600080fd5b620001d4858286016200016a565b925050602083015167ffffffffffffffff811115620001f257600080fd5b62000200858286016200016a565b9150509250929050565b6000604051905081810181811067ffffffffffffffff821117156200023457620002336200030c565b5b8060405250919050565b600067ffffffffffffffff8211156200025c576200025b6200030c565b5b601f19601f8301169050602081019050919050565b60005b838110156200029157808201518184015260208101905062000274565b83811115620002a1576000848401525b50505050565b60006002820490506001821680620002c057607f821691505b60208210811415620002d757620002d6620002dd565b5b50919050565b7f4e487b7100000000000000000000000000000000000000000000000000000000600052602260045260246000fd5b7f4e487b7100000000000000000000000000000000000000000000000000000000600052604160045260246000fd5b6130e5806200034b6000396000f3fe6080604052600436106101145760003560e01c80636e1e277b116100a0578063a22cb46511610064578063a22cb46514610403578063b0e4c99b1461042c578063b88d4fde14610469578063c87b56dd14610492578063e985e9c5146104cf57610114565b80636e1e277b146102e3578063704b6c021461032157806370a082311461035e57806395d89b411461039b578063993cbf69146103c657610114565b806323b872dd116100e757806323b872dd146101e75780632701483a146102105780633e64e78a1461024057806342842e0e1461027d5780636352211e146102a657610114565b806301ffc9a71461011957806306fdde0314610156578063081812fc14610181578063095ea7b3146101be575b600080fd5b34801561012557600080fd5b50610140600480360381019061013b91906121d9565b61050c565b60405161014d9190612a2b565b60405180910390f35b34801561016257600080fd5b5061016b6105ee565b6040516101789190612a46565b60405180910390f35b34801561018d57600080fd5b506101a860048036038101906101a3919061222b565b610680565b6040516101b5919061296b565b60405180910390f35b3480156101ca57600080fd5b506101e560048036038101906101e0919061219d565b610705565b005b3480156101f357600080fd5b5061020e60048036038101906102099190612097565b61081d565b005b61022a60048036038101906102259190612254565b61087d565b6040516102379190612c48565b60405180910390f35b34801561024c57600080fd5b5061026760048036038101906102629190612032565b6108d3565b6040516102749190612a09565b60405180910390f35b34801561028957600080fd5b506102a4600480360381019061029f9190612097565b610aad565b005b3480156102b257600080fd5b506102cd60048036038101906102c8919061222b565b610acd565b6040516102da919061296b565b60405180910390f35b3480156102ef57600080fd5b5061030a6004803603810190610305919061222b565b610b7f565b604051610318929190612c63565b60405180910390f35b34801561032d57600080fd5b5061034860048036038101906103439190612032565b610c6b565b6040516103559190612a2b565b60405180910390f35b34801561036a57600080fd5b5061038560048036038101906103809190612032565b610d11565b6040516103929190612c48565b60405180910390f35b3480156103a757600080fd5b506103b0610dc9565b6040516103bd9190612a46565b60405180910390f35b3480156103d257600080fd5b506103ed60048036038101906103e89190612254565b610e5b565b6040516103fa9190612a2b565b60405180910390f35b34801561040f57600080fd5b5061042a60048036038101906104259190612161565b610fa9565b005b34801561043857600080fd5b50610453600480360381019061044e919061222b565b61112a565b6040516104609190612c48565b60405180910390f35b34801561047557600080fd5b50610490600480360381019061048b91906120e6565b6111a4565b005b34801561049e57600080fd5b506104b960048036038101906104b4919061222b565b611206565b6040516104c69190612a46565b60405180910390f35b3480156104db57600080fd5b506104f660048036038101906104f1919061205b565b6112ad565b6040516105039190612a2b565b60405180910390f35b60007f80ac58cd000000000000000000000000000000000000000000000000000000007bffffffffffffffffffffffffffffffffffffffffffffffffffffffff1916827bffffffffffffffffffffffffffffffffffffffffffffffffffffffff191614806105d757507f5b5e139f000000000000000000000000000000000000000000000000000000007bffffffffffffffffffffffffffffffffffffffffffffffffffffffff1916827bffffffffffffffffffffffffffffffffffffffffffffffffffffffff1916145b806105e757506105e682611341565b5b9050919050565b6060600080546105fd90612eda565b80601f016020809104026020016040519081016040528092919081815260200182805461062990612eda565b80156106765780601f1061064b57610100808354040283529160200191610676565b820191906000526020600020905b81548152906001019060200180831161065957829003601f168201915b5050505050905090565b600061068b826113ab565b6106ca576040517f08c379a00000000000000000000000000000000000000000000000000000000081526004016106c190612ba8565b60405180910390fd5b6004600083815260200190815260200160002060009054906101000a900473ffffffffffffffffffffffffffffffffffffffff169050919050565b600061071082610acd565b90508073ffffffffffffffffffffffffffffffffffffffff168373ffffffffffffffffffffffffffffffffffffffff161415610781576040517f08c379a000000000000000000000000000000000000000000000000000000000815260040161077890612c08565b60405180910390fd5b8073ffffffffffffffffffffffffffffffffffffffff166107a0611417565b73ffffffffffffffffffffffffffffffffffffffff1614806107cf57506107ce816107c9611417565b6112ad565b5b61080e576040517f08c379a000000000000000000000000000000000000000000000000000000000815260040161080590612b28565b60405180910390fd5b610818838361141f565b505050565b61082e610828611417565b826114d8565b61086d576040517f08c379a000000000000000000000000000000000000000000000000000000000815260040161086490612c28565b60405180910390fd5b6108788383836115b6565b505050565b60008134146108c1576040517f08c379a00000000000000000000000000000000000000000000000000000000081526004016108b890612ae8565b60405180910390fd5b6108cb8333611812565b905092915050565b606060006108e083610d11565b9050600081141561096357600067ffffffffffffffff81111561092c577f4e487b7100000000000000000000000000000000000000000000000000000000600052604160045260246000fd5b60405190808252806020026020018201604052801561095a5781602001602082028036833780820191505090505b50915050610aa8565b60008167ffffffffffffffff8111156109a5577f4e487b7100000000000000000000000000000000000000000000000000000000600052604160045260246000fd5b6040519080825280602002602001820160405280156109d35781602001602082028036833780820191505090505b509050600060016007805490506109ea9190612df0565b9050600080600190505b828111610a9f578673ffffffffffffffffffffffffffffffffffffffff16610a1b82610acd565b73ffffffffffffffffffffffffffffffffffffffff161415610a8c5780848381518110610a71577f4e487b7100000000000000000000000000000000000000000000000000000000600052603260045260246000fd5b6020026020010181815250508180610a8890612f0c565b9250505b8080610a9790612f0c565b9150506109f4565b83955050505050505b919050565b610ac8838383604051806020016040528060008152506111a4565b505050565b6000806002600084815260200190815260200160002060009054906101000a900473ffffffffffffffffffffffffffffffffffffffff169050600073ffffffffffffffffffffffffffffffffffffffff168173ffffffffffffffffffffffffffffffffffffffff161415610b76576040517f08c379a0000000000000000000000000000000000000000000000000000000008152600401610b6d90612b68565b60405180910390fd5b80915050919050565b600080600060078481548110610bbe577f4e487b7100000000000000000000000000000000000000000000000000000000600052603260045260246000fd5b906000526020600020016040518060600160405290816000820160009054906101000a900467ffffffffffffffff1667ffffffffffffffff1667ffffffffffffffff1681526020016000820160089054906101000a900463ffffffff1663ffffffff1663ffffffff16815260200160008201600c9054906101000a900461ffff1661ffff1661ffff16815250509050806040015161ffff169250806020015163ffffffff16915050915091565b6000600660009054906101000a900473ffffffffffffffffffffffffffffffffffffffff1673ffffffffffffffffffffffffffffffffffffffff163373ffffffffffffffffffffffffffffffffffffffff1614610cc757600080fd5b81600660006101000a81548173ffffffffffffffffffffffffffffffffffffffff021916908373ffffffffffffffffffffffffffffffffffffffff16021790555060019050919050565b60008073ffffffffffffffffffffffffffffffffffffffff168273ffffffffffffffffffffffffffffffffffffffff161415610d82576040517f08c379a0000000000000000000000000000000000000000000000000000000008152600401610d7990612b48565b60405180910390fd5b600360008373ffffffffffffffffffffffffffffffffffffffff1673ffffffffffffffffffffffffffffffffffffffff168152602001908152602001600020549050919050565b606060018054610dd890612eda565b80601f0160208091040260200160405190810160405280929190818152602001828054610e0490612eda565b8015610e515780601f10610e2657610100808354040283529160200191610e51565b820191906000526020600020905b815481529060010190602001808311610e3457829003601f168201915b5050505050905090565b6000600660009054906101000a900473ffffffffffffffffffffffffffffffffffffffff1673ffffffffffffffffffffffffffffffffffffffff163373ffffffffffffffffffffffffffffffffffffffff1614610eb757600080fd5b8160078481548110610ef2577f4e487b7100000000000000000000000000000000000000000000000000000000600052603260045260246000fd5b9060005260206000200160000160089054906101000a905050508160078481548110610f47577f4e487b7100000000000000000000000000000000000000000000000000000000600052603260045260246000fd5b9060005260206000200160000160089054906101000a900463ffffffff1663ffffffff1614610f9f577f4e487b7100000000000000000000000000000000000000000000000000000000600052600160045260246000fd5b6001905092915050565b610fb1611417565b73ffffffffffffffffffffffffffffffffffffffff168273ffffffffffffffffffffffffffffffffffffffff16141561101f576040517f08c379a000000000000000000000000000000000000000000000000000000000815260040161101690612ac8565b60405180910390fd5b806005600061102c611417565b73ffffffffffffffffffffffffffffffffffffffff1673ffffffffffffffffffffffffffffffffffffffff16815260200190815260200160002060008473ffffffffffffffffffffffffffffffffffffffff1673ffffffffffffffffffffffffffffffffffffffff16815260200190815260200160002060006101000a81548160ff0219169083151502179055508173ffffffffffffffffffffffffffffffffffffffff166110d9611417565b73ffffffffffffffffffffffffffffffffffffffff167f17307eab39ab6107e8899845ad3d59bd9653f200f220920489ca2b5937696c318360405161111e9190612a2b565b60405180910390a35050565b600060078281548110611166577f4e487b7100000000000000000000000000000000000000000000000000000000600052603260045260246000fd5b9060005260206000200160000160009054906101000a900467ffffffffffffffff1667ffffffffffffffff164261119d9190612df0565b9050919050565b6111b56111af611417565b836114d8565b6111f4576040517f08c379a00000000000000000000000000000000000000000000000000000000081526004016111eb90612c28565b60405180910390fd5b6112008484848461194b565b50505050565b6060611211826113ab565b611250576040517f08c379a000000000000000000000000000000000000000000000000000000000815260040161124790612be8565b60405180910390fd5b600061125a6119a7565b9050600081511161127a57604051806020016040528060008152506112a5565b80611284846119be565b604051602001611295929190612947565b6040516020818303038152906040525b915050919050565b6000600560008473ffffffffffffffffffffffffffffffffffffffff1673ffffffffffffffffffffffffffffffffffffffff16815260200190815260200160002060008373ffffffffffffffffffffffffffffffffffffffff1673ffffffffffffffffffffffffffffffffffffffff16815260200190815260200160002060009054906101000a900460ff16905092915050565b60007f01ffc9a7000000000000000000000000000000000000000000000000000000007bffffffffffffffffffffffffffffffffffffffffffffffffffffffff1916827bffffffffffffffffffffffffffffffffffffffffffffffffffffffff1916149050919050565b60008073ffffffffffffffffffffffffffffffffffffffff166002600084815260200190815260200160002060009054906101000a900473ffffffffffffffffffffffffffffffffffffffff1673ffffffffffffffffffffffffffffffffffffffff1614159050919050565b600033905090565b816004600083815260200190815260200160002060006101000a81548173ffffffffffffffffffffffffffffffffffffffff021916908373ffffffffffffffffffffffffffffffffffffffff160217905550808273ffffffffffffffffffffffffffffffffffffffff1661149283610acd565b73ffffffffffffffffffffffffffffffffffffffff167f8c5be1e5ebec7d5bd14f71427d1e84f3dd0314c0f7b2291e5b200ac8c7c3b92560405160405180910390a45050565b60006114e3826113ab565b611522576040517f08c379a000000000000000000000000000000000000000000000000000000000815260040161151990612b08565b60405180910390fd5b600061152d83610acd565b90508073ffffffffffffffffffffffffffffffffffffffff168473ffffffffffffffffffffffffffffffffffffffff16148061159c57508373ffffffffffffffffffffffffffffffffffffffff1661158484610680565b73ffffffffffffffffffffffffffffffffffffffff16145b806115ad57506115ac81856112ad565b5b91505092915050565b8273ffffffffffffffffffffffffffffffffffffffff166115d682610acd565b73ffffffffffffffffffffffffffffffffffffffff161461162c576040517f08c379a000000000000000000000000000000000000000000000000000000000815260040161162390612bc8565b60405180910390fd5b600073ffffffffffffffffffffffffffffffffffffffff168273ffffffffffffffffffffffffffffffffffffffff16141561169c576040517f08c379a000000000000000000000000000000000000000000000000000000000815260040161169390612aa8565b60405180910390fd5b6116a7838383611b6b565b6116b260008261141f565b6001600360008573ffffffffffffffffffffffffffffffffffffffff1673ffffffffffffffffffffffffffffffffffffffff16815260200190815260200160002060008282546117029190612df0565b925050819055506001600360008473ffffffffffffffffffffffffffffffffffffffff1673ffffffffffffffffffffffffffffffffffffffff16815260200190815260200160002060008282546117599190612d69565b92505081905550816002600083815260200190815260200160002060006101000a81548173ffffffffffffffffffffffffffffffffffffffff021916908373ffffffffffffffffffffffffffffffffffffffff160217905550808273ffffffffffffffffffffffffffffffffffffffff168473ffffffffffffffffffffffffffffffffffffffff167fddf252ad1be2c89b69c2b068fc378daa952ba7f163c4a11628f55a4df523b3ef60405160405180910390a4505050565b6000600760405180606001604052804267ffffffffffffffff168152602001600063ffffffff1681526020018561ffff168152509080600181540180825580915050600190039060005260206000200160009091909190915060008201518160000160006101000a81548167ffffffffffffffff021916908367ffffffffffffffff16021790555060208201518160000160086101000a81548163ffffffff021916908363ffffffff160217905550604082015181600001600c6101000a81548161ffff021916908361ffff1602179055505050600060016007805490506118fa9190612df0565b90506119068382611b70565b7f14e4d68bce3be952de68ddd0224dc99b83896c22c8707c3b51a52172714adf18838286604051611939939291906129d2565b60405180910390a18091505092915050565b6119568484846115b6565b61196284848484611b8e565b6119a1576040517f08c379a000000000000000000000000000000000000000000000000000000000815260040161199890612a68565b60405180910390fd5b50505050565b606060405180602001604052806000815250905090565b60606000821415611a06576040518060400160405280600181526020017f30000000000000000000000000000000000000000000000000000000000000008152509050611b66565b600082905060005b60008214611a38578080611a2190612f0c565b915050600a82611a319190612dbf565b9150611a0e565b60008167ffffffffffffffff811115611a7a577f4e487b7100000000000000000000000000000000000000000000000000000000600052604160045260246000fd5b6040519080825280601f01601f191660200182016040528015611aac5781602001600182028036833780820191505090505b5090505b60008514611b5f57600182611ac59190612df0565b9150600a85611ad49190612f55565b6030611ae09190612d69565b60f81b818381518110611b1c577f4e487b7100000000000000000000000000000000000000000000000000000000600052603260045260246000fd5b60200101907effffffffffffffffffffffffffffffffffffffffffffffffffffffffffffff1916908160001a905350600a85611b589190612dbf565b9450611ab0565b8093505050505b919050565b505050565b611b8a828260405180602001604052806000815250611d25565b5050565b6000611baf8473ffffffffffffffffffffffffffffffffffffffff16611d80565b15611d18578373ffffffffffffffffffffffffffffffffffffffff1663150b7a02611bd8611417565b8786866040518563ffffffff1660e01b8152600401611bfa9493929190612986565b602060405180830381600087803b158015611c1457600080fd5b505af1925050508015611c4557506040513d601f19601f82011682018060405250810190611c429190612202565b60015b611cc8573d8060008114611c75576040519150601f19603f3d011682016040523d82523d6000602084013e611c7a565b606091505b50600081511415611cc0576040517f08c379a0000000000000000000000000000000000000000000000000000000008152600401611cb790612a68565b60405180910390fd5b805181602001fd5b63150b7a0260e01b7bffffffffffffffffffffffffffffffffffffffffffffffffffffffff1916817bffffffffffffffffffffffffffffffffffffffffffffffffffffffff191614915050611d1d565b600190505b949350505050565b611d2f8383611d93565b611d3c6000848484611b8e565b611d7b576040517f08c379a0000000000000000000000000000000000000000000000000000000008152600401611d7290612a68565b60405180910390fd5b505050565b600080823b905060008111915050919050565b600073ffffffffffffffffffffffffffffffffffffffff168273ffffffffffffffffffffffffffffffffffffffff161415611e03576040517f08c379a0000000000000000000000000000000000000000000000000000000008152600401611dfa90612b88565b60405180910390fd5b611e0c816113ab565b15611e4c576040517f08c379a0000000000000000000000000000000000000000000000000000000008152600401611e4390612a88565b60405180910390fd5b611e5860008383611b6b565b6001600360008473ffffffffffffffffffffffffffffffffffffffff1673ffffffffffffffffffffffffffffffffffffffff1681526020019081526020016000206000828254611ea89190612d69565b92505081905550816002600083815260200190815260200160002060006101000a81548173ffffffffffffffffffffffffffffffffffffffff021916908373ffffffffffffffffffffffffffffffffffffffff160217905550808273ffffffffffffffffffffffffffffffffffffffff16600073ffffffffffffffffffffffffffffffffffffffff167fddf252ad1be2c89b69c2b068fc378daa952ba7f163c4a11628f55a4df523b3ef60405160405180910390a45050565b6000611f74611f6f84612cbd565b612c8c565b905082815260208101848484011115611f8c57600080fd5b611f97848285612e98565b509392505050565b600081359050611fae81613053565b92915050565b600081359050611fc38161306a565b92915050565b600081359050611fd881613081565b92915050565b600081519050611fed81613081565b92915050565b600082601f83011261200457600080fd5b8135612014848260208601611f61565b91505092915050565b60008135905061202c81613098565b92915050565b60006020828403121561204457600080fd5b600061205284828501611f9f565b91505092915050565b6000806040838503121561206e57600080fd5b600061207c85828601611f9f565b925050602061208d85828601611f9f565b9150509250929050565b6000806000606084860312156120ac57600080fd5b60006120ba86828701611f9f565b93505060206120cb86828701611f9f565b92505060406120dc8682870161201d565b9150509250925092565b600080600080608085870312156120fc57600080fd5b600061210a87828801611f9f565b945050602061211b87828801611f9f565b935050604061212c8782880161201d565b925050606085013567ffffffffffffffff81111561214957600080fd5b61215587828801611ff3565b91505092959194509250565b6000806040838503121561217457600080fd5b600061218285828601611f9f565b925050602061219385828601611fb4565b9150509250929050565b600080604083850312156121b057600080fd5b60006121be85828601611f9f565b92505060206121cf8582860161201d565b9150509250929050565b6000602082840312156121eb57600080fd5b60006121f984828501611fc9565b91505092915050565b60006020828403121561221457600080fd5b600061222284828501611fde565b91505092915050565b60006020828403121561223d57600080fd5b600061224b8482850161201d565b91505092915050565b6000806040838503121561226757600080fd5b60006122758582860161201d565b92505060206122868582860161201d565b9150509250929050565b600061229c8383612929565b60208301905092915050565b6122b181612e24565b82525050565b60006122c282612cfd565b6122cc8185612d2b565b93506122d783612ced565b8060005b838110156123085781516122ef8882612290565b97506122fa83612d1e565b9250506001810190506122db565b5085935050505092915050565b61231e81612e36565b82525050565b600061232f82612d08565b6123398185612d3c565b9350612349818560208601612ea7565b61235281613042565b840191505092915050565b600061236882612d13565b6123728185612d4d565b9350612382818560208601612ea7565b61238b81613042565b840191505092915050565b60006123a182612d13565b6123ab8185612d5e565b93506123bb818560208601612ea7565b80840191505092915050565b60006123d4603283612d4d565b91507f4552433732313a207472616e7366657220746f206e6f6e20455243373231526560008301527f63656976657220696d706c656d656e74657200000000000000000000000000006020830152604082019050919050565b600061243a601c83612d4d565b91507f4552433732313a20746f6b656e20616c7265616479206d696e746564000000006000830152602082019050919050565b600061247a602483612d4d565b91507f4552433732313a207472616e7366657220746f20746865207a65726f2061646460008301527f72657373000000000000000000000000000000000000000000000000000000006020830152604082019050919050565b60006124e0601983612d4d565b91507f4552433732313a20617070726f766520746f2063616c6c6572000000000000006000830152602082019050919050565b6000612520601883612d4d565b91507f57726f6e67207072696365207061696420666f7220706f7400000000000000006000830152602082019050919050565b6000612560602c83612d4d565b91507f4552433732313a206f70657261746f7220717565727920666f72206e6f6e657860008301527f697374656e7420746f6b656e00000000000000000000000000000000000000006020830152604082019050919050565b60006125c6603883612d4d565b91507f4552433732313a20617070726f76652063616c6c6572206973206e6f74206f7760008301527f6e6572206e6f7220617070726f76656420666f7220616c6c00000000000000006020830152604082019050919050565b600061262c602a83612d4d565b91507f4552433732313a2062616c616e636520717565727920666f7220746865207a6560008301527f726f2061646472657373000000000000000000000000000000000000000000006020830152604082019050919050565b6000612692602983612d4d565b91507f4552433732313a206f776e657220717565727920666f72206e6f6e657869737460008301527f656e7420746f6b656e00000000000000000000000000000000000000000000006020830152604082019050919050565b60006126f8602083612d4d565b91507f4552433732313a206d696e7420746f20746865207a65726f20616464726573736000830152602082019050919050565b6000612738602c83612d4d565b91507f4552433732313a20617070726f76656420717565727920666f72206e6f6e657860008301527f697374656e7420746f6b656e00000000000000000000000000000000000000006020830152604082019050919050565b600061279e602983612d4d565b91507f4552433732313a207472616e73666572206f6620746f6b656e2074686174206960008301527f73206e6f74206f776e00000000000000000000000000000000000000000000006020830152604082019050919050565b6000612804602f83612d4d565b91507f4552433732314d657461646174613a2055524920717565727920666f72206e6f60008301527f6e6578697374656e7420746f6b656e00000000000000000000000000000000006020830152604082019050919050565b600061286a602183612d4d565b91507f4552433732313a20617070726f76616c20746f2063757272656e74206f776e6560008301527f72000000000000000000000000000000000000000000000000000000000000006020830152604082019050919050565b60006128d0603183612d4d565b91507f4552433732313a207472616e736665722063616c6c6572206973206e6f74206f60008301527f776e6572206e6f7220617070726f7665640000000000000000000000000000006020830152604082019050919050565b61293281612e8e565b82525050565b61294181612e8e565b82525050565b60006129538285612396565b915061295f8284612396565b91508190509392505050565b600060208201905061298060008301846122a8565b92915050565b600060808201905061299b60008301876122a8565b6129a860208301866122a8565b6129b56040830185612938565b81810360608301526129c78184612324565b905095945050505050565b60006060820190506129e760008301866122a8565b6129f46020830185612938565b612a016040830184612938565b949350505050565b60006020820190508181036000830152612a2381846122b7565b905092915050565b6000602082019050612a406000830184612315565b92915050565b60006020820190508181036000830152612a60818461235d565b905092915050565b60006020820190508181036000830152612a81816123c7565b9050919050565b60006020820190508181036000830152612aa18161242d565b9050919050565b60006020820190508181036000830152612ac18161246d565b9050919050565b60006020820190508181036000830152612ae1816124d3565b9050919050565b60006020820190508181036000830152612b0181612513565b9050919050565b60006020820190508181036000830152612b2181612553565b9050919050565b60006020820190508181036000830152612b41816125b9565b9050919050565b60006020820190508181036000830152612b618161261f565b9050919050565b60006020820190508181036000830152612b8181612685565b9050919050565b60006020820190508181036000830152612ba1816126eb565b9050919050565b60006020820190508181036000830152612bc18161272b565b9050919050565b60006020820190508181036000830152612be181612791565b9050919050565b60006020820190508181036000830152612c01816127f7565b9050919050565b60006020820190508181036000830152612c218161285d565b9050919050565b60006020820190508181036000830152612c41816128c3565b9050919050565b6000602082019050612c5d6000830184612938565b92915050565b6000604082019050612c786000830185612938565b612c856020830184612938565b9392505050565b6000604051905081810181811067ffffffffffffffff82111715612cb357612cb2613013565b5b8060405250919050565b600067ffffffffffffffff821115612cd857612cd7613013565b5b601f19601f8301169050602081019050919050565b6000819050602082019050919050565b600081519050919050565b600081519050919050565b600081519050919050565b6000602082019050919050565b600082825260208201905092915050565b600082825260208201905092915050565b600082825260208201905092915050565b600081905092915050565b6000612d7482612e8e565b9150612d7f83612e8e565b9250827fffffffffffffffffffffffffffffffffffffffffffffffffffffffffffffffff03821115612db457612db3612f86565b5b828201905092915050565b6000612dca82612e8e565b9150612dd583612e8e565b925082612de557612de4612fb5565b5b828204905092915050565b6000612dfb82612e8e565b9150612e0683612e8e565b925082821015612e1957612e18612f86565b5b828203905092915050565b6000612e2f82612e6e565b9050919050565b60008115159050919050565b60007fffffffff0000000000000000000000000000000000000000000000000000000082169050919050565b600073ffffffffffffffffffffffffffffffffffffffff82169050919050565b6000819050919050565b82818337600083830152505050565b60005b83811015612ec5578082015181840152602081019050612eaa565b83811115612ed4576000848401525b50505050565b60006002820490506001821680612ef257607f821691505b60208210811415612f0657612f05612fe4565b5b50919050565b6000612f1782612e8e565b91507fffffffffffffffffffffffffffffffffffffffffffffffffffffffffffffffff821415612f4a57612f49612f86565b5b600182019050919050565b6000612f6082612e8e565b9150612f6b83612e8e565b925082612f7b57612f7a612fb5565b5b828206905092915050565b7f4e487b7100000000000000000000000000000000000000000000000000000000600052601160045260246000fd5b7f4e487b7100000000000000000000000000000000000000000000000000000000600052601260045260246000fd5b7f4e487b7100000000000000000000000000000000000000000000000000000000600052602260045260246000fd5b7f4e487b7100000000000000000000000000000000000000000000000000000000600052604160045260246000fd5b6000601f19601f8301169050919050565b61305c81612e24565b811461306757600080fd5b50565b61307381612e36565b811461307e57600080fd5b50565b61308a81612e42565b811461309557600080fd5b50565b6130a181612e8e565b81146130ac57600080fd5b5056fea264697066735822122052b360d47f070881f53f035c1394e2e7e0d422910ee9ba86bea5c874c16f8a6964736f6c63430008000033",
  "immutableReferences": {},
  "source": "pragma solidity ^0.8.0;\n\nimport \"./PotOwnershipInterface.sol\";\nimport \"@openzeppelin/contracts/token/ERC721/ERC721.sol\";\n\ncontract PotOwnership is PotOwnershipInterface, ERC721 {\n    address admin;\n    // string name = \"CryptoPots\";\n    // string symbol = \"CP\";\n\n    modifier onlyAdmin() {\n        require(msg.sender == admin);\n        _;\n    }\n\n    struct Pot {\n        uint64 creationTime;\n        uint32 succId;\n        uint16 design;\n    }\n\n    Pot[] pots;\n\n    constructor(string memory name_, string memory symbol_)\n        ERC721(name_, symbol_)\n    {\n        // name = name_;\n        // symbol = symbol_;\n    }\n\n    function _createPot(uint256 _design, address _owner)\n        internal\n        returns (uint256)\n    {\n        pots.push(Pot(uint64(block.timestamp), 0, uint16(_design)));\n        uint256 _newPotIndex = pots.length - 1;\n        _safeMint(_owner, _newPotIndex);\n        emit newPot(_owner, _newPotIndex, _design);\n        return _newPotIndex;\n    }\n\n    function buyPot(uint256 _design, uint256 _price)\n        external\n        payable\n        override\n        returns (uint256)\n    {\n        require(msg.value == _price, \"Wrong price paid for pot\");\n        return _createPot(_design, msg.sender);\n    }\n\n    function potsOfOwner(address _owner)\n        external\n        view\n        override\n        returns (uint256[] memory ownerTokens)\n    {\n        uint256 tokenCount = balanceOf(_owner);\n\n        if (tokenCount == 0) {\n            // Return an empty array\n            return new uint256[](0);\n        } else {\n            uint256[] memory result = new uint256[](tokenCount);\n            uint256 totalPots = pots.length - 1;\n            uint256 resultIndex = 0;\n\n            // We count on the fact that all pots have IDs starting at 1 and increasing\n            // sequentially up to the totalPots count.\n            uint256 potId;\n\n            for (potId = 1; potId <= totalPots; potId++) {\n                if (ownerOf(potId) == _owner) {\n                    result[resultIndex] = potId;\n                    resultIndex++;\n                }\n            }\n\n            return result;\n        }\n    }\n\n    function setPotSucc(uint256 _potId, uint256 _succId)\n        external\n        override\n        onlyAdmin\n        returns (bool)\n    {\n        pots[_potId].succId == _succId;\n        assert(pots[_potId].succId == _succId);\n        return true;\n    }\n\n    function getPotInfo(uint256 _potId)\n        external\n        view\n        override\n        returns (uint256 design, uint256 succId)\n    {\n        Pot memory _thisPot = pots[_potId];\n        design = uint256(_thisPot.design);\n        succId = uint256(_thisPot.succId);\n    }\n\n    function setAdmin(address _newAdmin)\n        external\n        override\n        onlyAdmin\n        returns (bool)\n    {\n        admin = _newAdmin;\n        return true;\n    }\n\n    function getPotAge(uint256 _potId)\n        external\n        view\n        override\n        returns (uint256)\n    {\n        return block.timestamp - pots[_potId].creationTime;\n    }\n}\n",
  "sourcePath": "/Users/ellenguo6/Hacks/crypto-succs/contracts/PotOwnership.sol",
  "compiler": {
    "name": "solc",
    "version": "0.8.0+commit.c7dfd78e.Emscripten.clang"
  },
  "schemaVersion": "3.4.1",
  "updatedAt": "2021-05-29T21:44:01.624Z",
  "networkType": "ethereum",
  "devdoc": {
    "kind": "dev",
    "methods": {
      "approve(address,uint256)": {
        "details": "See {IERC721-approve}."
      },
      "balanceOf(address)": {
        "details": "See {IERC721-balanceOf}."
      },
      "getApproved(uint256)": {
        "details": "See {IERC721-getApproved}."
      },
      "isApprovedForAll(address,address)": {
        "details": "See {IERC721-isApprovedForAll}."
      },
      "name()": {
        "details": "See {IERC721Metadata-name}."
      },
      "ownerOf(uint256)": {
        "details": "See {IERC721-ownerOf}."
      },
      "safeTransferFrom(address,address,uint256)": {
        "details": "See {IERC721-safeTransferFrom}."
      },
      "safeTransferFrom(address,address,uint256,bytes)": {
        "details": "See {IERC721-safeTransferFrom}."
      },
      "setApprovalForAll(address,bool)": {
        "details": "See {IERC721-setApprovalForAll}."
      },
      "supportsInterface(bytes4)": {
        "details": "See {IERC165-supportsInterface}."
      },
      "symbol()": {
        "details": "See {IERC721Metadata-symbol}."
      },
      "tokenURI(uint256)": {
        "details": "See {IERC721Metadata-tokenURI}."
      },
      "transferFrom(address,address,uint256)": {
        "details": "See {IERC721-transferFrom}."
      }
    },
    "version": 1
  },
  "userdoc": {
    "kind": "user",
    "methods": {},
    "version": 1
  }
}