{
  "contractName": "PotOwnership",
  "abi": [
    {
      "inputs": [
        {
          "internalType": "string",
          "name": "name_",
          "type": "string"
        },
        {
          "internalType": "string",
          "name": "symbol_",
          "type": "string"
        }
      ],
      "stateMutability": "nonpayable",
      "type": "constructor"
    },
    {
      "anonymous": false,
      "inputs": [
        {
          "indexed": true,
          "internalType": "address",
          "name": "owner",
          "type": "address"
        },
        {
          "indexed": true,
          "internalType": "address",
          "name": "approved",
          "type": "address"
        },
        {
          "indexed": true,
          "internalType": "uint256",
          "name": "tokenId",
          "type": "uint256"
        }
      ],
      "name": "Approval",
      "type": "event"
    },
    {
      "anonymous": false,
      "inputs": [
        {
          "indexed": true,
          "internalType": "address",
          "name": "owner",
          "type": "address"
        },
        {
          "indexed": true,
          "internalType": "address",
          "name": "operator",
          "type": "address"
        },
        {
          "indexed": false,
          "internalType": "bool",
          "name": "approved",
          "type": "bool"
        }
      ],
      "name": "ApprovalForAll",
      "type": "event"
    },
    {
      "anonymous": false,
      "inputs": [
        {
          "indexed": true,
          "internalType": "address",
          "name": "from",
          "type": "address"
        },
        {
          "indexed": true,
          "internalType": "address",
          "name": "to",
          "type": "address"
        },
        {
          "indexed": true,
          "internalType": "uint256",
          "name": "tokenId",
          "type": "uint256"
        }
      ],
      "name": "Transfer",
      "type": "event"
    },
    {
      "anonymous": false,
      "inputs": [
        {
          "indexed": false,
          "internalType": "address",
          "name": "owner",
          "type": "address"
        },
        {
          "indexed": false,
          "internalType": "uint256",
          "name": "potId",
          "type": "uint256"
        },
        {
          "indexed": false,
          "internalType": "uint256",
          "name": "design",
          "type": "uint256"
        }
      ],
      "name": "newPot",
      "type": "event"
    },
    {
      "inputs": [
        {
          "internalType": "address",
          "name": "to",
          "type": "address"
        },
        {
          "internalType": "uint256",
          "name": "tokenId",
          "type": "uint256"
        }
      ],
      "name": "approve",
      "outputs": [],
      "stateMutability": "nonpayable",
      "type": "function"
    },
    {
      "inputs": [
        {
          "internalType": "address",
          "name": "owner",
          "type": "address"
        }
      ],
      "name": "balanceOf",
      "outputs": [
        {
          "internalType": "uint256",
          "name": "",
          "type": "uint256"
        }
      ],
      "stateMutability": "view",
      "type": "function",
      "constant": true
    },
    {
      "inputs": [
        {
          "internalType": "uint256",
          "name": "tokenId",
          "type": "uint256"
        }
      ],
      "name": "getApproved",
      "outputs": [
        {
          "internalType": "address",
          "name": "",
          "type": "address"
        }
      ],
      "stateMutability": "view",
      "type": "function",
      "constant": true
    },
    {
      "inputs": [
        {
          "internalType": "address",
          "name": "owner",
          "type": "address"
        },
        {
          "internalType": "address",
          "name": "operator",
          "type": "address"
        }
      ],
      "name": "isApprovedForAll",
      "outputs": [
        {
          "internalType": "bool",
          "name": "",
          "type": "bool"
        }
      ],
      "stateMutability": "view",
      "type": "function",
      "constant": true
    },
    {
      "inputs": [],
      "name": "name",
      "outputs": [
        {
          "internalType": "string",
          "name": "",
          "type": "string"
        }
      ],
      "stateMutability": "view",
      "type": "function",
      "constant": true
    },
    {
      "inputs": [
        {
          "internalType": "uint256",
          "name": "tokenId",
          "type": "uint256"
        }
      ],
      "name": "ownerOf",
      "outputs": [
        {
          "internalType": "address",
          "name": "",
          "type": "address"
        }
      ],
      "stateMutability": "view",
      "type": "function",
      "constant": true
    },
    {
      "inputs": [
        {
          "internalType": "address",
          "name": "from",
          "type": "address"
        },
        {
          "internalType": "address",
          "name": "to",
          "type": "address"
        },
        {
          "internalType": "uint256",
          "name": "tokenId",
          "type": "uint256"
        }
      ],
      "name": "safeTransferFrom",
      "outputs": [],
      "stateMutability": "nonpayable",
      "type": "function"
    },
    {
      "inputs": [
        {
          "internalType": "address",
          "name": "from",
          "type": "address"
        },
        {
          "internalType": "address",
          "name": "to",
          "type": "address"
        },
        {
          "internalType": "uint256",
          "name": "tokenId",
          "type": "uint256"
        },
        {
          "internalType": "bytes",
          "name": "_data",
          "type": "bytes"
        }
      ],
      "name": "safeTransferFrom",
      "outputs": [],
      "stateMutability": "nonpayable",
      "type": "function"
    },
    {
      "inputs": [
        {
          "internalType": "address",
          "name": "operator",
          "type": "address"
        },
        {
          "internalType": "bool",
          "name": "approved",
          "type": "bool"
        }
      ],
      "name": "setApprovalForAll",
      "outputs": [],
      "stateMutability": "nonpayable",
      "type": "function"
    },
    {
      "inputs": [
        {
          "internalType": "bytes4",
          "name": "interfaceId",
          "type": "bytes4"
        }
      ],
      "name": "supportsInterface",
      "outputs": [
        {
          "internalType": "bool",
          "name": "",
          "type": "bool"
        }
      ],
      "stateMutability": "view",
      "type": "function",
      "constant": true
    },
    {
      "inputs": [],
      "name": "symbol",
      "outputs": [
        {
          "internalType": "string",
          "name": "",
          "type": "string"
        }
      ],
      "stateMutability": "view",
      "type": "function",
      "constant": true
    },
    {
      "inputs": [
        {
          "internalType": "uint256",
          "name": "tokenId",
          "type": "uint256"
        }
      ],
      "name": "tokenURI",
      "outputs": [
        {
          "internalType": "string",
          "name": "",
          "type": "string"
        }
      ],
      "stateMutability": "view",
      "type": "function",
      "constant": true
    },
    {
      "inputs": [
        {
          "internalType": "address",
          "name": "from",
          "type": "address"
        },
        {
          "internalType": "address",
          "name": "to",
          "type": "address"
        },
        {
          "internalType": "uint256",
          "name": "tokenId",
          "type": "uint256"
        }
      ],
      "name": "transferFrom",
      "outputs": [],
      "stateMutability": "nonpayable",
      "type": "function"
    },
    {
      "inputs": [
        {
          "internalType": "uint256",
          "name": "_design",
          "type": "uint256"
        },
        {
          "internalType": "uint256",
          "name": "_price",
          "type": "uint256"
        }
      ],
      "name": "buyPot",
      "outputs": [
        {
          "internalType": "uint256",
          "name": "",
          "type": "uint256"
        }
      ],
      "stateMutability": "payable",
      "type": "function",
      "payable": true
    },
    {
      "inputs": [
        {
          "internalType": "address",
          "name": "_owner",
          "type": "address"
        }
      ],
      "name": "potsOfOwner",
      "outputs": [
        {
          "internalType": "uint256[]",
          "name": "ownerTokens",
          "type": "uint256[]"
        }
      ],
      "stateMutability": "view",
      "type": "function",
      "constant": true
    },
    {
      "inputs": [
        {
          "internalType": "uint256",
          "name": "_potId",
          "type": "uint256"
        },
        {
          "internalType": "uint256",
          "name": "_succId",
          "type": "uint256"
        }
      ],
      "name": "setPotSucc",
      "outputs": [
        {
          "internalType": "bool",
          "name": "",
          "type": "bool"
        }
      ],
      "stateMutability": "nonpayable",
      "type": "function"
    },
    {
      "inputs": [
        {
          "internalType": "uint256",
          "name": "_potId",
          "type": "uint256"
        }
      ],
      "name": "getPotInfo",
      "outputs": [
        {
          "internalType": "uint256",
          "name": "design",
          "type": "uint256"
        },
        {
          "internalType": "uint256",
          "name": "succId",
          "type": "uint256"
        }
      ],
      "stateMutability": "view",
      "type": "function",
      "constant": true
    },
    {
      "inputs": [
        {
          "internalType": "address",
          "name": "_newAdmin",
          "type": "address"
        }
      ],
      "name": "setAdmin",
      "outputs": [
        {
          "internalType": "bool",
          "name": "",
          "type": "bool"
        }
      ],
      "stateMutability": "nonpayable",
      "type": "function"
    },
    {
      "inputs": [
        {
          "internalType": "uint256",
          "name": "_potId",
          "type": "uint256"
        }
      ],
      "name": "getPotAge",
      "outputs": [
        {
          "internalType": "uint256",
          "name": "",
          "type": "uint256"
        }
      ],
      "stateMutability": "view",
      "type": "function",
      "constant": true
    },
    {
      "inputs": [],
      "name": "getAdmin",
      "outputs": [
        {
          "internalType": "address",
          "name": "",
          "type": "address"
        }
      ],
      "stateMutability": "view",
      "type": "function",
      "constant": true
    }
  ],
  "bytecode": "0x60806040523480156200001157600080fd5b50604051620036e9380380620036e98339818101604052810190620000379190620001d8565b8181816000908051906020019062000051929190620000b6565b5080600190805190602001906200006a929190620000b6565b50505033600660006101000a81548173ffffffffffffffffffffffffffffffffffffffff021916908373ffffffffffffffffffffffffffffffffffffffff16021790555050506200037c565b828054620000c490620002e8565b90600052602060002090601f016020900481019282620000e8576000855562000134565b82601f106200010357805160ff191683800117855562000134565b8280016001018555821562000134579182015b828111156200013357825182559160200191906001019062000116565b5b50905062000143919062000147565b5090565b5b808211156200016257600081600090555060010162000148565b5090565b60006200017d62000177846200027f565b6200024b565b9050828152602081018484840111156200019657600080fd5b620001a3848285620002b2565b509392505050565b600082601f830112620001bd57600080fd5b8151620001cf84826020860162000166565b91505092915050565b60008060408385031215620001ec57600080fd5b600083015167ffffffffffffffff8111156200020757600080fd5b6200021585828601620001ab565b925050602083015167ffffffffffffffff8111156200023357600080fd5b6200024185828601620001ab565b9150509250929050565b6000604051905081810181811067ffffffffffffffff821117156200027557620002746200034d565b5b8060405250919050565b600067ffffffffffffffff8211156200029d576200029c6200034d565b5b601f19601f8301169050602081019050919050565b60005b83811015620002d2578082015181840152602081019050620002b5565b83811115620002e2576000848401525b50505050565b600060028204905060018216806200030157607f821691505b602082108114156200031857620003176200031e565b5b50919050565b7f4e487b7100000000000000000000000000000000000000000000000000000000600052602260045260246000fd5b7f4e487b7100000000000000000000000000000000000000000000000000000000600052604160045260246000fd5b61335d806200038c6000396000f3fe60806040526004361061011f5760003560e01c80636e9960c3116100a0578063a22cb46511610064578063a22cb46514610439578063b0e4c99b14610462578063b88d4fde1461049f578063c87b56dd146104c8578063e985e9c5146105055761011f565b80636e9960c31461032c578063704b6c021461035757806370a082311461039457806395d89b41146103d1578063993cbf69146103fc5761011f565b80632701483a116100e75780632701483a1461021b5780633e64e78a1461024b57806342842e0e146102885780636352211e146102b15780636e1e277b146102ee5761011f565b806301ffc9a71461012457806306fdde0314610161578063081812fc1461018c578063095ea7b3146101c957806323b872dd146101f2575b600080fd5b34801561013057600080fd5b5061014b60048036038101906101469190612391565b610542565b6040516101589190612c63565b60405180910390f35b34801561016d57600080fd5b50610176610624565b6040516101839190612c7e565b60405180910390f35b34801561019857600080fd5b506101b360048036038101906101ae91906123e3565b6106b6565b6040516101c09190612ba3565b60405180910390f35b3480156101d557600080fd5b506101f060048036038101906101eb9190612355565b61073b565b005b3480156101fe57600080fd5b506102196004803603810190610214919061224f565b610853565b005b6102356004803603810190610230919061240c565b6108b3565b6040516102429190612ec0565b60405180910390f35b34801561025757600080fd5b50610272600480360381019061026d91906121ea565b610909565b60405161027f9190612c41565b60405180910390f35b34801561029457600080fd5b506102af60048036038101906102aa919061224f565b610ae3565b005b3480156102bd57600080fd5b506102d860048036038101906102d391906123e3565b610b03565b6040516102e59190612ba3565b60405180910390f35b3480156102fa57600080fd5b50610315600480360381019061031091906123e3565b610bb5565b604051610323929190612edb565b60405180910390f35b34801561033857600080fd5b50610341610cea565b60405161034e9190612ba3565b60405180910390f35b34801561036357600080fd5b5061037e600480360381019061037991906121ea565b610d14565b60405161038b9190612c63565b60405180910390f35b3480156103a057600080fd5b506103bb60048036038101906103b691906121ea565b610df0565b6040516103c89190612ec0565b60405180910390f35b3480156103dd57600080fd5b506103e6610ea8565b6040516103f39190612c7e565b60405180910390f35b34801561040857600080fd5b50610423600480360381019061041e919061240c565b610f3a565b6040516104309190612c63565b60405180910390f35b34801561044557600080fd5b50610460600480360381019061045b9190612319565b611118565b005b34801561046e57600080fd5b50610489600480360381019061048491906123e3565b611299565b6040516104969190612ec0565b60405180910390f35b3480156104ab57600080fd5b506104c660048036038101906104c1919061229e565b61135c565b005b3480156104d457600080fd5b506104ef60048036038101906104ea91906123e3565b6113be565b6040516104fc9190612c7e565b60405180910390f35b34801561051157600080fd5b5061052c60048036038101906105279190612213565b611465565b6040516105399190612c63565b60405180910390f35b60007f80ac58cd000000000000000000000000000000000000000000000000000000007bffffffffffffffffffffffffffffffffffffffffffffffffffffffff1916827bffffffffffffffffffffffffffffffffffffffffffffffffffffffff1916148061060d57507f5b5e139f000000000000000000000000000000000000000000000000000000007bffffffffffffffffffffffffffffffffffffffffffffffffffffffff1916827bffffffffffffffffffffffffffffffffffffffffffffffffffffffff1916145b8061061d575061061c826114f9565b5b9050919050565b60606000805461063390613152565b80601f016020809104026020016040519081016040528092919081815260200182805461065f90613152565b80156106ac5780601f10610681576101008083540402835291602001916106ac565b820191906000526020600020905b81548152906001019060200180831161068f57829003601f168201915b5050505050905090565b60006106c182611563565b610700576040517f08c379a00000000000000000000000000000000000000000000000000000000081526004016106f790612e00565b60405180910390fd5b6004600083815260200190815260200160002060009054906101000a900473ffffffffffffffffffffffffffffffffffffffff169050919050565b600061074682610b03565b90508073ffffffffffffffffffffffffffffffffffffffff168373ffffffffffffffffffffffffffffffffffffffff1614156107b7576040517f08c379a00000000000000000000000000000000000000000000000000000000081526004016107ae90612e80565b60405180910390fd5b8073ffffffffffffffffffffffffffffffffffffffff166107d66115cf565b73ffffffffffffffffffffffffffffffffffffffff1614806108055750610804816107ff6115cf565b611465565b5b610844576040517f08c379a000000000000000000000000000000000000000000000000000000000815260040161083b90612d80565b60405180910390fd5b61084e83836115d7565b505050565b61086461085e6115cf565b82611690565b6108a3576040517f08c379a000000000000000000000000000000000000000000000000000000000815260040161089a90612ea0565b60405180910390fd5b6108ae83838361176e565b505050565b60008134146108f7576040517f08c379a00000000000000000000000000000000000000000000000000000000081526004016108ee90612d40565b60405180910390fd5b61090183336119ca565b905092915050565b6060600061091683610df0565b9050600081141561099957600067ffffffffffffffff811115610962577f4e487b7100000000000000000000000000000000000000000000000000000000600052604160045260246000fd5b6040519080825280602002602001820160405280156109905781602001602082028036833780820191505090505b50915050610ade565b60008167ffffffffffffffff8111156109db577f4e487b7100000000000000000000000000000000000000000000000000000000600052604160045260246000fd5b604051908082528060200260200182016040528015610a095781602001602082028036833780820191505090505b50905060006001600780549050610a209190613068565b9050600080600190505b828111610ad5578673ffffffffffffffffffffffffffffffffffffffff16610a5182610b03565b73ffffffffffffffffffffffffffffffffffffffff161415610ac25780848381518110610aa7577f4e487b7100000000000000000000000000000000000000000000000000000000600052603260045260246000fd5b6020026020010181815250508180610abe90613184565b9250505b8080610acd90613184565b915050610a2a565b83955050505050505b919050565b610afe8383836040518060200160405280600081525061135c565b505050565b6000806002600084815260200190815260200160002060009054906101000a900473ffffffffffffffffffffffffffffffffffffffff169050600073ffffffffffffffffffffffffffffffffffffffff168173ffffffffffffffffffffffffffffffffffffffff161415610bac576040517f08c379a0000000000000000000000000000000000000000000000000000000008152600401610ba390612dc0565b60405180910390fd5b80915050919050565b600080826007805490508110610c00576040517f08c379a0000000000000000000000000000000000000000000000000000000008152600401610bf790612e20565b60405180910390fd5b600060078581548110610c3c577f4e487b7100000000000000000000000000000000000000000000000000000000600052603260045260246000fd5b906000526020600020016040518060600160405290816000820160009054906101000a900467ffffffffffffffff1667ffffffffffffffff1667ffffffffffffffff1681526020016000820160089054906101000a900463ffffffff1663ffffffff1663ffffffff16815260200160008201600c9054906101000a900461ffff1661ffff1661ffff16815250509050806040015161ffff169350806020015163ffffffff1692505050915091565b6000600660009054906101000a900473ffffffffffffffffffffffffffffffffffffffff16905090565b6000600660009054906101000a900473ffffffffffffffffffffffffffffffffffffffff1673ffffffffffffffffffffffffffffffffffffffff163373ffffffffffffffffffffffffffffffffffffffff1614610da6576040517f08c379a0000000000000000000000000000000000000000000000000000000008152600401610d9d90612d20565b60405180910390fd5b81600660006101000a81548173ffffffffffffffffffffffffffffffffffffffff021916908373ffffffffffffffffffffffffffffffffffffffff16021790555060019050919050565b60008073ffffffffffffffffffffffffffffffffffffffff168273ffffffffffffffffffffffffffffffffffffffff161415610e61576040517f08c379a0000000000000000000000000000000000000000000000000000000008152600401610e5890612da0565b60405180910390fd5b600360008373ffffffffffffffffffffffffffffffffffffffff1673ffffffffffffffffffffffffffffffffffffffff168152602001908152602001600020549050919050565b606060018054610eb790613152565b80601f0160208091040260200160405190810160405280929190818152602001828054610ee390613152565b8015610f305780601f10610f0557610100808354040283529160200191610f30565b820191906000526020600020905b815481529060010190602001808311610f1357829003601f168201915b5050505050905090565b6000600660009054906101000a900473ffffffffffffffffffffffffffffffffffffffff1673ffffffffffffffffffffffffffffffffffffffff163373ffffffffffffffffffffffffffffffffffffffff1614610fcc576040517f08c379a0000000000000000000000000000000000000000000000000000000008152600401610fc390612d20565b60405180910390fd5b826007805490508110611014576040517f08c379a000000000000000000000000000000000000000000000000000000000815260040161100b90612e20565b60405180910390fd5b826007858154811061104f577f4e487b7100000000000000000000000000000000000000000000000000000000600052603260045260246000fd5b9060005260206000200160000160086101000a81548163ffffffff021916908363ffffffff16021790555082600785815481106110b5577f4e487b7100000000000000000000000000000000000000000000000000000000600052603260045260246000fd5b9060005260206000200160000160089054906101000a900463ffffffff1663ffffffff161461110d577f4e487b7100000000000000000000000000000000000000000000000000000000600052600160045260246000fd5b600191505092915050565b6111206115cf565b73ffffffffffffffffffffffffffffffffffffffff168273ffffffffffffffffffffffffffffffffffffffff16141561118e576040517f08c379a000000000000000000000000000000000000000000000000000000000815260040161118590612d00565b60405180910390fd5b806005600061119b6115cf565b73ffffffffffffffffffffffffffffffffffffffff1673ffffffffffffffffffffffffffffffffffffffff16815260200190815260200160002060008473ffffffffffffffffffffffffffffffffffffffff1673ffffffffffffffffffffffffffffffffffffffff16815260200190815260200160002060006101000a81548160ff0219169083151502179055508173ffffffffffffffffffffffffffffffffffffffff166112486115cf565b73ffffffffffffffffffffffffffffffffffffffff167f17307eab39ab6107e8899845ad3d59bd9653f200f220920489ca2b5937696c318360405161128d9190612c63565b60405180910390a35050565b60008160078054905081106112e3576040517f08c379a00000000000000000000000000000000000000000000000000000000081526004016112da90612e20565b60405180910390fd5b6007838154811061131d577f4e487b7100000000000000000000000000000000000000000000000000000000600052603260045260246000fd5b9060005260206000200160000160009054906101000a900467ffffffffffffffff1667ffffffffffffffff16426113549190613068565b915050919050565b61136d6113676115cf565b83611690565b6113ac576040517f08c379a00000000000000000000000000000000000000000000000000000000081526004016113a390612ea0565b60405180910390fd5b6113b884848484611b03565b50505050565b60606113c982611563565b611408576040517f08c379a00000000000000000000000000000000000000000000000000000000081526004016113ff90612e60565b60405180910390fd5b6000611412611b5f565b90506000815111611432576040518060200160405280600081525061145d565b8061143c84611b76565b60405160200161144d929190612b7f565b6040516020818303038152906040525b915050919050565b6000600560008473ffffffffffffffffffffffffffffffffffffffff1673ffffffffffffffffffffffffffffffffffffffff16815260200190815260200160002060008373ffffffffffffffffffffffffffffffffffffffff1673ffffffffffffffffffffffffffffffffffffffff16815260200190815260200160002060009054906101000a900460ff16905092915050565b60007f01ffc9a7000000000000000000000000000000000000000000000000000000007bffffffffffffffffffffffffffffffffffffffffffffffffffffffff1916827bffffffffffffffffffffffffffffffffffffffffffffffffffffffff1916149050919050565b60008073ffffffffffffffffffffffffffffffffffffffff166002600084815260200190815260200160002060009054906101000a900473ffffffffffffffffffffffffffffffffffffffff1673ffffffffffffffffffffffffffffffffffffffff1614159050919050565b600033905090565b816004600083815260200190815260200160002060006101000a81548173ffffffffffffffffffffffffffffffffffffffff021916908373ffffffffffffffffffffffffffffffffffffffff160217905550808273ffffffffffffffffffffffffffffffffffffffff1661164a83610b03565b73ffffffffffffffffffffffffffffffffffffffff167f8c5be1e5ebec7d5bd14f71427d1e84f3dd0314c0f7b2291e5b200ac8c7c3b92560405160405180910390a45050565b600061169b82611563565b6116da576040517f08c379a00000000000000000000000000000000000000000000000000000000081526004016116d190612d60565b60405180910390fd5b60006116e583610b03565b90508073ffffffffffffffffffffffffffffffffffffffff168473ffffffffffffffffffffffffffffffffffffffff16148061175457508373ffffffffffffffffffffffffffffffffffffffff1661173c846106b6565b73ffffffffffffffffffffffffffffffffffffffff16145b8061176557506117648185611465565b5b91505092915050565b8273ffffffffffffffffffffffffffffffffffffffff1661178e82610b03565b73ffffffffffffffffffffffffffffffffffffffff16146117e4576040517f08c379a00000000000000000000000000000000000000000000000000000000081526004016117db90612e40565b60405180910390fd5b600073ffffffffffffffffffffffffffffffffffffffff168273ffffffffffffffffffffffffffffffffffffffff161415611854576040517f08c379a000000000000000000000000000000000000000000000000000000000815260040161184b90612ce0565b60405180910390fd5b61185f838383611d23565b61186a6000826115d7565b6001600360008573ffffffffffffffffffffffffffffffffffffffff1673ffffffffffffffffffffffffffffffffffffffff16815260200190815260200160002060008282546118ba9190613068565b925050819055506001600360008473ffffffffffffffffffffffffffffffffffffffff1673ffffffffffffffffffffffffffffffffffffffff16815260200190815260200160002060008282546119119190612fe1565b92505081905550816002600083815260200190815260200160002060006101000a81548173ffffffffffffffffffffffffffffffffffffffff021916908373ffffffffffffffffffffffffffffffffffffffff160217905550808273ffffffffffffffffffffffffffffffffffffffff168473ffffffffffffffffffffffffffffffffffffffff167fddf252ad1be2c89b69c2b068fc378daa952ba7f163c4a11628f55a4df523b3ef60405160405180910390a4505050565b6000600760405180606001604052804267ffffffffffffffff168152602001600063ffffffff1681526020018561ffff168152509080600181540180825580915050600190039060005260206000200160009091909190915060008201518160000160006101000a81548167ffffffffffffffff021916908367ffffffffffffffff16021790555060208201518160000160086101000a81548163ffffffff021916908363ffffffff160217905550604082015181600001600c6101000a81548161ffff021916908361ffff160217905550505060006001600780549050611ab29190613068565b9050611abe8382611d28565b7f14e4d68bce3be952de68ddd0224dc99b83896c22c8707c3b51a52172714adf18838286604051611af193929190612c0a565b60405180910390a18091505092915050565b611b0e84848461176e565b611b1a84848484611d46565b611b59576040517f08c379a0000000000000000000000000000000000000000000000000000000008152600401611b5090612ca0565b60405180910390fd5b50505050565b606060405180602001604052806000815250905090565b60606000821415611bbe576040518060400160405280600181526020017f30000000000000000000000000000000000000000000000000000000000000008152509050611d1e565b600082905060005b60008214611bf0578080611bd990613184565b915050600a82611be99190613037565b9150611bc6565b60008167ffffffffffffffff811115611c32577f4e487b7100000000000000000000000000000000000000000000000000000000600052604160045260246000fd5b6040519080825280601f01601f191660200182016040528015611c645781602001600182028036833780820191505090505b5090505b60008514611d1757600182611c7d9190613068565b9150600a85611c8c91906131cd565b6030611c989190612fe1565b60f81b818381518110611cd4577f4e487b7100000000000000000000000000000000000000000000000000000000600052603260045260246000fd5b60200101907effffffffffffffffffffffffffffffffffffffffffffffffffffffffffffff1916908160001a905350600a85611d109190613037565b9450611c68565b8093505050505b919050565b505050565b611d42828260405180602001604052806000815250611edd565b5050565b6000611d678473ffffffffffffffffffffffffffffffffffffffff16611f38565b15611ed0578373ffffffffffffffffffffffffffffffffffffffff1663150b7a02611d906115cf565b8786866040518563ffffffff1660e01b8152600401611db29493929190612bbe565b602060405180830381600087803b158015611dcc57600080fd5b505af1925050508015611dfd57506040513d601f19601f82011682018060405250810190611dfa91906123ba565b60015b611e80573d8060008114611e2d576040519150601f19603f3d011682016040523d82523d6000602084013e611e32565b606091505b50600081511415611e78576040517f08c379a0000000000000000000000000000000000000000000000000000000008152600401611e6f90612ca0565b60405180910390fd5b805181602001fd5b63150b7a0260e01b7bffffffffffffffffffffffffffffffffffffffffffffffffffffffff1916817bffffffffffffffffffffffffffffffffffffffffffffffffffffffff191614915050611ed5565b600190505b949350505050565b611ee78383611f4b565b611ef46000848484611d46565b611f33576040517f08c379a0000000000000000000000000000000000000000000000000000000008152600401611f2a90612ca0565b60405180910390fd5b505050565b600080823b905060008111915050919050565b600073ffffffffffffffffffffffffffffffffffffffff168273ffffffffffffffffffffffffffffffffffffffff161415611fbb576040517f08c379a0000000000000000000000000000000000000000000000000000000008152600401611fb290612de0565b60405180910390fd5b611fc481611563565b15612004576040517f08c379a0000000000000000000000000000000000000000000000000000000008152600401611ffb90612cc0565b60405180910390fd5b61201060008383611d23565b6001600360008473ffffffffffffffffffffffffffffffffffffffff1673ffffffffffffffffffffffffffffffffffffffff16815260200190815260200160002060008282546120609190612fe1565b92505081905550816002600083815260200190815260200160002060006101000a81548173ffffffffffffffffffffffffffffffffffffffff021916908373ffffffffffffffffffffffffffffffffffffffff160217905550808273ffffffffffffffffffffffffffffffffffffffff16600073ffffffffffffffffffffffffffffffffffffffff167fddf252ad1be2c89b69c2b068fc378daa952ba7f163c4a11628f55a4df523b3ef60405160405180910390a45050565b600061212c61212784612f35565b612f04565b90508281526020810184848401111561214457600080fd5b61214f848285613110565b509392505050565b600081359050612166816132cb565b92915050565b60008135905061217b816132e2565b92915050565b600081359050612190816132f9565b92915050565b6000815190506121a5816132f9565b92915050565b600082601f8301126121bc57600080fd5b81356121cc848260208601612119565b91505092915050565b6000813590506121e481613310565b92915050565b6000602082840312156121fc57600080fd5b600061220a84828501612157565b91505092915050565b6000806040838503121561222657600080fd5b600061223485828601612157565b925050602061224585828601612157565b9150509250929050565b60008060006060848603121561226457600080fd5b600061227286828701612157565b935050602061228386828701612157565b9250506040612294868287016121d5565b9150509250925092565b600080600080608085870312156122b457600080fd5b60006122c287828801612157565b94505060206122d387828801612157565b93505060406122e4878288016121d5565b925050606085013567ffffffffffffffff81111561230157600080fd5b61230d878288016121ab565b91505092959194509250565b6000806040838503121561232c57600080fd5b600061233a85828601612157565b925050602061234b8582860161216c565b9150509250929050565b6000806040838503121561236857600080fd5b600061237685828601612157565b9250506020612387858286016121d5565b9150509250929050565b6000602082840312156123a357600080fd5b60006123b184828501612181565b91505092915050565b6000602082840312156123cc57600080fd5b60006123da84828501612196565b91505092915050565b6000602082840312156123f557600080fd5b6000612403848285016121d5565b91505092915050565b6000806040838503121561241f57600080fd5b600061242d858286016121d5565b925050602061243e858286016121d5565b9150509250929050565b60006124548383612b61565b60208301905092915050565b6124698161309c565b82525050565b600061247a82612f75565b6124848185612fa3565b935061248f83612f65565b8060005b838110156124c05781516124a78882612448565b97506124b283612f96565b925050600181019050612493565b5085935050505092915050565b6124d6816130ae565b82525050565b60006124e782612f80565b6124f18185612fb4565b935061250181856020860161311f565b61250a816132ba565b840191505092915050565b600061252082612f8b565b61252a8185612fc5565b935061253a81856020860161311f565b612543816132ba565b840191505092915050565b600061255982612f8b565b6125638185612fd6565b935061257381856020860161311f565b80840191505092915050565b600061258c603283612fc5565b91507f4552433732313a207472616e7366657220746f206e6f6e20455243373231526560008301527f63656976657220696d706c656d656e74657200000000000000000000000000006020830152604082019050919050565b60006125f2601c83612fc5565b91507f4552433732313a20746f6b656e20616c7265616479206d696e746564000000006000830152602082019050919050565b6000612632602483612fc5565b91507f4552433732313a207472616e7366657220746f20746865207a65726f2061646460008301527f72657373000000000000000000000000000000000000000000000000000000006020830152604082019050919050565b6000612698601983612fc5565b91507f4552433732313a20617070726f766520746f2063616c6c6572000000000000006000830152602082019050919050565b60006126d8600a83612fc5565b91507f6f6e6c792061646d696e000000000000000000000000000000000000000000006000830152602082019050919050565b6000612718601883612fc5565b91507f57726f6e67207072696365207061696420666f7220706f7400000000000000006000830152602082019050919050565b6000612758602c83612fc5565b91507f4552433732313a206f70657261746f7220717565727920666f72206e6f6e657860008301527f697374656e7420746f6b656e00000000000000000000000000000000000000006020830152604082019050919050565b60006127be603883612fc5565b91507f4552433732313a20617070726f76652063616c6c6572206973206e6f74206f7760008301527f6e6572206e6f7220617070726f76656420666f7220616c6c00000000000000006020830152604082019050919050565b6000612824602a83612fc5565b91507f4552433732313a2062616c616e636520717565727920666f7220746865207a6560008301527f726f2061646472657373000000000000000000000000000000000000000000006020830152604082019050919050565b600061288a602983612fc5565b91507f4552433732313a206f776e657220717565727920666f72206e6f6e657869737460008301527f656e7420746f6b656e00000000000000000000000000000000000000000000006020830152604082019050919050565b60006128f0602083612fc5565b91507f4552433732313a206d696e7420746f20746865207a65726f20616464726573736000830152602082019050919050565b6000612930602c83612fc5565b91507f4552433732313a20617070726f76656420717565727920666f72206e6f6e657860008301527f697374656e7420746f6b656e00000000000000000000000000000000000000006020830152604082019050919050565b6000612996601983612fc5565b91507f53756363756c656e74204944206f7574206f662072616e6765000000000000006000830152602082019050919050565b60006129d6602983612fc5565b91507f4552433732313a207472616e73666572206f6620746f6b656e2074686174206960008301527f73206e6f74206f776e00000000000000000000000000000000000000000000006020830152604082019050919050565b6000612a3c602f83612fc5565b91507f4552433732314d657461646174613a2055524920717565727920666f72206e6f60008301527f6e6578697374656e7420746f6b656e00000000000000000000000000000000006020830152604082019050919050565b6000612aa2602183612fc5565b91507f4552433732313a20617070726f76616c20746f2063757272656e74206f776e6560008301527f72000000000000000000000000000000000000000000000000000000000000006020830152604082019050919050565b6000612b08603183612fc5565b91507f4552433732313a207472616e736665722063616c6c6572206973206e6f74206f60008301527f776e6572206e6f7220617070726f7665640000000000000000000000000000006020830152604082019050919050565b612b6a81613106565b82525050565b612b7981613106565b82525050565b6000612b8b828561254e565b9150612b97828461254e565b91508190509392505050565b6000602082019050612bb86000830184612460565b92915050565b6000608082019050612bd36000830187612460565b612be06020830186612460565b612bed6040830185612b70565b8181036060830152612bff81846124dc565b905095945050505050565b6000606082019050612c1f6000830186612460565b612c2c6020830185612b70565b612c396040830184612b70565b949350505050565b60006020820190508181036000830152612c5b818461246f565b905092915050565b6000602082019050612c7860008301846124cd565b92915050565b60006020820190508181036000830152612c988184612515565b905092915050565b60006020820190508181036000830152612cb98161257f565b9050919050565b60006020820190508181036000830152612cd9816125e5565b9050919050565b60006020820190508181036000830152612cf981612625565b9050919050565b60006020820190508181036000830152612d198161268b565b9050919050565b60006020820190508181036000830152612d39816126cb565b9050919050565b60006020820190508181036000830152612d598161270b565b9050919050565b60006020820190508181036000830152612d798161274b565b9050919050565b60006020820190508181036000830152612d99816127b1565b9050919050565b60006020820190508181036000830152612db981612817565b9050919050565b60006020820190508181036000830152612dd98161287d565b9050919050565b60006020820190508181036000830152612df9816128e3565b9050919050565b60006020820190508181036000830152612e1981612923565b9050919050565b60006020820190508181036000830152612e3981612989565b9050919050565b60006020820190508181036000830152612e59816129c9565b9050919050565b60006020820190508181036000830152612e7981612a2f565b9050919050565b60006020820190508181036000830152612e9981612a95565b9050919050565b60006020820190508181036000830152612eb981612afb565b9050919050565b6000602082019050612ed56000830184612b70565b92915050565b6000604082019050612ef06000830185612b70565b612efd6020830184612b70565b9392505050565b6000604051905081810181811067ffffffffffffffff82111715612f2b57612f2a61328b565b5b8060405250919050565b600067ffffffffffffffff821115612f5057612f4f61328b565b5b601f19601f8301169050602081019050919050565b6000819050602082019050919050565b600081519050919050565b600081519050919050565b600081519050919050565b6000602082019050919050565b600082825260208201905092915050565b600082825260208201905092915050565b600082825260208201905092915050565b600081905092915050565b6000612fec82613106565b9150612ff783613106565b9250827fffffffffffffffffffffffffffffffffffffffffffffffffffffffffffffffff0382111561302c5761302b6131fe565b5b828201905092915050565b600061304282613106565b915061304d83613106565b92508261305d5761305c61322d565b5b828204905092915050565b600061307382613106565b915061307e83613106565b925082821015613091576130906131fe565b5b828203905092915050565b60006130a7826130e6565b9050919050565b60008115159050919050565b60007fffffffff0000000000000000000000000000000000000000000000000000000082169050919050565b600073ffffffffffffffffffffffffffffffffffffffff82169050919050565b6000819050919050565b82818337600083830152505050565b60005b8381101561313d578082015181840152602081019050613122565b8381111561314c576000848401525b50505050565b6000600282049050600182168061316a57607f821691505b6020821081141561317e5761317d61325c565b5b50919050565b600061318f82613106565b91507fffffffffffffffffffffffffffffffffffffffffffffffffffffffffffffffff8214156131c2576131c16131fe565b5b600182019050919050565b60006131d882613106565b91506131e383613106565b9250826131f3576131f261322d565b5b828206905092915050565b7f4e487b7100000000000000000000000000000000000000000000000000000000600052601160045260246000fd5b7f4e487b7100000000000000000000000000000000000000000000000000000000600052601260045260246000fd5b7f4e487b7100000000000000000000000000000000000000000000000000000000600052602260045260246000fd5b7f4e487b7100000000000000000000000000000000000000000000000000000000600052604160045260246000fd5b6000601f19601f8301169050919050565b6132d48161309c565b81146132df57600080fd5b50565b6132eb816130ae565b81146132f657600080fd5b50565b613302816130ba565b811461330d57600080fd5b50565b61331981613106565b811461332457600080fd5b5056fea2646970667358221220d35a3019316e35e2aecb932528b8fc7b6b0a04e62cee37c89391cebe8d34bc5264736f6c63430008000033",
  "immutableReferences": {},
  "source": "pragma solidity ^0.8.0;\n\nimport \"./PotOwnershipInterface.sol\";\nimport \"@openzeppelin/contracts/token/ERC721/ERC721.sol\";\n\ncontract PotOwnership is PotOwnershipInterface, ERC721 {\n    address admin;\n    // string name = \"CryptoPots\";\n    // string symbol = \"CP\";\n\n    modifier onlyAdmin() {\n        require(msg.sender == admin, \"only admin\");\n        _;\n    }\n\n    modifier potIdInRange(uint256 potId) {\n        require(potId < pots.length, \"Succulent ID out of range\");\n        _;\n    }\n\n    struct Pot {\n        uint64 creationTime;\n        uint32 succId;\n        uint16 design;\n    }\n\n    Pot[] pots;\n\n    constructor(string memory name_, string memory symbol_)\n        ERC721(name_, symbol_)\n    {\n        // name = name_;\n        // symbol = symbol_;\n        admin = msg.sender;\n    }\n\n    function _createPot(uint256 _design, address _owner)\n        internal\n        returns (uint256)\n    {\n        pots.push(Pot(uint64(block.timestamp), 0, uint16(_design)));\n        uint256 _newPotIndex = pots.length - 1;\n        _safeMint(_owner, _newPotIndex);\n        emit newPot(_owner, _newPotIndex, _design);\n        return _newPotIndex;\n    }\n\n    function buyPot(uint256 _design, uint256 _price)\n        external\n        payable\n        override\n        returns (uint256)\n    {\n        require(msg.value == _price, \"Wrong price paid for pot\");\n        return _createPot(_design, msg.sender);\n    }\n\n    function potsOfOwner(address _owner)\n        external\n        view\n        override\n        returns (uint256[] memory ownerTokens)\n    {\n        uint256 tokenCount = balanceOf(_owner);\n\n        if (tokenCount == 0) {\n            // Return an empty array\n            return new uint256[](0);\n        } else {\n            uint256[] memory result = new uint256[](tokenCount);\n            uint256 totalPots = pots.length - 1;\n            uint256 resultIndex = 0;\n\n            // We count on the fact that all pots have IDs starting at 1 and increasing\n            // sequentially up to the totalPots count.\n            uint256 potId;\n\n            for (potId = 1; potId <= totalPots; potId++) {\n                if (ownerOf(potId) == _owner) {\n                    result[resultIndex] = potId;\n                    resultIndex++;\n                }\n            }\n\n            return result;\n        }\n    }\n\n    function setPotSucc(uint256 _potId, uint256 _succId)\n        external\n        override\n        onlyAdmin\n        potIdInRange(_potId)\n        returns (bool)\n    {\n        pots[_potId].succId = uint32(_succId);\n        assert(pots[_potId].succId == _succId);\n        return true;\n    }\n\n    function getPotInfo(uint256 _potId)\n        external\n        view\n        override\n        potIdInRange(_potId)\n        returns (uint256 design, uint256 succId)\n    {\n        Pot memory _thisPot = pots[_potId];\n        design = uint256(_thisPot.design);\n        succId = uint256(_thisPot.succId);\n    }\n\n    function setAdmin(address _newAdmin)\n        external\n        override\n        onlyAdmin\n        returns (bool)\n    {\n        admin = _newAdmin;\n        return true;\n    }\n\n    function getPotAge(uint256 _potId)\n        external\n        view\n        override\n        potIdInRange(_potId)\n        returns (uint256)\n    {\n        return block.timestamp - pots[_potId].creationTime;\n    }\n\n    function getAdmin() external view returns (address) {\n        return admin;\n    }\n}\n",
  "sourcePath": "/Users/ellenguo6/Hacks/crypto-succs/contracts/PotOwnership.sol",
  "compiler": {
    "name": "solc",
    "version": "0.8.0+commit.c7dfd78e.Emscripten.clang"
  },
  "schemaVersion": "3.4.1",
  "updatedAt": "2021-05-30T03:32:37.473Z",
  "networkType": "ethereum",
  "devdoc": {
    "kind": "dev",
    "methods": {
      "approve(address,uint256)": {
        "details": "See {IERC721-approve}."
      },
      "balanceOf(address)": {
        "details": "See {IERC721-balanceOf}."
      },
      "getApproved(uint256)": {
        "details": "See {IERC721-getApproved}."
      },
      "isApprovedForAll(address,address)": {
        "details": "See {IERC721-isApprovedForAll}."
      },
      "name()": {
        "details": "See {IERC721Metadata-name}."
      },
      "ownerOf(uint256)": {
        "details": "See {IERC721-ownerOf}."
      },
      "safeTransferFrom(address,address,uint256)": {
        "details": "See {IERC721-safeTransferFrom}."
      },
      "safeTransferFrom(address,address,uint256,bytes)": {
        "details": "See {IERC721-safeTransferFrom}."
      },
      "setApprovalForAll(address,bool)": {
        "details": "See {IERC721-setApprovalForAll}."
      },
      "supportsInterface(bytes4)": {
        "details": "See {IERC165-supportsInterface}."
      },
      "symbol()": {
        "details": "See {IERC721Metadata-symbol}."
      },
      "tokenURI(uint256)": {
        "details": "See {IERC721Metadata-tokenURI}."
      },
      "transferFrom(address,address,uint256)": {
        "details": "See {IERC721-transferFrom}."
      }
    },
    "version": 1
  },
  "userdoc": {
    "kind": "user",
    "methods": {},
    "version": 1
  }
}