{
  "contractName": "SuccBase",
  "abi": [
    {
      "constant": true,
      "inputs": [],
      "name": "secondsPerBlock",
      "outputs": [
        {
          "name": "",
          "type": "uint256"
        }
      ],
      "payable": false,
      "stateMutability": "view",
      "type": "function"
    },
    {
      "constant": true,
      "inputs": [
        {
          "name": "",
          "type": "uint256"
        }
      ],
      "name": "watersNeeded",
      "outputs": [
        {
          "name": "",
          "type": "uint8"
        }
      ],
      "payable": false,
      "stateMutability": "view",
      "type": "function"
    },
    {
      "constant": true,
      "inputs": [
        {
          "name": "",
          "type": "uint256"
        }
      ],
      "name": "succIndexToOwner",
      "outputs": [
        {
          "name": "",
          "type": "address"
        }
      ],
      "payable": false,
      "stateMutability": "view",
      "type": "function"
    },
    {
      "constant": true,
      "inputs": [
        {
          "name": "",
          "type": "uint256"
        }
      ],
      "name": "succIndexToApproved",
      "outputs": [
        {
          "name": "",
          "type": "address"
        }
      ],
      "payable": false,
      "stateMutability": "view",
      "type": "function"
    },
    {
      "anonymous": false,
      "inputs": [
        {
          "indexed": false,
          "name": "owner",
          "type": "address"
        },
        {
          "indexed": false,
          "name": "succId",
          "type": "uint256"
        },
        {
          "indexed": false,
          "name": "matronId",
          "type": "uint256"
        },
        {
          "indexed": false,
          "name": "sireId",
          "type": "uint256"
        },
        {
          "indexed": false,
          "name": "genes",
          "type": "uint256"
        }
      ],
      "name": "Sprout",
      "type": "event"
    },
    {
      "anonymous": false,
      "inputs": [
        {
          "indexed": false,
          "name": "from",
          "type": "address"
        },
        {
          "indexed": false,
          "name": "to",
          "type": "address"
        },
        {
          "indexed": false,
          "name": "tokenId",
          "type": "uint256"
        }
      ],
      "name": "Transfer",
      "type": "event"
    }
  ],
  "bytecode": "0x608060405261010060405190810160405280600160ff1660ff168152602001600260ff1660ff168152602001600460ff1660ff168152602001600860ff1660ff168152602001600f60ff1660ff168152602001601960ff1660ff168152602001602860ff1660ff168152602001603c60ff1660ff16815250600090600861008792919061009f565b50600260015534801561009957600080fd5b50610169565b826008601f016020900481019282156101285791602002820160005b838211156100f957835183826101000a81548160ff021916908360ff16021790555092602001926001016020816000010492830192600103026100bb565b80156101265782816101000a81549060ff02191690556001016020816000010492830192600103026100f9565b505b5090506101359190610139565b5090565b61016691905b8082111561016257600081816101000a81549060ff02191690555060010161013f565b5090565b90565b610274806101786000396000f300608060405260043610610062576000357c0100000000000000000000000000000000000000000000000000000000900463ffffffff1680637a7d4937146100675780639a3ff89e14610092578063bd69aa28146100d9578063e0f1193614610146575b600080fd5b34801561007357600080fd5b5061007c6101b3565b6040518082815260200191505060405180910390f35b34801561009e57600080fd5b506100bd600480360381019080803590602001909291905050506101b9565b604051808260ff1660ff16815260200191505060405180910390f35b3480156100e557600080fd5b50610104600480360381019080803590602001909291905050506101e2565b604051808273ffffffffffffffffffffffffffffffffffffffff1673ffffffffffffffffffffffffffffffffffffffff16815260200191505060405180910390f35b34801561015257600080fd5b5061017160048036038101908080359060200190929190505050610215565b604051808273ffffffffffffffffffffffffffffffffffffffff1673ffffffffffffffffffffffffffffffffffffffff16815260200191505060405180910390f35b60015481565b6000816008811015156101c857fe5b60209182820401919006915054906101000a900460ff1681565b60036020528060005260406000206000915054906101000a900473ffffffffffffffffffffffffffffffffffffffff1681565b60056020528060005260406000206000915054906101000a900473ffffffffffffffffffffffffffffffffffffffff16815600a165627a7a723058207d668e125a715579f2d5e08ad0d760ae617e82b7e22afabb2dfed383fe4eba120029",
  "source": "pragma solidity ^0.4.11;\n\n// import \"./SuccAccessControl.sol\";\n\n/// @title Base contract for CryptoSuccs. Holds all common structs, events and base variables.\n/// @author Axiom Zen (https://www.axiomzen.co)\n/// @dev See the SuccCore contract documentation to understand how the various contract facets are arranged.\ncontract SuccBase {\n    /*** EVENTS ***/\n\n    /// @dev The Sprout event is fired whenever a new pup comes into existence. This obviously\n    ///  includes any time a succulent is created through the giveSprout method, but it is also called\n    ///  when a new gen0 succulent is created.\n    event Sprout(\n        address owner,\n        uint256 succId,\n        uint256 matronId,\n        uint256 sireId,\n        uint256 genes\n    );\n\n    /// @dev Transfer event as defined in current draft of ERC721. Emitted every time a pup\n    ///  ownership is assigned, including sprouts.\n    event Transfer(address from, address to, uint256 tokenId);\n\n    /*** DATA TYPES ***/\n\n    /// @dev The main Succ struct. Every succulent in CryptoSuccs is represented by a copy\n    ///  of this structure, so great care was taken to ensure that it fits neatly into\n    ///  exactly two 256-bit words. Note that the order of the members in this structure\n    ///  is important because of the byte-packing rules used by Ethereum.\n    ///  Ref: http://solidity.readthedocs.io/en/develop/miscellaneous.html\n    struct Succ {\n        // The Succ's genetic code is packed into these 256-bits, the format is\n        // sooper-sekret! A succulent's genes never change.\n        uint256 genes;\n        // The timestamp from the block when this succulent came into existence.\n        uint64 sproutTime;\n        // // The minimum timestamp after which this succulent can engage in breeding\n        // // activities again. This same timestamp is used for the pregnancy\n        // // timer (for matrons) as well as the siring cooldown.\n        // uint64 cooldownEndBlock;\n\n        // The ID of the parents of this succ, set to 0 for gen0 succulents.\n        // Note that using 32-bit unsigned integers limits us to a \"mere\"\n        // 4 billion succulents. This number might seem small until you realize\n        // that Ethereum currently has a limit of about 500 million\n        // transactions per year! So, this definitely won't be a problem\n        // for several years (even as Ethereum learns to scale).\n        uint32 matronId;\n        uint32 sireId;\n        // // Set to the ID of the sire succulent for matrons that are pregnant,\n        // // zero otherwise. A non-zero value here is how we know a succulent\n        // // is pregnant. Used to retrieve the genetic material for the new\n        // // pup when the sprout transpires.\n        // uint32 siringWithId;\n\n        // // Set to the index in the cooldown array (see below) that represents\n        // // the current cooldown duration for this Succ. This starts at zero\n        // // for gen0 succulents, and is initialized to floor(generation/2) for others.\n        // // Incremented by one for each successful breeding action, regardless\n        // // of whether this succulent is acting as matron or sire.\n        // uint16 cooldownIndex;\n        // The \"generation number\" of this succulent. succulents minted by the CK contract\n        // for sale are called \"gen0\" and have a generation number of 0. The\n        // generation number of all other succulents is the larger of the two generation\n        // numbers of their parents, plus one.\n        // (i.e. max(matron.generation, sire.generation) + 1)\n        // uint16 generation;\n\n        uint32 potId;\n        uint8 timesWatered;\n        uint8 watersNeededIndex;\n        bool isBlooming;\n    }\n\n    /*** CONSTANTS ***/\n\n    // /// @dev A lookup table indisucculenting the cooldown duration after any successful\n    // ///  breeding action, called \"pregnancy time\" for matrons and \"siring cooldown\"\n    // ///  for sires. Designed such that the cooldown roughly doubles each time a succulent\n    // ///  is bred, encouraging owners not to just keep breeding the same succulent over\n    // ///  and over again. Caps out at one week (a succulent can breed an unbounded number\n    // ///  of times, and the maximum cooldown is always seven days).\n    // uint32[14] public cooldowns = [\n    //     uint32(1 minutes),\n    //     uint32(2 minutes),\n    //     uint32(5 minutes),\n    //     uint32(10 minutes),\n    //     uint32(30 minutes),\n    //     uint32(1 hours),\n    //     uint32(2 hours),\n    //     uint32(4 hours),\n    //     uint32(8 hours),\n    //     uint32(16 hours),\n    //     uint32(1 days),\n    //     uint32(2 days),\n    //     uint32(4 days),\n    //     uint32(7 days)\n    // ];\n\n    uint8[8] public watersNeeded = [\n        uint8(1),\n        uint8(2),\n        uint8(4),\n        uint8(8),\n        uint8(15),\n        uint8(25),\n        uint8(40),\n        uint8(60)\n    ];\n\n    // An approximation of currently how many seconds are in between blocks.\n    uint256 public secondsPerBlock = 2; // https://explorer-mumbai.maticvigil.com/\n\n    /*** STORAGE ***/\n\n    /// @dev An array containing the Succ struct for all Succs in existence. The ID\n    ///  of each succulent is actually an index into this array. Note that ID 0 is a negasucculent,\n    ///  the unSucc, the mythical beast that is the parent of all gen0 succulents. A bizarre\n    ///  creature that is both matron and sire... to itself! Has an invalid genetic code.\n    ///  In other words, succulent ID 0 is invalid... ;-)\n    Succ[] succs;\n\n    /// @dev A mapping from succulent IDs to the address that owns them. All succulents have\n    ///  some valid owner address, even gen0 succulents are created with a non-zero owner.\n    mapping(uint256 => address) public succIndexToOwner;\n\n    /// @dev A mapping from owner address to count of tokens that address owns.\n    ///  Used internally inside balanceOf() to resolve ownership count.\n    mapping(address => uint256) ownershipTokenCount;\n\n    /// @dev A mapping from SuccIDs to an address that has been approved to call\n    ///  transferFrom(). Each Succ can only have one approved address for transfer\n    ///  at any time. A zero value means no approval is outstanding.\n    mapping(uint256 => address) public succIndexToApproved;\n\n    // /// @dev A mapping from SuccIDs to an address that has been approved to use\n    // ///  this Succ for siring via breedWith(). Each Succ can only have one approved\n    // ///  address for siring at any time. A zero value means no approval is outstanding.\n    // mapping(uint256 => address) public sireAllowedToAddress;\n\n    // /// @dev The address of the ClockAuction contract that handles sales of Succs. This\n    // ///  same contract handles both peer-to-peer sales as well as the gen0 sales which are\n    // ///  initiated every 15 minutes.\n    // SaleClockAuction public saleAuction;\n\n    // /// @dev The address of a custom ClockAuction subclassed contract that handles siring\n    // ///  auctions. Needs to be separate from saleAuction because the actions taken on success\n    // ///  after a sales and siring auction are quite different.\n    // SiringClockAuction public siringAuction;\n\n    mapping(address => uint256) ownerToWaterOrbs;\n\n    /// @dev Assigns ownership of a specific Succ to an address.\n    function _transfer(\n        address _from,\n        address _to,\n        uint256 _tokenId\n    ) internal {\n        // Since the number of pups is capped to 2^32 we can't overflow this\n        ownershipTokenCount[_to]++;\n        // transfer ownership\n        succIndexToOwner[_tokenId] = _to;\n        // When creating new pups _from is 0x0, but we can't account that address.\n        if (_from != address(0)) {\n            ownershipTokenCount[_from]--;\n            // // once the pup is transferred also clear sire allowances\n            // delete sireAllowedToAddress[_tokenId];\n            // // clear any previously approved ownership exchange\n            // delete succIndexToApproved[_tokenId];\n        }\n        // Emit the transfer event.\n        emit Transfer(_from, _to, _tokenId);\n    }\n\n    /// @dev An internal method that creates a new succ and stores it. This\n    ///  method doesn't do any checking and should only be called when the\n    ///  input data is known to be valid. Will generate both a Sprout event\n    ///  and a Transfer event.\n    /// @param _matronId The succ ID of the matron of this succulent (zero for gen0)\n    /// @param _sireId The succ ID of the sire of this succulent (zero for gen0)\n    // / @param _generation The generation number of this succulent, must be computed by caller.\n    /// @param _genes The succ's genetic code.\n    /// @param _owner The inital owner of this succulent, must be non-zero (except for the unSucc, ID 0)\n    function _createSucc(\n        uint256 _matronId,\n        uint256 _sireId,\n        // uint256 _generation,\n        uint256 _genes,\n        address _owner\n    ) internal returns (uint256) {\n        // These requires are not strictly necessary, our calling code should make\n        // sure that these conditions are never broken. However! _createSucc() is already\n        // an expensive call (for storage), and it doesn't hurt to be especially careful\n        // to ensure our data structures are always valid.\n        require(_matronId == uint256(uint32(_matronId)));\n        require(_sireId == uint256(uint32(_sireId)));\n        // require(_generation == uint256(uint16(_generation)));\n\n        // New succ starts with the same cooldown as parent gen/2\n        uint8 watersNeededIndex = uint8(succs[_matronId].watersNeededIndex / 2);\n        // if (cooldownIndex > 8) {\n        //     cooldownIndex = 8;\n        // }\n\n        Succ memory _succ =\n            Succ({\n                genes: _genes,\n                sproutTime: uint64(now), // cooldownEndBlock: 0,\n                matronId: uint32(_matronId),\n                sireId: uint32(_sireId), // siringWithId: 0, // cooldownIndex: cooldownIndex, // generation: uint16(_generation)\n                potId: 0,\n                timesWatered: 0,\n                watersNeededIndex: watersNeededIndex,\n                isBlooming: false\n            });\n        uint256 newPupId = succs.push(_succ) - 1;\n\n        // It's probably never going to happen, 4 billion succulents is A LOT, but\n        // let's just be 100% sure we never let this happen.\n        require(newPupId == uint256(uint32(newPupId)));\n\n        // emit the sprout event\n        emit Sprout(\n            _owner,\n            newPupId,\n            uint256(_succ.matronId),\n            uint256(_succ.sireId),\n            _succ.genes\n        );\n\n        // This will assign ownership, and also emit the Transfer event as\n        // per ERC721 draft\n        _transfer(0, _owner, newPupId);\n\n        return newPupId;\n    }\n\n    // // Any C-level can fix how many seconds per blocks are currently observed.\n    // function setSecondsPerBlock(uint256 secs) external onlyCLevel {\n    //     require(secs < cooldowns[0]);\n    //     secondsPerBlock = secs;\n    // }\n}\n",
  "sourcePath": "/Users/ellenguo6/Hacks/crypto-succs/contracts/SuccBase.sol",
  "compiler": {
    "name": "solc",
    "version": "0.4.22+commit.4cb486ee.Emscripten.clang"
  },
  "schemaVersion": "3.4.1",
  "updatedAt": "2021-05-29T11:08:30.080Z",
  "devdoc": {
    "author": "Axiom Zen (https://www.axiomzen.co)",
    "methods": {},
    "title": "Base contract for CryptoSuccs. Holds all common structs, events and base variables."
  },
  "userdoc": {
    "methods": {}
  }
}