{
  "contractName": "SuccOwnership",
  "abi": [
    {
      "inputs": [
        {
          "internalType": "address",
          "name": "PotOwnership_",
          "type": "address"
        },
        {
          "internalType": "string",
          "name": "name_",
          "type": "string"
        },
        {
          "internalType": "string",
          "name": "symbol_",
          "type": "string"
        }
      ],
      "stateMutability": "nonpayable",
      "type": "constructor"
    },
    {
      "anonymous": false,
      "inputs": [
        {
          "indexed": true,
          "internalType": "address",
          "name": "owner",
          "type": "address"
        },
        {
          "indexed": true,
          "internalType": "address",
          "name": "approved",
          "type": "address"
        },
        {
          "indexed": true,
          "internalType": "uint256",
          "name": "tokenId",
          "type": "uint256"
        }
      ],
      "name": "Approval",
      "type": "event"
    },
    {
      "anonymous": false,
      "inputs": [
        {
          "indexed": true,
          "internalType": "address",
          "name": "owner",
          "type": "address"
        },
        {
          "indexed": true,
          "internalType": "address",
          "name": "operator",
          "type": "address"
        },
        {
          "indexed": false,
          "internalType": "bool",
          "name": "approved",
          "type": "bool"
        }
      ],
      "name": "ApprovalForAll",
      "type": "event"
    },
    {
      "anonymous": false,
      "inputs": [
        {
          "indexed": true,
          "internalType": "address",
          "name": "from",
          "type": "address"
        },
        {
          "indexed": true,
          "internalType": "address",
          "name": "to",
          "type": "address"
        },
        {
          "indexed": true,
          "internalType": "uint256",
          "name": "tokenId",
          "type": "uint256"
        }
      ],
      "name": "Transfer",
      "type": "event"
    },
    {
      "anonymous": false,
      "inputs": [
        {
          "indexed": false,
          "internalType": "address",
          "name": "owner",
          "type": "address"
        },
        {
          "indexed": false,
          "internalType": "uint256",
          "name": "succId",
          "type": "uint256"
        },
        {
          "indexed": false,
          "internalType": "uint256",
          "name": "parent1Id",
          "type": "uint256"
        },
        {
          "indexed": false,
          "internalType": "uint256",
          "name": "parent2Id",
          "type": "uint256"
        },
        {
          "indexed": false,
          "internalType": "uint256",
          "name": "genes",
          "type": "uint256"
        }
      ],
      "name": "newSucc",
      "type": "event"
    },
    {
      "inputs": [
        {
          "internalType": "address",
          "name": "to",
          "type": "address"
        },
        {
          "internalType": "uint256",
          "name": "tokenId",
          "type": "uint256"
        }
      ],
      "name": "approve",
      "outputs": [],
      "stateMutability": "nonpayable",
      "type": "function"
    },
    {
      "inputs": [
        {
          "internalType": "address",
          "name": "owner",
          "type": "address"
        }
      ],
      "name": "balanceOf",
      "outputs": [
        {
          "internalType": "uint256",
          "name": "",
          "type": "uint256"
        }
      ],
      "stateMutability": "view",
      "type": "function",
      "constant": true
    },
    {
      "inputs": [
        {
          "internalType": "uint256",
          "name": "tokenId",
          "type": "uint256"
        }
      ],
      "name": "getApproved",
      "outputs": [
        {
          "internalType": "address",
          "name": "",
          "type": "address"
        }
      ],
      "stateMutability": "view",
      "type": "function",
      "constant": true
    },
    {
      "inputs": [
        {
          "internalType": "address",
          "name": "owner",
          "type": "address"
        },
        {
          "internalType": "address",
          "name": "operator",
          "type": "address"
        }
      ],
      "name": "isApprovedForAll",
      "outputs": [
        {
          "internalType": "bool",
          "name": "",
          "type": "bool"
        }
      ],
      "stateMutability": "view",
      "type": "function",
      "constant": true
    },
    {
      "inputs": [],
      "name": "name",
      "outputs": [
        {
          "internalType": "string",
          "name": "",
          "type": "string"
        }
      ],
      "stateMutability": "view",
      "type": "function",
      "constant": true
    },
    {
      "inputs": [
        {
          "internalType": "uint256",
          "name": "tokenId",
          "type": "uint256"
        }
      ],
      "name": "ownerOf",
      "outputs": [
        {
          "internalType": "address",
          "name": "",
          "type": "address"
        }
      ],
      "stateMutability": "view",
      "type": "function",
      "constant": true
    },
    {
      "inputs": [
        {
          "internalType": "address",
          "name": "from",
          "type": "address"
        },
        {
          "internalType": "address",
          "name": "to",
          "type": "address"
        },
        {
          "internalType": "uint256",
          "name": "tokenId",
          "type": "uint256"
        }
      ],
      "name": "safeTransferFrom",
      "outputs": [],
      "stateMutability": "nonpayable",
      "type": "function"
    },
    {
      "inputs": [
        {
          "internalType": "address",
          "name": "from",
          "type": "address"
        },
        {
          "internalType": "address",
          "name": "to",
          "type": "address"
        },
        {
          "internalType": "uint256",
          "name": "tokenId",
          "type": "uint256"
        },
        {
          "internalType": "bytes",
          "name": "_data",
          "type": "bytes"
        }
      ],
      "name": "safeTransferFrom",
      "outputs": [],
      "stateMutability": "nonpayable",
      "type": "function"
    },
    {
      "inputs": [
        {
          "internalType": "address",
          "name": "operator",
          "type": "address"
        },
        {
          "internalType": "bool",
          "name": "approved",
          "type": "bool"
        }
      ],
      "name": "setApprovalForAll",
      "outputs": [],
      "stateMutability": "nonpayable",
      "type": "function"
    },
    {
      "inputs": [
        {
          "internalType": "bytes4",
          "name": "interfaceId",
          "type": "bytes4"
        }
      ],
      "name": "supportsInterface",
      "outputs": [
        {
          "internalType": "bool",
          "name": "",
          "type": "bool"
        }
      ],
      "stateMutability": "view",
      "type": "function",
      "constant": true
    },
    {
      "inputs": [],
      "name": "symbol",
      "outputs": [
        {
          "internalType": "string",
          "name": "",
          "type": "string"
        }
      ],
      "stateMutability": "view",
      "type": "function",
      "constant": true
    },
    {
      "inputs": [
        {
          "internalType": "uint256",
          "name": "tokenId",
          "type": "uint256"
        }
      ],
      "name": "tokenURI",
      "outputs": [
        {
          "internalType": "string",
          "name": "",
          "type": "string"
        }
      ],
      "stateMutability": "view",
      "type": "function",
      "constant": true
    },
    {
      "inputs": [
        {
          "internalType": "address",
          "name": "from",
          "type": "address"
        },
        {
          "internalType": "address",
          "name": "to",
          "type": "address"
        },
        {
          "internalType": "uint256",
          "name": "tokenId",
          "type": "uint256"
        }
      ],
      "name": "transferFrom",
      "outputs": [],
      "stateMutability": "nonpayable",
      "type": "function"
    },
    {
      "inputs": [
        {
          "internalType": "uint256",
          "name": "",
          "type": "uint256"
        }
      ],
      "name": "watersNeeded",
      "outputs": [
        {
          "internalType": "uint8",
          "name": "",
          "type": "uint8"
        }
      ],
      "stateMutability": "view",
      "type": "function",
      "constant": true
    },
    {
      "inputs": [
        {
          "internalType": "uint256",
          "name": "_genes",
          "type": "uint256"
        },
        {
          "internalType": "uint256",
          "name": "_price",
          "type": "uint256"
        }
      ],
      "name": "buySucc",
      "outputs": [
        {
          "internalType": "uint256",
          "name": "",
          "type": "uint256"
        }
      ],
      "stateMutability": "payable",
      "type": "function",
      "payable": true
    },
    {
      "inputs": [
        {
          "internalType": "address",
          "name": "_owner",
          "type": "address"
        }
      ],
      "name": "succsOfOwner",
      "outputs": [
        {
          "internalType": "uint256[]",
          "name": "ownerTokens",
          "type": "uint256[]"
        }
      ],
      "stateMutability": "view",
      "type": "function",
      "constant": true
    },
    {
      "inputs": [
        {
          "internalType": "uint256",
          "name": "_succId",
          "type": "uint256"
        },
        {
          "internalType": "uint256",
          "name": "_potId",
          "type": "uint256"
        }
      ],
      "name": "putSuccInPot",
      "outputs": [
        {
          "internalType": "bool",
          "name": "",
          "type": "bool"
        }
      ],
      "stateMutability": "nonpayable",
      "type": "function"
    },
    {
      "inputs": [
        {
          "internalType": "uint256",
          "name": "_succId",
          "type": "uint256"
        }
      ],
      "name": "getSuccInfo",
      "outputs": [
        {
          "internalType": "uint256",
          "name": "genes",
          "type": "uint256"
        },
        {
          "internalType": "uint256",
          "name": "sproutTime",
          "type": "uint256"
        },
        {
          "internalType": "uint256",
          "name": "potId",
          "type": "uint256"
        },
        {
          "internalType": "uint256",
          "name": "timesWatered",
          "type": "uint256"
        },
        {
          "internalType": "uint256",
          "name": "watersNeededIndex",
          "type": "uint256"
        },
        {
          "internalType": "bool",
          "name": "isBlooming",
          "type": "bool"
        }
      ],
      "stateMutability": "view",
      "type": "function",
      "constant": true
    },
    {
      "inputs": [
        {
          "internalType": "uint256",
          "name": "_succId",
          "type": "uint256"
        }
      ],
      "name": "getSuccAge",
      "outputs": [
        {
          "internalType": "uint256",
          "name": "",
          "type": "uint256"
        }
      ],
      "stateMutability": "view",
      "type": "function",
      "constant": true
    }
  ],
  "bytecode": "0x6080604052604051806101000160405280600160ff1660ff168152602001600260ff1660ff168152602001600460ff1660ff168152602001600860ff1660ff168152602001600f60ff1660ff168152602001601960ff1660ff168152602001602860ff1660ff168152602001603c60ff1660ff16815250600690600862000088929190620001af565b503480156200009657600080fd5b5060405162003ba238038062003ba28339818101604052810190620000bc919062000389565b81818160009080519060200190620000d692919062000250565b508060019080519060200190620000ef92919062000250565b505050600073ffffffffffffffffffffffffffffffffffffffff168373ffffffffffffffffffffffffffffffffffffffff16141562000165576040517f08c379a00000000000000000000000000000000000000000000000000000000081526004016200015c9062000479565b60405180910390fd5b82600960006101000a81548173ffffffffffffffffffffffffffffffffffffffff021916908373ffffffffffffffffffffffffffffffffffffffff1602179055505050506200062b565b826008601f016020900481019282156200023d5791602002820160005b838211156200020c57835183826101000a81548160ff021916908360ff1602179055509260200192600101602081600001049283019260010302620001cc565b80156200023b5782816101000a81549060ff02191690556001016020816000010492830192600103026200020c565b505b5090506200024c9190620002e1565b5090565b8280546200025e906200057d565b90600052602060002090601f016020900481019282620002825760008555620002ce565b82601f106200029d57805160ff1916838001178555620002ce565b82800160010185558215620002ce579182015b82811115620002cd578251825591602001919060010190620002b0565b5b509050620002dd9190620002e1565b5090565b5b80821115620002fc576000816000905550600101620002e2565b5090565b6000620003176200031184620004cf565b6200049b565b9050828152602081018484840111156200033057600080fd5b6200033d84828562000547565b509392505050565b600081519050620003568162000611565b92915050565b600082601f8301126200036e57600080fd5b81516200038084826020860162000300565b91505092915050565b6000806000606084860312156200039f57600080fd5b6000620003af8682870162000345565b935050602084015167ffffffffffffffff811115620003cd57600080fd5b620003db868287016200035c565b925050604084015167ffffffffffffffff811115620003f957600080fd5b62000407868287016200035c565b9150509250925092565b60006200042060218362000502565b91507f506f744f776e65727368697020636f6e74726163742063616e6e6f742062652060008301527f30000000000000000000000000000000000000000000000000000000000000006020830152604082019050919050565b60006020820190508181036000830152620004948162000411565b9050919050565b6000604051905081810181811067ffffffffffffffff82111715620004c557620004c4620005e2565b5b8060405250919050565b600067ffffffffffffffff821115620004ed57620004ec620005e2565b5b601f19601f8301169050602081019050919050565b600082825260208201905092915050565b6000620005208262000527565b9050919050565b600073ffffffffffffffffffffffffffffffffffffffff82169050919050565b60005b83811015620005675780820151818401526020810190506200054a565b8381111562000577576000848401525b50505050565b600060028204905060018216806200059657607f821691505b60208210811415620005ad57620005ac620005b3565b5b50919050565b7f4e487b7100000000000000000000000000000000000000000000000000000000600052602260045260246000fd5b7f4e487b7100000000000000000000000000000000000000000000000000000000600052604160045260246000fd5b6200061c8162000513565b81146200062857600080fd5b50565b613567806200063b6000396000f3fe6080604052600436106101145760003560e01c80635fd9ce03116100a05780639a3ff89e116100645780639a3ff89e14610407578063a22cb46514610444578063b88d4fde1461046d578063c87b56dd14610496578063e985e9c5146104d357610114565b80635fd9ce03146102f55780636352211e1461032557806370a082311461036257806395d89b411461039f57806399dba903146103ca57610114565b80631481c37e116100e75780631481c37e146101e757806323b872dd14610224578063277608cd1461024d57806342842e0e1461028a5780634caea647146102b357610114565b806301ffc9a71461011957806306fdde0314610156578063081812fc14610181578063095ea7b3146101be575b600080fd5b34801561012557600080fd5b50610140600480360381019061013b9190612490565b610510565b60405161014d9190612db3565b60405180910390f35b34801561016257600080fd5b5061016b6105f2565b6040516101789190612dce565b60405180910390f35b34801561018d57600080fd5b506101a860048036038101906101a391906124e2565b610684565b6040516101b59190612cd7565b60405180910390f35b3480156101ca57600080fd5b506101e560048036038101906101e0919061242b565b610709565b005b3480156101f357600080fd5b5061020e60048036038101906102099190612297565b610821565b60405161021b9190612d91565b60405180910390f35b34801561023057600080fd5b5061024b60048036038101906102469190612325565b6109fb565b005b34801561025957600080fd5b50610274600480360381019061026f91906124e2565b610a5b565b6040516102819190613010565b60405180910390f35b34801561029657600080fd5b506102b160048036038101906102ac9190612325565b610ad9565b005b3480156102bf57600080fd5b506102da60048036038101906102d591906124e2565b610af9565b6040516102ec96959493929190613054565b60405180910390f35b61030f600480360381019061030a919061250b565b610c5a565b60405161031c9190613010565b60405180910390f35b34801561033157600080fd5b5061034c600480360381019061034791906124e2565b610cb3565b6040516103599190612cd7565b60405180910390f35b34801561036e57600080fd5b5061038960048036038101906103849190612297565b610d65565b6040516103969190613010565b60405180910390f35b3480156103ab57600080fd5b506103b4610e1d565b6040516103c19190612dce565b60405180910390f35b3480156103d657600080fd5b506103f160048036038101906103ec919061250b565b610eaf565b6040516103fe9190612db3565b60405180910390f35b34801561041357600080fd5b5061042e600480360381019061042991906124e2565b611160565b60405161043b91906130b5565b60405180910390f35b34801561045057600080fd5b5061046b600480360381019061046691906123ef565b61118a565b005b34801561047957600080fd5b50610494600480360381019061048f9190612374565b61130b565b005b3480156104a257600080fd5b506104bd60048036038101906104b891906124e2565b61136d565b6040516104ca9190612dce565b60405180910390f35b3480156104df57600080fd5b506104fa60048036038101906104f591906122e9565b611414565b6040516105079190612db3565b60405180910390f35b60007f80ac58cd000000000000000000000000000000000000000000000000000000007bffffffffffffffffffffffffffffffffffffffffffffffffffffffff1916827bffffffffffffffffffffffffffffffffffffffffffffffffffffffff191614806105db57507f5b5e139f000000000000000000000000000000000000000000000000000000007bffffffffffffffffffffffffffffffffffffffffffffffffffffffff1916827bffffffffffffffffffffffffffffffffffffffffffffffffffffffff1916145b806105eb57506105ea826114a8565b5b9050919050565b6060600080546106019061335c565b80601f016020809104026020016040519081016040528092919081815260200182805461062d9061335c565b801561067a5780601f1061064f5761010080835404028352916020019161067a565b820191906000526020600020905b81548152906001019060200180831161065d57829003601f168201915b5050505050905090565b600061068f82611512565b6106ce576040517f08c379a00000000000000000000000000000000000000000000000000000000081526004016106c590612f30565b60405180910390fd5b6004600083815260200190815260200160002060009054906101000a900473ffffffffffffffffffffffffffffffffffffffff169050919050565b600061071482610cb3565b90508073ffffffffffffffffffffffffffffffffffffffff168373ffffffffffffffffffffffffffffffffffffffff161415610785576040517f08c379a000000000000000000000000000000000000000000000000000000000815260040161077c90612fb0565b60405180910390fd5b8073ffffffffffffffffffffffffffffffffffffffff166107a461157e565b73ffffffffffffffffffffffffffffffffffffffff1614806107d357506107d2816107cd61157e565b611414565b5b610812576040517f08c379a000000000000000000000000000000000000000000000000000000000815260040161080990612eb0565b60405180910390fd5b61081c8383611586565b505050565b6060600061082e83610d65565b905060008114156108b157600067ffffffffffffffff81111561087a577f4e487b7100000000000000000000000000000000000000000000000000000000600052604160045260246000fd5b6040519080825280602002602001820160405280156108a85781602001602082028036833780820191505090505b509150506109f6565b60008167ffffffffffffffff8111156108f3577f4e487b7100000000000000000000000000000000000000000000000000000000600052604160045260246000fd5b6040519080825280602002602001820160405280156109215781602001602082028036833780820191505090505b509050600060016007805490506109389190613265565b9050600080600190505b8281116109ed578673ffffffffffffffffffffffffffffffffffffffff1661096982610cb3565b73ffffffffffffffffffffffffffffffffffffffff1614156109da57808483815181106109bf577f4e487b7100000000000000000000000000000000000000000000000000000000600052603260045260246000fd5b60200260200101818152505081806109d69061338e565b9250505b80806109e59061338e565b915050610942565b83955050505050505b919050565b610a0c610a0661157e565b8261163f565b610a4b576040517f08c379a0000000000000000000000000000000000000000000000000000000008152600401610a4290612fd0565b60405180910390fd5b610a5683838361171d565b505050565b600060078281548110610a97577f4e487b7100000000000000000000000000000000000000000000000000000000600052603260045260246000fd5b906000526020600020906002020160010160009054906101000a900467ffffffffffffffff1667ffffffffffffffff1642610ad29190613265565b9050919050565b610af48383836040518060200160405280600081525061130b565b505050565b600080600080600080600060078881548110610b3e577f4e487b7100000000000000000000000000000000000000000000000000000000600052603260045260246000fd5b90600052602060002090600202016040518060c0016040529081600082015481526020016001820160009054906101000a900467ffffffffffffffff1667ffffffffffffffff1667ffffffffffffffff1681526020016001820160089054906101000a900463ffffffff1663ffffffff1663ffffffff16815260200160018201600c9054906101000a900460ff1660ff1660ff16815260200160018201600d9054906101000a900460ff1660ff1660ff16815260200160018201600e9054906101000a900460ff161515151581525050905080600001519650806020015167ffffffffffffffff169550806040015163ffffffff169450806060015160ff169350806080015160ff1692508060a0015191505091939550919395565b6000813414610c9e576040517f08c379a0000000000000000000000000000000000000000000000000000000008152600401610c9590612e10565b60405180910390fd5b610cab6000808533611979565b905092915050565b6000806002600084815260200190815260200160002060009054906101000a900473ffffffffffffffffffffffffffffffffffffffff169050600073ffffffffffffffffffffffffffffffffffffffff168173ffffffffffffffffffffffffffffffffffffffff161415610d5c576040517f08c379a0000000000000000000000000000000000000000000000000000000008152600401610d5390612ef0565b60405180910390fd5b80915050919050565b60008073ffffffffffffffffffffffffffffffffffffffff168273ffffffffffffffffffffffffffffffffffffffff161415610dd6576040517f08c379a0000000000000000000000000000000000000000000000000000000008152600401610dcd90612ed0565b60405180910390fd5b600360008373ffffffffffffffffffffffffffffffffffffffff1673ffffffffffffffffffffffffffffffffffffffff168152602001908152602001600020549050919050565b606060018054610e2c9061335c565b80601f0160208091040260200160405190810160405280929190818152602001828054610e589061335c565b8015610ea55780601f10610e7a57610100808354040283529160200191610ea5565b820191906000526020600020905b815481529060010190602001808311610e8857829003601f168201915b5050505050905090565b60003373ffffffffffffffffffffffffffffffffffffffff16610ed184610cb3565b73ffffffffffffffffffffffffffffffffffffffff1614610f27576040517f08c379a0000000000000000000000000000000000000000000000000000000008152600401610f1e90612f50565b60405180910390fd5b3373ffffffffffffffffffffffffffffffffffffffff16600960009054906101000a900473ffffffffffffffffffffffffffffffffffffffff1673ffffffffffffffffffffffffffffffffffffffff16636352211e846040518263ffffffff1660e01b8152600401610f999190613010565b60206040518083038186803b158015610fb157600080fd5b505afa158015610fc5573d6000803e3d6000fd5b505050506040513d601f19601f82011682018060405250810190610fe991906122c0565b73ffffffffffffffffffffffffffffffffffffffff161461103f576040517f08c379a000000000000000000000000000000000000000000000000000000000815260040161103690612ff0565b60405180910390fd5b816007848154811061107a577f4e487b7100000000000000000000000000000000000000000000000000000000600052603260045260246000fd5b906000526020600020906002020160010160086101000a81548163ffffffff021916908363ffffffff160217905550600960009054906101000a900473ffffffffffffffffffffffffffffffffffffffff1673ffffffffffffffffffffffffffffffffffffffff1663993cbf6983856040518363ffffffff1660e01b815260040161110692919061302b565b602060405180830381600087803b15801561112057600080fd5b505af1158015611134573d6000803e3d6000fd5b505050506040513d601f19601f820116820180604052508101906111589190612467565b905092915050565b6006816008811061117057600080fd5b60209182820401919006915054906101000a900460ff1681565b61119261157e565b73ffffffffffffffffffffffffffffffffffffffff168273ffffffffffffffffffffffffffffffffffffffff161415611200576040517f08c379a00000000000000000000000000000000000000000000000000000000081526004016111f790612e70565b60405180910390fd5b806005600061120d61157e565b73ffffffffffffffffffffffffffffffffffffffff1673ffffffffffffffffffffffffffffffffffffffff16815260200190815260200160002060008473ffffffffffffffffffffffffffffffffffffffff1673ffffffffffffffffffffffffffffffffffffffff16815260200190815260200160002060006101000a81548160ff0219169083151502179055508173ffffffffffffffffffffffffffffffffffffffff166112ba61157e565b73ffffffffffffffffffffffffffffffffffffffff167f17307eab39ab6107e8899845ad3d59bd9653f200f220920489ca2b5937696c31836040516112ff9190612db3565b60405180910390a35050565b61131c61131661157e565b8361163f565b61135b576040517f08c379a000000000000000000000000000000000000000000000000000000000815260040161135290612fd0565b60405180910390fd5b61136784848484611b86565b50505050565b606061137882611512565b6113b7576040517f08c379a00000000000000000000000000000000000000000000000000000000081526004016113ae90612f90565b60405180910390fd5b60006113c1611be2565b905060008151116113e1576040518060200160405280600081525061140c565b806113eb84611bf9565b6040516020016113fc929190612cb3565b6040516020818303038152906040525b915050919050565b6000600560008473ffffffffffffffffffffffffffffffffffffffff1673ffffffffffffffffffffffffffffffffffffffff16815260200190815260200160002060008373ffffffffffffffffffffffffffffffffffffffff1673ffffffffffffffffffffffffffffffffffffffff16815260200190815260200160002060009054906101000a900460ff16905092915050565b60007f01ffc9a7000000000000000000000000000000000000000000000000000000007bffffffffffffffffffffffffffffffffffffffffffffffffffffffff1916827bffffffffffffffffffffffffffffffffffffffffffffffffffffffff1916149050919050565b60008073ffffffffffffffffffffffffffffffffffffffff166002600084815260200190815260200160002060009054906101000a900473ffffffffffffffffffffffffffffffffffffffff1673ffffffffffffffffffffffffffffffffffffffff1614159050919050565b600033905090565b816004600083815260200190815260200160002060006101000a81548173ffffffffffffffffffffffffffffffffffffffff021916908373ffffffffffffffffffffffffffffffffffffffff160217905550808273ffffffffffffffffffffffffffffffffffffffff166115f983610cb3565b73ffffffffffffffffffffffffffffffffffffffff167f8c5be1e5ebec7d5bd14f71427d1e84f3dd0314c0f7b2291e5b200ac8c7c3b92560405160405180910390a45050565b600061164a82611512565b611689576040517f08c379a000000000000000000000000000000000000000000000000000000000815260040161168090612e90565b60405180910390fd5b600061169483610cb3565b90508073ffffffffffffffffffffffffffffffffffffffff168473ffffffffffffffffffffffffffffffffffffffff16148061170357508373ffffffffffffffffffffffffffffffffffffffff166116eb84610684565b73ffffffffffffffffffffffffffffffffffffffff16145b8061171457506117138185611414565b5b91505092915050565b8273ffffffffffffffffffffffffffffffffffffffff1661173d82610cb3565b73ffffffffffffffffffffffffffffffffffffffff1614611793576040517f08c379a000000000000000000000000000000000000000000000000000000000815260040161178a90612f70565b60405180910390fd5b600073ffffffffffffffffffffffffffffffffffffffff168273ffffffffffffffffffffffffffffffffffffffff161415611803576040517f08c379a00000000000000000000000000000000000000000000000000000000081526004016117fa90612e50565b60405180910390fd5b61180e838383611da6565b611819600082611586565b6001600360008573ffffffffffffffffffffffffffffffffffffffff1673ffffffffffffffffffffffffffffffffffffffff16815260200190815260200160002060008282546118699190613265565b925050819055506001600360008473ffffffffffffffffffffffffffffffffffffffff1673ffffffffffffffffffffffffffffffffffffffff16815260200190815260200160002060008282546118c091906131ad565b92505081905550816002600083815260200190815260200160002060006101000a81548173ffffffffffffffffffffffffffffffffffffffff021916908373ffffffffffffffffffffffffffffffffffffffff160217905550808273ffffffffffffffffffffffffffffffffffffffff168473ffffffffffffffffffffffffffffffffffffffff167fddf252ad1be2c89b69c2b068fc378daa952ba7f163c4a11628f55a4df523b3ef60405160405180910390a4505050565b6000806002600787815481106119b8577f4e487b7100000000000000000000000000000000000000000000000000000000600052603260045260246000fd5b9060005260206000209060020201600101600d9054906101000a900460ff166119e19190613234565b905060076040518060c001604052808681526020014267ffffffffffffffff168152602001600063ffffffff168152602001600060ff1681526020018360ff1681526020016000151581525090806001815401808255809150506001900390600052602060002090600202016000909190919091506000820151816000015560208201518160010160006101000a81548167ffffffffffffffff021916908367ffffffffffffffff16021790555060408201518160010160086101000a81548163ffffffff021916908363ffffffff160217905550606082015181600101600c6101000a81548160ff021916908360ff160217905550608082015181600101600d6101000a81548160ff021916908360ff16021790555060a082015181600101600e6101000a81548160ff021916908315150217905550505060006001600780549050611b2e9190613265565b9050611b3a8482611dab565b7feecb12278ac480113175d528cc5d2742a52d8ac03232f9fbe587411e2c7b62b68482898989604051611b71959493929190612d3e565b60405180910390a18092505050949350505050565b611b9184848461171d565b611b9d84848484611dc9565b611bdc576040517f08c379a0000000000000000000000000000000000000000000000000000000008152600401611bd390612df0565b60405180910390fd5b50505050565b606060405180602001604052806000815250905090565b60606000821415611c41576040518060400160405280600181526020017f30000000000000000000000000000000000000000000000000000000000000008152509050611da1565b600082905060005b60008214611c73578080611c5c9061338e565b915050600a82611c6c9190613203565b9150611c49565b60008167ffffffffffffffff811115611cb5577f4e487b7100000000000000000000000000000000000000000000000000000000600052604160045260246000fd5b6040519080825280601f01601f191660200182016040528015611ce75781602001600182028036833780820191505090505b5090505b60008514611d9a57600182611d009190613265565b9150600a85611d0f91906133d7565b6030611d1b91906131ad565b60f81b818381518110611d57577f4e487b7100000000000000000000000000000000000000000000000000000000600052603260045260246000fd5b60200101907effffffffffffffffffffffffffffffffffffffffffffffffffffffffffffff1916908160001a905350600a85611d939190613203565b9450611ceb565b8093505050505b919050565b505050565b611dc5828260405180602001604052806000815250611f60565b5050565b6000611dea8473ffffffffffffffffffffffffffffffffffffffff16611fbb565b15611f53578373ffffffffffffffffffffffffffffffffffffffff1663150b7a02611e1361157e565b8786866040518563ffffffff1660e01b8152600401611e359493929190612cf2565b602060405180830381600087803b158015611e4f57600080fd5b505af1925050508015611e8057506040513d601f19601f82011682018060405250810190611e7d91906124b9565b60015b611f03573d8060008114611eb0576040519150601f19603f3d011682016040523d82523d6000602084013e611eb5565b606091505b50600081511415611efb576040517f08c379a0000000000000000000000000000000000000000000000000000000008152600401611ef290612df0565b60405180910390fd5b805181602001fd5b63150b7a0260e01b7bffffffffffffffffffffffffffffffffffffffffffffffffffffffff1916817bffffffffffffffffffffffffffffffffffffffffffffffffffffffff191614915050611f58565b600190505b949350505050565b611f6a8383611fce565b611f776000848484611dc9565b611fb6576040517f08c379a0000000000000000000000000000000000000000000000000000000008152600401611fad90612df0565b60405180910390fd5b505050565b600080823b905060008111915050919050565b600073ffffffffffffffffffffffffffffffffffffffff168273ffffffffffffffffffffffffffffffffffffffff16141561203e576040517f08c379a000000000000000000000000000000000000000000000000000000000815260040161203590612f10565b60405180910390fd5b61204781611512565b15612087576040517f08c379a000000000000000000000000000000000000000000000000000000000815260040161207e90612e30565b60405180910390fd5b61209360008383611da6565b6001600360008473ffffffffffffffffffffffffffffffffffffffff1673ffffffffffffffffffffffffffffffffffffffff16815260200190815260200160002060008282546120e391906131ad565b92505081905550816002600083815260200190815260200160002060006101000a81548173ffffffffffffffffffffffffffffffffffffffff021916908373ffffffffffffffffffffffffffffffffffffffff160217905550808273ffffffffffffffffffffffffffffffffffffffff16600073ffffffffffffffffffffffffffffffffffffffff167fddf252ad1be2c89b69c2b068fc378daa952ba7f163c4a11628f55a4df523b3ef60405160405180910390a45050565b60006121af6121aa84613101565b6130d0565b9050828152602081018484840111156121c757600080fd5b6121d284828561331a565b509392505050565b6000813590506121e9816134d5565b92915050565b6000815190506121fe816134d5565b92915050565b600081359050612213816134ec565b92915050565b600081519050612228816134ec565b92915050565b60008135905061223d81613503565b92915050565b60008151905061225281613503565b92915050565b600082601f83011261226957600080fd5b813561227984826020860161219c565b91505092915050565b6000813590506122918161351a565b92915050565b6000602082840312156122a957600080fd5b60006122b7848285016121da565b91505092915050565b6000602082840312156122d257600080fd5b60006122e0848285016121ef565b91505092915050565b600080604083850312156122fc57600080fd5b600061230a858286016121da565b925050602061231b858286016121da565b9150509250929050565b60008060006060848603121561233a57600080fd5b6000612348868287016121da565b9350506020612359868287016121da565b925050604061236a86828701612282565b9150509250925092565b6000806000806080858703121561238a57600080fd5b6000612398878288016121da565b94505060206123a9878288016121da565b93505060406123ba87828801612282565b925050606085013567ffffffffffffffff8111156123d757600080fd5b6123e387828801612258565b91505092959194509250565b6000806040838503121561240257600080fd5b6000612410858286016121da565b925050602061242185828601612204565b9150509250929050565b6000806040838503121561243e57600080fd5b600061244c858286016121da565b925050602061245d85828601612282565b9150509250929050565b60006020828403121561247957600080fd5b600061248784828501612219565b91505092915050565b6000602082840312156124a257600080fd5b60006124b08482850161222e565b91505092915050565b6000602082840312156124cb57600080fd5b60006124d984828501612243565b91505092915050565b6000602082840312156124f457600080fd5b600061250284828501612282565b91505092915050565b6000806040838503121561251e57600080fd5b600061252c85828601612282565b925050602061253d85828601612282565b9150509250929050565b60006125538383612c86565b60208301905092915050565b61256881613299565b82525050565b600061257982613141565b612583818561316f565b935061258e83613131565b8060005b838110156125bf5781516125a68882612547565b97506125b183613162565b925050600181019050612592565b5085935050505092915050565b6125d5816132ab565b82525050565b60006125e68261314c565b6125f08185613180565b9350612600818560208601613329565b612609816134c4565b840191505092915050565b600061261f82613157565b6126298185613191565b9350612639818560208601613329565b612642816134c4565b840191505092915050565b600061265882613157565b61266281856131a2565b9350612672818560208601613329565b80840191505092915050565b600061268b603283613191565b91507f4552433732313a207472616e7366657220746f206e6f6e20455243373231526560008301527f63656976657220696d706c656d656e74657200000000000000000000000000006020830152604082019050919050565b60006126f1601e83613191565b91507f57726f6e67207072696365207061696420666f722073756363756c656e7400006000830152602082019050919050565b6000612731601c83613191565b91507f4552433732313a20746f6b656e20616c7265616479206d696e746564000000006000830152602082019050919050565b6000612771602483613191565b91507f4552433732313a207472616e7366657220746f20746865207a65726f2061646460008301527f72657373000000000000000000000000000000000000000000000000000000006020830152604082019050919050565b60006127d7601983613191565b91507f4552433732313a20617070726f766520746f2063616c6c6572000000000000006000830152602082019050919050565b6000612817602c83613191565b91507f4552433732313a206f70657261746f7220717565727920666f72206e6f6e657860008301527f697374656e7420746f6b656e00000000000000000000000000000000000000006020830152604082019050919050565b600061287d603883613191565b91507f4552433732313a20617070726f76652063616c6c6572206973206e6f74206f7760008301527f6e6572206e6f7220617070726f76656420666f7220616c6c00000000000000006020830152604082019050919050565b60006128e3602a83613191565b91507f4552433732313a2062616c616e636520717565727920666f7220746865207a6560008301527f726f2061646472657373000000000000000000000000000000000000000000006020830152604082019050919050565b6000612949602983613191565b91507f4552433732313a206f776e657220717565727920666f72206e6f6e657869737460008301527f656e7420746f6b656e00000000000000000000000000000000000000000000006020830152604082019050919050565b60006129af602083613191565b91507f4552433732313a206d696e7420746f20746865207a65726f20616464726573736000830152602082019050919050565b60006129ef602c83613191565b91507f4552433732313a20617070726f76656420717565727920666f72206e6f6e657860008301527f697374656e7420746f6b656e00000000000000000000000000000000000000006020830152604082019050919050565b6000612a55602683613191565b91507f6d73672e73656e64657220646f6573206e6f74206f776e20746869732073756360008301527f63756c656e7400000000000000000000000000000000000000000000000000006020830152604082019050919050565b6000612abb602983613191565b91507f4552433732313a207472616e73666572206f6620746f6b656e2074686174206960008301527f73206e6f74206f776e00000000000000000000000000000000000000000000006020830152604082019050919050565b6000612b21602f83613191565b91507f4552433732314d657461646174613a2055524920717565727920666f72206e6f60008301527f6e6578697374656e7420746f6b656e00000000000000000000000000000000006020830152604082019050919050565b6000612b87602183613191565b91507f4552433732313a20617070726f76616c20746f2063757272656e74206f776e6560008301527f72000000000000000000000000000000000000000000000000000000000000006020830152604082019050919050565b6000612bed603183613191565b91507f4552433732313a207472616e736665722063616c6c6572206973206e6f74206f60008301527f776e6572206e6f7220617070726f7665640000000000000000000000000000006020830152604082019050919050565b6000612c53602083613191565b91507f6d73672e73656e64657220646f6573206e6f74206f776e207468697320706f746000830152602082019050919050565b612c8f81613303565b82525050565b612c9e81613303565b82525050565b612cad8161330d565b82525050565b6000612cbf828561264d565b9150612ccb828461264d565b91508190509392505050565b6000602082019050612cec600083018461255f565b92915050565b6000608082019050612d07600083018761255f565b612d14602083018661255f565b612d216040830185612c95565b8181036060830152612d3381846125db565b905095945050505050565b600060a082019050612d53600083018861255f565b612d606020830187612c95565b612d6d6040830186612c95565b612d7a6060830185612c95565b612d876080830184612c95565b9695505050505050565b60006020820190508181036000830152612dab818461256e565b905092915050565b6000602082019050612dc860008301846125cc565b92915050565b60006020820190508181036000830152612de88184612614565b905092915050565b60006020820190508181036000830152612e098161267e565b9050919050565b60006020820190508181036000830152612e29816126e4565b9050919050565b60006020820190508181036000830152612e4981612724565b9050919050565b60006020820190508181036000830152612e6981612764565b9050919050565b60006020820190508181036000830152612e89816127ca565b9050919050565b60006020820190508181036000830152612ea98161280a565b9050919050565b60006020820190508181036000830152612ec981612870565b9050919050565b60006020820190508181036000830152612ee9816128d6565b9050919050565b60006020820190508181036000830152612f098161293c565b9050919050565b60006020820190508181036000830152612f29816129a2565b9050919050565b60006020820190508181036000830152612f49816129e2565b9050919050565b60006020820190508181036000830152612f6981612a48565b9050919050565b60006020820190508181036000830152612f8981612aae565b9050919050565b60006020820190508181036000830152612fa981612b14565b9050919050565b60006020820190508181036000830152612fc981612b7a565b9050919050565b60006020820190508181036000830152612fe981612be0565b9050919050565b6000602082019050818103600083015261300981612c46565b9050919050565b60006020820190506130256000830184612c95565b92915050565b60006040820190506130406000830185612c95565b61304d6020830184612c95565b9392505050565b600060c0820190506130696000830189612c95565b6130766020830188612c95565b6130836040830187612c95565b6130906060830186612c95565b61309d6080830185612c95565b6130aa60a08301846125cc565b979650505050505050565b60006020820190506130ca6000830184612ca4565b92915050565b6000604051905081810181811067ffffffffffffffff821117156130f7576130f6613495565b5b8060405250919050565b600067ffffffffffffffff82111561311c5761311b613495565b5b601f19601f8301169050602081019050919050565b6000819050602082019050919050565b600081519050919050565b600081519050919050565b600081519050919050565b6000602082019050919050565b600082825260208201905092915050565b600082825260208201905092915050565b600082825260208201905092915050565b600081905092915050565b60006131b882613303565b91506131c383613303565b9250827fffffffffffffffffffffffffffffffffffffffffffffffffffffffffffffffff038211156131f8576131f7613408565b5b828201905092915050565b600061320e82613303565b915061321983613303565b92508261322957613228613437565b5b828204905092915050565b600061323f8261330d565b915061324a8361330d565b92508261325a57613259613437565b5b828204905092915050565b600061327082613303565b915061327b83613303565b92508282101561328e5761328d613408565b5b828203905092915050565b60006132a4826132e3565b9050919050565b60008115159050919050565b60007fffffffff0000000000000000000000000000000000000000000000000000000082169050919050565b600073ffffffffffffffffffffffffffffffffffffffff82169050919050565b6000819050919050565b600060ff82169050919050565b82818337600083830152505050565b60005b8381101561334757808201518184015260208101905061332c565b83811115613356576000848401525b50505050565b6000600282049050600182168061337457607f821691505b6020821081141561338857613387613466565b5b50919050565b600061339982613303565b91507fffffffffffffffffffffffffffffffffffffffffffffffffffffffffffffffff8214156133cc576133cb613408565b5b600182019050919050565b60006133e282613303565b91506133ed83613303565b9250826133fd576133fc613437565b5b828206905092915050565b7f4e487b7100000000000000000000000000000000000000000000000000000000600052601160045260246000fd5b7f4e487b7100000000000000000000000000000000000000000000000000000000600052601260045260246000fd5b7f4e487b7100000000000000000000000000000000000000000000000000000000600052602260045260246000fd5b7f4e487b7100000000000000000000000000000000000000000000000000000000600052604160045260246000fd5b6000601f19601f8301169050919050565b6134de81613299565b81146134e957600080fd5b50565b6134f5816132ab565b811461350057600080fd5b50565b61350c816132b7565b811461351757600080fd5b50565b61352381613303565b811461352e57600080fd5b5056fea26469706673582212204de74db07cb968a868adddaef654ed5cad1840b1ca68fea2db933e42f38e5d5964736f6c63430008000033",
  "immutableReferences": {},
  "source": "pragma solidity ^0.8.0;\n\nimport \"@openzeppelin/contracts/token/ERC721/ERC721.sol\";\nimport \"./PotOwnershipInterface.sol\";\n\n// import \"@openzeppelin/contracts/token/ERC721/IERC721.sol\";\n\ncontract SuccOwnership is ERC721 {\n    // string name = \"CryptoSuccs\";\n    // string symbol = \"CS\";\n\n    event newSucc(\n        address owner,\n        uint256 succId,\n        uint256 parent1Id,\n        uint256 parent2Id,\n        uint256 genes\n    );\n\n    struct Succ {\n        uint256 genes;\n        uint64 sproutTime;\n        uint32 potId;\n        uint8 timesWatered;\n        uint8 watersNeededIndex;\n        bool isBlooming;\n    }\n\n    uint8[8] public watersNeeded = [\n        uint8(1),\n        uint8(2),\n        uint8(4),\n        uint8(8),\n        uint8(15),\n        uint8(25),\n        uint8(40),\n        uint8(60)\n    ];\n\n    Succ[] succs;\n\n    mapping(address => uint256) ownerToWaterOrbs;\n\n    PotOwnershipInterface PotOwnership;\n\n    constructor(\n        address PotOwnership_,\n        string memory name_,\n        string memory symbol_\n    ) ERC721(name_, symbol_) {\n        require(\n            PotOwnership_ != address(0),\n            \"PotOwnership contract cannot be 0\"\n        );\n        PotOwnership = PotOwnershipInterface(PotOwnership_);\n        // name = name_;\n        // symbol = symbol_;\n    }\n\n    function _createSucc(\n        uint256 _parent1Id,\n        uint256 _parent2Id,\n        uint256 _genes,\n        address _owner\n    ) internal returns (uint256) {\n        uint8 watersNeededIndex = succs[_parent1Id].watersNeededIndex / 2;\n        succs.push(\n            Succ(\n                _genes,\n                uint64(block.timestamp),\n                0,\n                0,\n                watersNeededIndex,\n                false\n            )\n        );\n        uint256 _newSuccIndex = succs.length - 1;\n        _safeMint(_owner, _newSuccIndex);\n        emit newSucc(_owner, _newSuccIndex, _parent1Id, _parent2Id, _genes);\n        return _newSuccIndex;\n    }\n\n    function buySucc(uint256 _genes, uint256 _price)\n        external\n        payable\n        returns (uint256)\n    {\n        require(msg.value == _price, \"Wrong price paid for succulent\");\n        return _createSucc(0, 0, _genes, msg.sender);\n    }\n\n    function succsOfOwner(address _owner)\n        external\n        view\n        returns (uint256[] memory ownerTokens)\n    {\n        uint256 tokenCount = balanceOf(_owner);\n\n        if (tokenCount == 0) {\n            // Return an empty array\n            return new uint256[](0);\n        } else {\n            uint256[] memory result = new uint256[](tokenCount);\n            uint256 totalSuccs = succs.length - 1;\n            uint256 resultIndex = 0;\n\n            // We count on the fact that all succulents have IDs starting at 1 and increasing\n            // sequentially up to the totalSucc count.\n            uint256 succId;\n\n            for (succId = 1; succId <= totalSuccs; succId++) {\n                if (ownerOf(succId) == _owner) {\n                    result[resultIndex] = succId;\n                    resultIndex++;\n                }\n            }\n\n            return result;\n        }\n    }\n\n    function putSuccInPot(uint256 _succId, uint256 _potId)\n        external\n        returns (bool)\n    {\n        require(\n            ownerOf(_succId) == msg.sender,\n            \"msg.sender does not own this succulent\"\n        );\n        require(\n            PotOwnership.ownerOf(_potId) == msg.sender,\n            \"msg.sender does not own this pot\"\n        );\n        succs[_succId].potId = uint32(_potId);\n        return PotOwnership.setPotSucc(_potId, _succId);\n    }\n\n    function getSuccInfo(uint256 _succId)\n        external\n        view\n        returns (\n            uint256 genes,\n            uint256 sproutTime,\n            uint256 potId,\n            uint256 timesWatered,\n            uint256 watersNeededIndex,\n            bool isBlooming\n        )\n    {\n        Succ memory _thisSucc = succs[_succId];\n        genes = _thisSucc.genes;\n        sproutTime = uint256(_thisSucc.sproutTime);\n        potId = uint256(_thisSucc.potId);\n        timesWatered = uint256(_thisSucc.timesWatered);\n        watersNeededIndex = uint256(_thisSucc.watersNeededIndex);\n        isBlooming = _thisSucc.isBlooming;\n    }\n\n    function getSuccAge(uint256 _succId) external view returns (uint256) {\n        return block.timestamp - uint256(succs[_succId].sproutTime);\n    }\n}\n",
  "sourcePath": "/Users/ellenguo6/Hacks/crypto-succs/contracts/SuccOwnership.sol",
  "compiler": {
    "name": "solc",
    "version": "0.8.0+commit.c7dfd78e.Emscripten.clang"
  },
  "schemaVersion": "3.4.1",
  "updatedAt": "2021-05-29T21:44:01.602Z",
  "networkType": "ethereum",
  "devdoc": {
    "kind": "dev",
    "methods": {
      "approve(address,uint256)": {
        "details": "See {IERC721-approve}."
      },
      "balanceOf(address)": {
        "details": "See {IERC721-balanceOf}."
      },
      "getApproved(uint256)": {
        "details": "See {IERC721-getApproved}."
      },
      "isApprovedForAll(address,address)": {
        "details": "See {IERC721-isApprovedForAll}."
      },
      "name()": {
        "details": "See {IERC721Metadata-name}."
      },
      "ownerOf(uint256)": {
        "details": "See {IERC721-ownerOf}."
      },
      "safeTransferFrom(address,address,uint256)": {
        "details": "See {IERC721-safeTransferFrom}."
      },
      "safeTransferFrom(address,address,uint256,bytes)": {
        "details": "See {IERC721-safeTransferFrom}."
      },
      "setApprovalForAll(address,bool)": {
        "details": "See {IERC721-setApprovalForAll}."
      },
      "supportsInterface(bytes4)": {
        "details": "See {IERC165-supportsInterface}."
      },
      "symbol()": {
        "details": "See {IERC721Metadata-symbol}."
      },
      "tokenURI(uint256)": {
        "details": "See {IERC721Metadata-tokenURI}."
      },
      "transferFrom(address,address,uint256)": {
        "details": "See {IERC721-transferFrom}."
      }
    },
    "version": 1
  },
  "userdoc": {
    "kind": "user",
    "methods": {},
    "version": 1
  }
}