{
  "contractName": "SuccAccessControl",
  "abi": [
    {
      "constant": true,
      "inputs": [],
      "name": "cfoAddress",
      "outputs": [
        {
          "name": "",
          "type": "address"
        }
      ],
      "payable": false,
      "stateMutability": "view",
      "type": "function"
    },
    {
      "constant": true,
      "inputs": [],
      "name": "ceoAddress",
      "outputs": [
        {
          "name": "",
          "type": "address"
        }
      ],
      "payable": false,
      "stateMutability": "view",
      "type": "function"
    },
    {
      "constant": true,
      "inputs": [],
      "name": "paused",
      "outputs": [
        {
          "name": "",
          "type": "bool"
        }
      ],
      "payable": false,
      "stateMutability": "view",
      "type": "function"
    },
    {
      "constant": true,
      "inputs": [],
      "name": "cooAddress",
      "outputs": [
        {
          "name": "",
          "type": "address"
        }
      ],
      "payable": false,
      "stateMutability": "view",
      "type": "function"
    },
    {
      "anonymous": false,
      "inputs": [
        {
          "indexed": false,
          "name": "newContract",
          "type": "address"
        }
      ],
      "name": "ContractUpgrade",
      "type": "event"
    },
    {
      "constant": false,
      "inputs": [
        {
          "name": "_newCEO",
          "type": "address"
        }
      ],
      "name": "setCEO",
      "outputs": [],
      "payable": false,
      "stateMutability": "nonpayable",
      "type": "function"
    },
    {
      "constant": false,
      "inputs": [
        {
          "name": "_newCFO",
          "type": "address"
        }
      ],
      "name": "setCFO",
      "outputs": [],
      "payable": false,
      "stateMutability": "nonpayable",
      "type": "function"
    },
    {
      "constant": false,
      "inputs": [
        {
          "name": "_newCOO",
          "type": "address"
        }
      ],
      "name": "setCOO",
      "outputs": [],
      "payable": false,
      "stateMutability": "nonpayable",
      "type": "function"
    },
    {
      "constant": false,
      "inputs": [],
      "name": "pause",
      "outputs": [],
      "payable": false,
      "stateMutability": "nonpayable",
      "type": "function"
    },
    {
      "constant": false,
      "inputs": [],
      "name": "unpause",
      "outputs": [],
      "payable": false,
      "stateMutability": "nonpayable",
      "type": "function"
    }
  ],
  "bytecode": "0x60806040526000600260146101000a81548160ff02191690831515021790555034801561002b57600080fd5b506107e08061003b6000396000f300608060405260043610610099576000357c0100000000000000000000000000000000000000000000000000000000900463ffffffff1680630519ce791461009e5780630a0f8168146100f557806327d7874c1461014c5780632ba73c151461018f5780633f4ba83a146101d25780634e0a3379146101e95780635c975abb1461022c5780638456cb591461025b578063b047fb5014610272575b600080fd5b3480156100aa57600080fd5b506100b36102c9565b604051808273ffffffffffffffffffffffffffffffffffffffff1673ffffffffffffffffffffffffffffffffffffffff16815260200191505060405180910390f35b34801561010157600080fd5b5061010a6102ef565b604051808273ffffffffffffffffffffffffffffffffffffffff1673ffffffffffffffffffffffffffffffffffffffff16815260200191505060405180910390f35b34801561015857600080fd5b5061018d600480360381019080803573ffffffffffffffffffffffffffffffffffffffff169060200190929190505050610314565b005b34801561019b57600080fd5b506101d0600480360381019080803573ffffffffffffffffffffffffffffffffffffffff1690602001909291905050506103ee565b005b3480156101de57600080fd5b506101e76104c9565b005b3480156101f557600080fd5b5061022a600480360381019080803573ffffffffffffffffffffffffffffffffffffffff16906020019092919050505061055c565b005b34801561023857600080fd5b50610241610637565b604051808215151515815260200191505060405180910390f35b34801561026757600080fd5b5061027061064a565b005b34801561027e57600080fd5b5061028761078e565b604051808273ffffffffffffffffffffffffffffffffffffffff1673ffffffffffffffffffffffffffffffffffffffff16815260200191505060405180910390f35b600160009054906101000a900473ffffffffffffffffffffffffffffffffffffffff1681565b6000809054906101000a900473ffffffffffffffffffffffffffffffffffffffff1681565b6000809054906101000a900473ffffffffffffffffffffffffffffffffffffffff1673ffffffffffffffffffffffffffffffffffffffff163373ffffffffffffffffffffffffffffffffffffffff1614151561036f57600080fd5b600073ffffffffffffffffffffffffffffffffffffffff168173ffffffffffffffffffffffffffffffffffffffff16141515156103ab57600080fd5b806000806101000a81548173ffffffffffffffffffffffffffffffffffffffff021916908373ffffffffffffffffffffffffffffffffffffffff16021790555050565b6000809054906101000a900473ffffffffffffffffffffffffffffffffffffffff1673ffffffffffffffffffffffffffffffffffffffff163373ffffffffffffffffffffffffffffffffffffffff1614151561044957600080fd5b600073ffffffffffffffffffffffffffffffffffffffff168173ffffffffffffffffffffffffffffffffffffffff161415151561048557600080fd5b80600260006101000a81548173ffffffffffffffffffffffffffffffffffffffff021916908373ffffffffffffffffffffffffffffffffffffffff16021790555050565b6000809054906101000a900473ffffffffffffffffffffffffffffffffffffffff1673ffffffffffffffffffffffffffffffffffffffff163373ffffffffffffffffffffffffffffffffffffffff1614151561052457600080fd5b600260149054906101000a900460ff16151561053f57600080fd5b6000600260146101000a81548160ff021916908315150217905550565b6000809054906101000a900473ffffffffffffffffffffffffffffffffffffffff1673ffffffffffffffffffffffffffffffffffffffff163373ffffffffffffffffffffffffffffffffffffffff161415156105b757600080fd5b600073ffffffffffffffffffffffffffffffffffffffff168173ffffffffffffffffffffffffffffffffffffffff16141515156105f357600080fd5b80600160006101000a81548173ffffffffffffffffffffffffffffffffffffffff021916908373ffffffffffffffffffffffffffffffffffffffff16021790555050565b600260149054906101000a900460ff1681565b600260009054906101000a900473ffffffffffffffffffffffffffffffffffffffff1673ffffffffffffffffffffffffffffffffffffffff163373ffffffffffffffffffffffffffffffffffffffff1614806106f257506000809054906101000a900473ffffffffffffffffffffffffffffffffffffffff1673ffffffffffffffffffffffffffffffffffffffff163373ffffffffffffffffffffffffffffffffffffffff16145b8061074a5750600160009054906101000a900473ffffffffffffffffffffffffffffffffffffffff1673ffffffffffffffffffffffffffffffffffffffff163373ffffffffffffffffffffffffffffffffffffffff16145b151561075557600080fd5b600260149054906101000a900460ff1615151561077157600080fd5b6001600260146101000a81548160ff021916908315150217905550565b600260009054906101000a900473ffffffffffffffffffffffffffffffffffffffff16815600a165627a7a72305820ee629a8574ab73e99195ba0324eba6e43b440079421bbf8c817cde35fbc47d4b0029",
  "source": "pragma solidity ^0.4.11;\n\n/// @title A facet of SuccCore that manages special access privileges.\n/// @author Axiom Zen (https://www.axiomzen.co)\n/// @dev See the SuccCore contract documentation to understand how the various contract facets are arranged.\ncontract SuccAccessControl {\n    // This facet controls access control for CryptoSuccs. There are four roles managed here:\n    //\n    //     - The CEO: The CEO can reassign other roles and change the addresses of our dependent smart\n    //         contracts. It is also the only role that can unpause the smart contract. It is initially\n    //         set to the address that created the smart contract in the SuccCore constructor.\n    //\n    //     - The CFO: The CFO can withdraw funds from SuccCore and its auction contracts.\n    //\n    //     - The COO: The COO can release gen0 succs to auction, and mint promo succulents.\n    //\n    // It should be noted that these roles are distinct without overlap in their access abilities, the\n    // abilities listed for each role above are exhaustive. In particular, while the CEO can assign any\n    // address to any role, the CEO address itself doesn't have the ability to act in those roles. This\n    // restriction is intentional so that we aren't tempted to use the CEO address frequently out of\n    // convenience. The less we use an address, the less likely it is that we somehow compromise the\n    // account.\n\n    /// @dev Emited when contract is upgraded - See README.md for updgrade plan\n    event ContractUpgrade(address newContract);\n\n    // The addresses of the accounts (or contracts) that can execute actions within each roles.\n    address public ceoAddress;\n    address public cfoAddress;\n    address public cooAddress;\n\n    // @dev Keeps track whether the contract is paused. When that is true, most actions are blocked\n    bool public paused = false;\n\n    /// @dev Access modifier for CEO-only functionality\n    modifier onlyCEO() {\n        require(msg.sender == ceoAddress);\n        _;\n    }\n\n    /// @dev Access modifier for CFO-only functionality\n    modifier onlyCFO() {\n        require(msg.sender == cfoAddress);\n        _;\n    }\n\n    /// @dev Access modifier for COO-only functionality\n    modifier onlyCOO() {\n        require(msg.sender == cooAddress);\n        _;\n    }\n\n    modifier onlyCLevel() {\n        require(\n            msg.sender == cooAddress ||\n            msg.sender == ceoAddress ||\n            msg.sender == cfoAddress\n        );\n        _;\n    }\n\n    /// @dev Assigns a new address to act as the CEO. Only available to the current CEO.\n    /// @param _newCEO The address of the new CEO\n    function setCEO(address _newCEO) external onlyCEO {\n        require(_newCEO != address(0));\n\n        ceoAddress = _newCEO;\n    }\n\n    /// @dev Assigns a new address to act as the CFO. Only available to the current CEO.\n    /// @param _newCFO The address of the new CFO\n    function setCFO(address _newCFO) external onlyCEO {\n        require(_newCFO != address(0));\n\n        cfoAddress = _newCFO;\n    }\n\n    /// @dev Assigns a new address to act as the COO. Only available to the current CEO.\n    /// @param _newCOO The address of the new COO\n    function setCOO(address _newCOO) external onlyCEO {\n        require(_newCOO != address(0));\n\n        cooAddress = _newCOO;\n    }\n\n    /*** Pausable functionality adapted from OpenZeppelin ***/\n\n    /// @dev Modifier to allow actions only when the contract IS NOT paused\n    modifier whenNotPaused() {\n        require(!paused);\n        _;\n    }\n\n    /// @dev Modifier to allow actions only when the contract IS paused\n    modifier whenPaused {\n        require(paused);\n        _;\n    }\n\n    /// @dev Called by any \"C-level\" role to pause the contract. Used only when\n    ///  a bug or exploit is detected and we need to limit damage.\n    function pause() external onlyCLevel whenNotPaused {\n        paused = true;\n    }\n\n    /// @dev Unpauses the smart contract. Can only be called by the CEO, since\n    ///  one reason we may pause the contract is when CFO or COO accounts are\n    ///  compromised.\n    /// @notice This is public rather than external so it can be called by\n    ///  derived contracts.\n    function unpause() public onlyCEO whenPaused {\n        // can't unpause if contract was upgraded\n        paused = false;\n    }\n}",
  "sourcePath": "/Users/ellenguo6/Hacks/crypto-succs/contracts/SuccAccessControl.sol",
  "compiler": {
    "name": "solc",
    "version": "0.4.22+commit.4cb486ee.Emscripten.clang"
  },
  "schemaVersion": "3.4.1",
  "updatedAt": "2021-05-29T10:50:56.105Z",
  "devdoc": {
    "author": "Axiom Zen (https://www.axiomzen.co)",
    "methods": {
      "pause()": {
        "details": "Called by any \"C-level\" role to pause the contract. Used only when  a bug or exploit is detected and we need to limit damage."
      },
      "setCEO(address)": {
        "details": "Assigns a new address to act as the CEO. Only available to the current CEO.",
        "params": {
          "_newCEO": "The address of the new CEO"
        }
      },
      "setCFO(address)": {
        "details": "Assigns a new address to act as the CFO. Only available to the current CEO.",
        "params": {
          "_newCFO": "The address of the new CFO"
        }
      },
      "setCOO(address)": {
        "details": "Assigns a new address to act as the COO. Only available to the current CEO.",
        "params": {
          "_newCOO": "The address of the new COO"
        }
      },
      "unpause()": {
        "details": "Unpauses the smart contract. Can only be called by the CEO, since  one reason we may pause the contract is when CFO or COO accounts are  compromised."
      }
    },
    "title": "A facet of SuccCore that manages special access privileges."
  },
  "userdoc": {
    "methods": {
      "unpause()": {
        "notice": "This is public rather than external so it can be called by  derived contracts."
      }
    }
  }
}