{
  "contractName": "SuccOwnership",
  "abi": [
    {
      "inputs": [
        {
          "internalType": "address",
          "name": "PotOwnership_",
          "type": "address"
        },
        {
          "internalType": "string",
          "name": "name_",
          "type": "string"
        },
        {
          "internalType": "string",
          "name": "symbol_",
          "type": "string"
        }
      ],
      "stateMutability": "nonpayable",
      "type": "constructor"
    },
    {
      "anonymous": false,
      "inputs": [
        {
          "indexed": true,
          "internalType": "address",
          "name": "owner",
          "type": "address"
        },
        {
          "indexed": true,
          "internalType": "address",
          "name": "approved",
          "type": "address"
        },
        {
          "indexed": true,
          "internalType": "uint256",
          "name": "tokenId",
          "type": "uint256"
        }
      ],
      "name": "Approval",
      "type": "event"
    },
    {
      "anonymous": false,
      "inputs": [
        {
          "indexed": true,
          "internalType": "address",
          "name": "owner",
          "type": "address"
        },
        {
          "indexed": true,
          "internalType": "address",
          "name": "operator",
          "type": "address"
        },
        {
          "indexed": false,
          "internalType": "bool",
          "name": "approved",
          "type": "bool"
        }
      ],
      "name": "ApprovalForAll",
      "type": "event"
    },
    {
      "anonymous": false,
      "inputs": [
        {
          "indexed": true,
          "internalType": "address",
          "name": "from",
          "type": "address"
        },
        {
          "indexed": true,
          "internalType": "address",
          "name": "to",
          "type": "address"
        },
        {
          "indexed": true,
          "internalType": "uint256",
          "name": "tokenId",
          "type": "uint256"
        }
      ],
      "name": "Transfer",
      "type": "event"
    },
    {
      "anonymous": false,
      "inputs": [
        {
          "indexed": false,
          "internalType": "address",
          "name": "owner",
          "type": "address"
        },
        {
          "indexed": false,
          "internalType": "uint256",
          "name": "succId",
          "type": "uint256"
        },
        {
          "indexed": false,
          "internalType": "uint256",
          "name": "parent1Id",
          "type": "uint256"
        },
        {
          "indexed": false,
          "internalType": "uint256",
          "name": "parent2Id",
          "type": "uint256"
        },
        {
          "indexed": false,
          "internalType": "uint256",
          "name": "genes",
          "type": "uint256"
        }
      ],
      "name": "newSucc",
      "type": "event"
    },
    {
      "inputs": [
        {
          "internalType": "address",
          "name": "to",
          "type": "address"
        },
        {
          "internalType": "uint256",
          "name": "tokenId",
          "type": "uint256"
        }
      ],
      "name": "approve",
      "outputs": [],
      "stateMutability": "nonpayable",
      "type": "function"
    },
    {
      "inputs": [
        {
          "internalType": "address",
          "name": "owner",
          "type": "address"
        }
      ],
      "name": "balanceOf",
      "outputs": [
        {
          "internalType": "uint256",
          "name": "",
          "type": "uint256"
        }
      ],
      "stateMutability": "view",
      "type": "function",
      "constant": true
    },
    {
      "inputs": [
        {
          "internalType": "uint256",
          "name": "tokenId",
          "type": "uint256"
        }
      ],
      "name": "getApproved",
      "outputs": [
        {
          "internalType": "address",
          "name": "",
          "type": "address"
        }
      ],
      "stateMutability": "view",
      "type": "function",
      "constant": true
    },
    {
      "inputs": [
        {
          "internalType": "address",
          "name": "owner",
          "type": "address"
        },
        {
          "internalType": "address",
          "name": "operator",
          "type": "address"
        }
      ],
      "name": "isApprovedForAll",
      "outputs": [
        {
          "internalType": "bool",
          "name": "",
          "type": "bool"
        }
      ],
      "stateMutability": "view",
      "type": "function",
      "constant": true
    },
    {
      "inputs": [],
      "name": "name",
      "outputs": [
        {
          "internalType": "string",
          "name": "",
          "type": "string"
        }
      ],
      "stateMutability": "view",
      "type": "function",
      "constant": true
    },
    {
      "inputs": [
        {
          "internalType": "uint256",
          "name": "tokenId",
          "type": "uint256"
        }
      ],
      "name": "ownerOf",
      "outputs": [
        {
          "internalType": "address",
          "name": "",
          "type": "address"
        }
      ],
      "stateMutability": "view",
      "type": "function",
      "constant": true
    },
    {
      "inputs": [
        {
          "internalType": "address",
          "name": "from",
          "type": "address"
        },
        {
          "internalType": "address",
          "name": "to",
          "type": "address"
        },
        {
          "internalType": "uint256",
          "name": "tokenId",
          "type": "uint256"
        }
      ],
      "name": "safeTransferFrom",
      "outputs": [],
      "stateMutability": "nonpayable",
      "type": "function"
    },
    {
      "inputs": [
        {
          "internalType": "address",
          "name": "from",
          "type": "address"
        },
        {
          "internalType": "address",
          "name": "to",
          "type": "address"
        },
        {
          "internalType": "uint256",
          "name": "tokenId",
          "type": "uint256"
        },
        {
          "internalType": "bytes",
          "name": "_data",
          "type": "bytes"
        }
      ],
      "name": "safeTransferFrom",
      "outputs": [],
      "stateMutability": "nonpayable",
      "type": "function"
    },
    {
      "inputs": [
        {
          "internalType": "address",
          "name": "operator",
          "type": "address"
        },
        {
          "internalType": "bool",
          "name": "approved",
          "type": "bool"
        }
      ],
      "name": "setApprovalForAll",
      "outputs": [],
      "stateMutability": "nonpayable",
      "type": "function"
    },
    {
      "inputs": [
        {
          "internalType": "bytes4",
          "name": "interfaceId",
          "type": "bytes4"
        }
      ],
      "name": "supportsInterface",
      "outputs": [
        {
          "internalType": "bool",
          "name": "",
          "type": "bool"
        }
      ],
      "stateMutability": "view",
      "type": "function",
      "constant": true
    },
    {
      "inputs": [],
      "name": "symbol",
      "outputs": [
        {
          "internalType": "string",
          "name": "",
          "type": "string"
        }
      ],
      "stateMutability": "view",
      "type": "function",
      "constant": true
    },
    {
      "inputs": [
        {
          "internalType": "uint256",
          "name": "tokenId",
          "type": "uint256"
        }
      ],
      "name": "tokenURI",
      "outputs": [
        {
          "internalType": "string",
          "name": "",
          "type": "string"
        }
      ],
      "stateMutability": "view",
      "type": "function",
      "constant": true
    },
    {
      "inputs": [
        {
          "internalType": "address",
          "name": "from",
          "type": "address"
        },
        {
          "internalType": "address",
          "name": "to",
          "type": "address"
        },
        {
          "internalType": "uint256",
          "name": "tokenId",
          "type": "uint256"
        }
      ],
      "name": "transferFrom",
      "outputs": [],
      "stateMutability": "nonpayable",
      "type": "function"
    },
    {
      "inputs": [
        {
          "internalType": "uint256",
          "name": "",
          "type": "uint256"
        }
      ],
      "name": "watersNeeded",
      "outputs": [
        {
          "internalType": "uint8",
          "name": "",
          "type": "uint8"
        }
      ],
      "stateMutability": "view",
      "type": "function",
      "constant": true
    },
    {
      "inputs": [
        {
          "internalType": "uint256",
          "name": "_genes",
          "type": "uint256"
        },
        {
          "internalType": "uint256",
          "name": "_price",
          "type": "uint256"
        }
      ],
      "name": "buySucc",
      "outputs": [
        {
          "internalType": "uint256",
          "name": "",
          "type": "uint256"
        }
      ],
      "stateMutability": "payable",
      "type": "function",
      "payable": true
    },
    {
      "inputs": [
        {
          "internalType": "address",
          "name": "_owner",
          "type": "address"
        }
      ],
      "name": "succsOfOwner",
      "outputs": [
        {
          "internalType": "uint256[]",
          "name": "ownerTokens",
          "type": "uint256[]"
        }
      ],
      "stateMutability": "view",
      "type": "function",
      "constant": true
    },
    {
      "inputs": [
        {
          "internalType": "uint256",
          "name": "_succId",
          "type": "uint256"
        },
        {
          "internalType": "uint256",
          "name": "_potId",
          "type": "uint256"
        }
      ],
      "name": "putSuccInPot",
      "outputs": [
        {
          "internalType": "bool",
          "name": "",
          "type": "bool"
        }
      ],
      "stateMutability": "nonpayable",
      "type": "function"
    },
    {
      "inputs": [
        {
          "internalType": "uint256",
          "name": "_succId",
          "type": "uint256"
        }
      ],
      "name": "getSuccInfo",
      "outputs": [
        {
          "internalType": "uint256",
          "name": "genes",
          "type": "uint256"
        },
        {
          "internalType": "uint256",
          "name": "sproutTime",
          "type": "uint256"
        },
        {
          "internalType": "uint256",
          "name": "potId",
          "type": "uint256"
        },
        {
          "internalType": "uint256",
          "name": "timesWatered",
          "type": "uint256"
        },
        {
          "internalType": "uint256",
          "name": "watersNeededIndex",
          "type": "uint256"
        },
        {
          "internalType": "bool",
          "name": "isBlooming",
          "type": "bool"
        }
      ],
      "stateMutability": "view",
      "type": "function",
      "constant": true
    },
    {
      "inputs": [
        {
          "internalType": "uint256",
          "name": "_succId",
          "type": "uint256"
        }
      ],
      "name": "getSuccAge",
      "outputs": [
        {
          "internalType": "uint256",
          "name": "",
          "type": "uint256"
        }
      ],
      "stateMutability": "view",
      "type": "function",
      "constant": true
    },
    {
      "inputs": [],
      "name": "getPotOwnership",
      "outputs": [
        {
          "internalType": "contract PotOwnershipInterface",
          "name": "",
          "type": "address"
        }
      ],
      "stateMutability": "view",
      "type": "function",
      "constant": true
    }
  ],
  "bytecode": "0x6080604052604051806101000160405280600160ff1660ff168152602001600260ff1660ff168152602001600460ff1660ff168152602001600860ff1660ff168152602001600f60ff1660ff168152602001601960ff1660ff168152602001602860ff1660ff168152602001603c60ff1660ff16815250600690600862000088929190620001af565b503480156200009657600080fd5b5060405162003dca38038062003dca8339818101604052810190620000bc919062000389565b81818160009080519060200190620000d692919062000250565b508060019080519060200190620000ef92919062000250565b505050600073ffffffffffffffffffffffffffffffffffffffff168373ffffffffffffffffffffffffffffffffffffffff16141562000165576040517f08c379a00000000000000000000000000000000000000000000000000000000081526004016200015c9062000479565b60405180910390fd5b82600960006101000a81548173ffffffffffffffffffffffffffffffffffffffff021916908373ffffffffffffffffffffffffffffffffffffffff1602179055505050506200062b565b826008601f016020900481019282156200023d5791602002820160005b838211156200020c57835183826101000a81548160ff021916908360ff1602179055509260200192600101602081600001049283019260010302620001cc565b80156200023b5782816101000a81549060ff02191690556001016020816000010492830192600103026200020c565b505b5090506200024c9190620002e1565b5090565b8280546200025e906200057d565b90600052602060002090601f016020900481019282620002825760008555620002ce565b82601f106200029d57805160ff1916838001178555620002ce565b82800160010185558215620002ce579182015b82811115620002cd578251825591602001919060010190620002b0565b5b509050620002dd9190620002e1565b5090565b5b80821115620002fc576000816000905550600101620002e2565b5090565b6000620003176200031184620004cf565b6200049b565b9050828152602081018484840111156200033057600080fd5b6200033d84828562000547565b509392505050565b600081519050620003568162000611565b92915050565b600082601f8301126200036e57600080fd5b81516200038084826020860162000300565b91505092915050565b6000806000606084860312156200039f57600080fd5b6000620003af8682870162000345565b935050602084015167ffffffffffffffff811115620003cd57600080fd5b620003db868287016200035c565b925050604084015167ffffffffffffffff811115620003f957600080fd5b62000407868287016200035c565b9150509250925092565b60006200042060218362000502565b91507f506f744f776e65727368697020636f6e74726163742063616e6e6f742062652060008301527f30000000000000000000000000000000000000000000000000000000000000006020830152604082019050919050565b60006020820190508181036000830152620004948162000411565b9050919050565b6000604051905081810181811067ffffffffffffffff82111715620004c557620004c4620005e2565b5b8060405250919050565b600067ffffffffffffffff821115620004ed57620004ec620005e2565b5b601f19601f8301169050602081019050919050565b600082825260208201905092915050565b6000620005208262000527565b9050919050565b600073ffffffffffffffffffffffffffffffffffffffff82169050919050565b60005b83811015620005675780820151818401526020810190506200054a565b8381111562000577576000848401525b50505050565b600060028204905060018216806200059657607f821691505b60208210811415620005ad57620005ac620005b3565b5b50919050565b7f4e487b7100000000000000000000000000000000000000000000000000000000600052602260045260246000fd5b7f4e487b7100000000000000000000000000000000000000000000000000000000600052604160045260246000fd5b6200061c8162000513565b81146200062857600080fd5b50565b61378f806200063b6000396000f3fe60806040526004361061011f5760003560e01c80635fd9ce03116100a05780639a3ff89e116100645780639a3ff89e1461043d578063a22cb4651461047a578063b88d4fde146104a3578063c87b56dd146104cc578063e985e9c5146105095761011f565b80635fd9ce031461032b5780636352211e1461035b57806370a082311461039857806395d89b41146103d557806399dba903146104005761011f565b80631a995864116100e75780631a9958641461022f57806323b872dd1461025a578063277608cd1461028357806342842e0e146102c05780634caea647146102e95761011f565b806301ffc9a71461012457806306fdde0314610161578063081812fc1461018c578063095ea7b3146101c95780631481c37e146101f2575b600080fd5b34801561013057600080fd5b5061014b6004803603810190610146919061260a565b610546565b6040516101589190612f7c565b60405180910390f35b34801561016d57600080fd5b50610176610628565b6040516101839190612fb2565b60405180910390f35b34801561019857600080fd5b506101b360048036038101906101ae919061265c565b6106ba565b6040516101c09190612ea0565b60405180910390f35b3480156101d557600080fd5b506101f060048036038101906101eb91906125a5565b61073f565b005b3480156101fe57600080fd5b5061021960048036038101906102149190612411565b610857565b6040516102269190612f5a565b60405180910390f35b34801561023b57600080fd5b50610244610a31565b6040516102519190612f97565b60405180910390f35b34801561026657600080fd5b50610281600480360381019061027c919061249f565b610a5b565b005b34801561028f57600080fd5b506102aa60048036038101906102a5919061265c565b610abb565b6040516102b79190613214565b60405180910390f35b3480156102cc57600080fd5b506102e760048036038101906102e2919061249f565b610b82565b005b3480156102f557600080fd5b50610310600480360381019061030b919061265c565b610ba2565b60405161032296959493929190613258565b60405180910390f35b61034560048036038101906103409190612685565b610d4c565b6040516103529190613214565b60405180910390f35b34801561036757600080fd5b50610382600480360381019061037d919061265c565b610da5565b60405161038f9190612ea0565b60405180910390f35b3480156103a457600080fd5b506103bf60048036038101906103ba9190612411565b610e57565b6040516103cc9190613214565b60405180910390f35b3480156103e157600080fd5b506103ea610f0f565b6040516103f79190612fb2565b60405180910390f35b34801561040c57600080fd5b5061042760048036038101906104229190612685565b610fa1565b6040516104349190612f7c565b60405180910390f35b34801561044957600080fd5b50610464600480360381019061045f919061265c565b611252565b60405161047191906132b9565b60405180910390f35b34801561048657600080fd5b506104a1600480360381019061049c9190612569565b61127c565b005b3480156104af57600080fd5b506104ca60048036038101906104c591906124ee565b6113fd565b005b3480156104d857600080fd5b506104f360048036038101906104ee919061265c565b61145f565b6040516105009190612fb2565b60405180910390f35b34801561051557600080fd5b50610530600480360381019061052b9190612463565b611506565b60405161053d9190612f7c565b60405180910390f35b60007f80ac58cd000000000000000000000000000000000000000000000000000000007bffffffffffffffffffffffffffffffffffffffffffffffffffffffff1916827bffffffffffffffffffffffffffffffffffffffffffffffffffffffff1916148061061157507f5b5e139f000000000000000000000000000000000000000000000000000000007bffffffffffffffffffffffffffffffffffffffffffffffffffffffff1916827bffffffffffffffffffffffffffffffffffffffffffffffffffffffff1916145b8061062157506106208261159a565b5b9050919050565b60606000805461063790613584565b80601f016020809104026020016040519081016040528092919081815260200182805461066390613584565b80156106b05780601f10610685576101008083540402835291602001916106b0565b820191906000526020600020905b81548152906001019060200180831161069357829003601f168201915b5050505050905090565b60006106c582611604565b610704576040517f08c379a00000000000000000000000000000000000000000000000000000000081526004016106fb90613114565b60405180910390fd5b6004600083815260200190815260200160002060009054906101000a900473ffffffffffffffffffffffffffffffffffffffff169050919050565b600061074a82610da5565b90508073ffffffffffffffffffffffffffffffffffffffff168373ffffffffffffffffffffffffffffffffffffffff1614156107bb576040517f08c379a00000000000000000000000000000000000000000000000000000000081526004016107b2906131b4565b60405180910390fd5b8073ffffffffffffffffffffffffffffffffffffffff166107da611670565b73ffffffffffffffffffffffffffffffffffffffff161480610809575061080881610803611670565b611506565b5b610848576040517f08c379a000000000000000000000000000000000000000000000000000000000815260040161083f90613094565b60405180910390fd5b6108528383611678565b505050565b6060600061086483610e57565b905060008114156108e757600067ffffffffffffffff8111156108b0577f4e487b7100000000000000000000000000000000000000000000000000000000600052604160045260246000fd5b6040519080825280602002602001820160405280156108de5781602001602082028036833780820191505090505b50915050610a2c565b60008167ffffffffffffffff811115610929577f4e487b7100000000000000000000000000000000000000000000000000000000600052604160045260246000fd5b6040519080825280602002602001820160405280156109575781602001602082028036833780820191505090505b5090506000600160078054905061096e9190613469565b9050600080600190505b828111610a23578673ffffffffffffffffffffffffffffffffffffffff1661099f82610da5565b73ffffffffffffffffffffffffffffffffffffffff161415610a1057808483815181106109f5577f4e487b7100000000000000000000000000000000000000000000000000000000600052603260045260246000fd5b6020026020010181815250508180610a0c906135b6565b9250505b8080610a1b906135b6565b915050610978565b83955050505050505b919050565b6000600960009054906101000a900473ffffffffffffffffffffffffffffffffffffffff16905090565b610a6c610a66611670565b82611731565b610aab576040517f08c379a0000000000000000000000000000000000000000000000000000000008152600401610aa2906131d4565b60405180910390fd5b610ab683838361180f565b505050565b6000816007805490508110610b05576040517f08c379a0000000000000000000000000000000000000000000000000000000008152600401610afc90613134565b60405180910390fd5b60078381548110610b3f577f4e487b7100000000000000000000000000000000000000000000000000000000600052603260045260246000fd5b906000526020600020906002020160010160009054906101000a900467ffffffffffffffff1667ffffffffffffffff1642610b7a9190613469565b915050919050565b610b9d838383604051806020016040528060008152506113fd565b505050565b600080600080600080866007805490508110610bf3576040517f08c379a0000000000000000000000000000000000000000000000000000000008152600401610bea90613134565b60405180910390fd5b600060078981548110610c2f577f4e487b7100000000000000000000000000000000000000000000000000000000600052603260045260246000fd5b90600052602060002090600202016040518060c0016040529081600082015481526020016001820160009054906101000a900467ffffffffffffffff1667ffffffffffffffff1667ffffffffffffffff1681526020016001820160089054906101000a900463ffffffff1663ffffffff1663ffffffff16815260200160018201600c9054906101000a900460ff1660ff1660ff16815260200160018201600d9054906101000a900460ff1660ff1660ff16815260200160018201600e9054906101000a900460ff161515151581525050905080600001519750806020015167ffffffffffffffff169650806040015163ffffffff169550806060015160ff169450806080015160ff1693508060a001519250505091939550919395565b6000813414610d90576040517f08c379a0000000000000000000000000000000000000000000000000000000008152600401610d8790612ff4565b60405180910390fd5b610d9d6000808533611a6b565b905092915050565b6000806002600084815260200190815260200160002060009054906101000a900473ffffffffffffffffffffffffffffffffffffffff169050600073ffffffffffffffffffffffffffffffffffffffff168173ffffffffffffffffffffffffffffffffffffffff161415610e4e576040517f08c379a0000000000000000000000000000000000000000000000000000000008152600401610e45906130d4565b60405180910390fd5b80915050919050565b60008073ffffffffffffffffffffffffffffffffffffffff168273ffffffffffffffffffffffffffffffffffffffff161415610ec8576040517f08c379a0000000000000000000000000000000000000000000000000000000008152600401610ebf906130b4565b60405180910390fd5b600360008373ffffffffffffffffffffffffffffffffffffffff1673ffffffffffffffffffffffffffffffffffffffff168152602001908152602001600020549050919050565b606060018054610f1e90613584565b80601f0160208091040260200160405190810160405280929190818152602001828054610f4a90613584565b8015610f975780601f10610f6c57610100808354040283529160200191610f97565b820191906000526020600020905b815481529060010190602001808311610f7a57829003601f168201915b5050505050905090565b60003373ffffffffffffffffffffffffffffffffffffffff16610fc384610da5565b73ffffffffffffffffffffffffffffffffffffffff1614611019576040517f08c379a000000000000000000000000000000000000000000000000000000000815260040161101090613154565b60405180910390fd5b3373ffffffffffffffffffffffffffffffffffffffff16600960009054906101000a900473ffffffffffffffffffffffffffffffffffffffff1673ffffffffffffffffffffffffffffffffffffffff16636352211e846040518263ffffffff1660e01b815260040161108b9190613214565b60206040518083038186803b1580156110a357600080fd5b505afa1580156110b7573d6000803e3d6000fd5b505050506040513d601f19601f820116820180604052508101906110db919061243a565b73ffffffffffffffffffffffffffffffffffffffff1614611131576040517f08c379a0000000000000000000000000000000000000000000000000000000008152600401611128906131f4565b60405180910390fd5b816007848154811061116c577f4e487b7100000000000000000000000000000000000000000000000000000000600052603260045260246000fd5b906000526020600020906002020160010160086101000a81548163ffffffff021916908363ffffffff160217905550600960009054906101000a900473ffffffffffffffffffffffffffffffffffffffff1673ffffffffffffffffffffffffffffffffffffffff1663993cbf6983856040518363ffffffff1660e01b81526004016111f892919061322f565b602060405180830381600087803b15801561121257600080fd5b505af1158015611226573d6000803e3d6000fd5b505050506040513d601f19601f8201168201806040525081019061124a91906125e1565b905092915050565b6006816008811061126257600080fd5b60209182820401919006915054906101000a900460ff1681565b611284611670565b73ffffffffffffffffffffffffffffffffffffffff168273ffffffffffffffffffffffffffffffffffffffff1614156112f2576040517f08c379a00000000000000000000000000000000000000000000000000000000081526004016112e990613054565b60405180910390fd5b80600560006112ff611670565b73ffffffffffffffffffffffffffffffffffffffff1673ffffffffffffffffffffffffffffffffffffffff16815260200190815260200160002060008473ffffffffffffffffffffffffffffffffffffffff1673ffffffffffffffffffffffffffffffffffffffff16815260200190815260200160002060006101000a81548160ff0219169083151502179055508173ffffffffffffffffffffffffffffffffffffffff166113ac611670565b73ffffffffffffffffffffffffffffffffffffffff167f17307eab39ab6107e8899845ad3d59bd9653f200f220920489ca2b5937696c31836040516113f19190612f7c565b60405180910390a35050565b61140e611408611670565b83611731565b61144d576040517f08c379a0000000000000000000000000000000000000000000000000000000008152600401611444906131d4565b60405180910390fd5b61145984848484611d00565b50505050565b606061146a82611604565b6114a9576040517f08c379a00000000000000000000000000000000000000000000000000000000081526004016114a090613194565b60405180910390fd5b60006114b3611d5c565b905060008151116114d357604051806020016040528060008152506114fe565b806114dd84611d73565b6040516020016114ee929190612e7c565b6040516020818303038152906040525b915050919050565b6000600560008473ffffffffffffffffffffffffffffffffffffffff1673ffffffffffffffffffffffffffffffffffffffff16815260200190815260200160002060008373ffffffffffffffffffffffffffffffffffffffff1673ffffffffffffffffffffffffffffffffffffffff16815260200190815260200160002060009054906101000a900460ff16905092915050565b60007f01ffc9a7000000000000000000000000000000000000000000000000000000007bffffffffffffffffffffffffffffffffffffffffffffffffffffffff1916827bffffffffffffffffffffffffffffffffffffffffffffffffffffffff1916149050919050565b60008073ffffffffffffffffffffffffffffffffffffffff166002600084815260200190815260200160002060009054906101000a900473ffffffffffffffffffffffffffffffffffffffff1673ffffffffffffffffffffffffffffffffffffffff1614159050919050565b600033905090565b816004600083815260200190815260200160002060006101000a81548173ffffffffffffffffffffffffffffffffffffffff021916908373ffffffffffffffffffffffffffffffffffffffff160217905550808273ffffffffffffffffffffffffffffffffffffffff166116eb83610da5565b73ffffffffffffffffffffffffffffffffffffffff167f8c5be1e5ebec7d5bd14f71427d1e84f3dd0314c0f7b2291e5b200ac8c7c3b92560405160405180910390a45050565b600061173c82611604565b61177b576040517f08c379a000000000000000000000000000000000000000000000000000000000815260040161177290613074565b60405180910390fd5b600061178683610da5565b90508073ffffffffffffffffffffffffffffffffffffffff168473ffffffffffffffffffffffffffffffffffffffff1614806117f557508373ffffffffffffffffffffffffffffffffffffffff166117dd846106ba565b73ffffffffffffffffffffffffffffffffffffffff16145b8061180657506118058185611506565b5b91505092915050565b8273ffffffffffffffffffffffffffffffffffffffff1661182f82610da5565b73ffffffffffffffffffffffffffffffffffffffff1614611885576040517f08c379a000000000000000000000000000000000000000000000000000000000815260040161187c90613174565b60405180910390fd5b600073ffffffffffffffffffffffffffffffffffffffff168273ffffffffffffffffffffffffffffffffffffffff1614156118f5576040517f08c379a00000000000000000000000000000000000000000000000000000000081526004016118ec90613034565b60405180910390fd5b611900838383611f20565b61190b600082611678565b6001600360008573ffffffffffffffffffffffffffffffffffffffff1673ffffffffffffffffffffffffffffffffffffffff168152602001908152602001600020600082825461195b9190613469565b925050819055506001600360008473ffffffffffffffffffffffffffffffffffffffff1673ffffffffffffffffffffffffffffffffffffffff16815260200190815260200160002060008282546119b291906133b1565b92505081905550816002600083815260200190815260200160002060006101000a81548173ffffffffffffffffffffffffffffffffffffffff021916908373ffffffffffffffffffffffffffffffffffffffff160217905550808273ffffffffffffffffffffffffffffffffffffffff168473ffffffffffffffffffffffffffffffffffffffff167fddf252ad1be2c89b69c2b068fc378daa952ba7f163c4a11628f55a4df523b3ef60405160405180910390a4505050565b6000806000905060008614611ae957600260078781548110611ab6577f4e487b7100000000000000000000000000000000000000000000000000000000600052603260045260246000fd5b9060005260206000209060020201600101600d9054906101000a900460ff16611adf9190613438565b60ff169050611b5d565b60008514611b5c57600260078681548110611b2d577f4e487b7100000000000000000000000000000000000000000000000000000000600052603260045260246000fd5b9060005260206000209060020201600101600d9054906101000a900460ff16611b569190613438565b60ff1690505b5b60076040518060c001604052808681526020014267ffffffffffffffff168152602001600063ffffffff168152602001600060ff1681526020018360ff1681526020016000151581525090806001815401808255809150506001900390600052602060002090600202016000909190919091506000820151816000015560208201518160010160006101000a81548167ffffffffffffffff021916908367ffffffffffffffff16021790555060408201518160010160086101000a81548163ffffffff021916908363ffffffff160217905550606082015181600101600c6101000a81548160ff021916908360ff160217905550608082015181600101600d6101000a81548160ff021916908360ff16021790555060a082015181600101600e6101000a81548160ff021916908315150217905550505060006001600780549050611ca89190613469565b9050611cb48482611f25565b7feecb12278ac480113175d528cc5d2742a52d8ac03232f9fbe587411e2c7b62b68482898989604051611ceb959493929190612f07565b60405180910390a18092505050949350505050565b611d0b84848461180f565b611d1784848484611f43565b611d56576040517f08c379a0000000000000000000000000000000000000000000000000000000008152600401611d4d90612fd4565b60405180910390fd5b50505050565b606060405180602001604052806000815250905090565b60606000821415611dbb576040518060400160405280600181526020017f30000000000000000000000000000000000000000000000000000000000000008152509050611f1b565b600082905060005b60008214611ded578080611dd6906135b6565b915050600a82611de69190613407565b9150611dc3565b60008167ffffffffffffffff811115611e2f577f4e487b7100000000000000000000000000000000000000000000000000000000600052604160045260246000fd5b6040519080825280601f01601f191660200182016040528015611e615781602001600182028036833780820191505090505b5090505b60008514611f1457600182611e7a9190613469565b9150600a85611e8991906135ff565b6030611e9591906133b1565b60f81b818381518110611ed1577f4e487b7100000000000000000000000000000000000000000000000000000000600052603260045260246000fd5b60200101907effffffffffffffffffffffffffffffffffffffffffffffffffffffffffffff1916908160001a905350600a85611f0d9190613407565b9450611e65565b8093505050505b919050565b505050565b611f3f8282604051806020016040528060008152506120da565b5050565b6000611f648473ffffffffffffffffffffffffffffffffffffffff16612135565b156120cd578373ffffffffffffffffffffffffffffffffffffffff1663150b7a02611f8d611670565b8786866040518563ffffffff1660e01b8152600401611faf9493929190612ebb565b602060405180830381600087803b158015611fc957600080fd5b505af1925050508015611ffa57506040513d601f19601f82011682018060405250810190611ff79190612633565b60015b61207d573d806000811461202a576040519150601f19603f3d011682016040523d82523d6000602084013e61202f565b606091505b50600081511415612075576040517f08c379a000000000000000000000000000000000000000000000000000000000815260040161206c90612fd4565b60405180910390fd5b805181602001fd5b63150b7a0260e01b7bffffffffffffffffffffffffffffffffffffffffffffffffffffffff1916817bffffffffffffffffffffffffffffffffffffffffffffffffffffffff1916149150506120d2565b600190505b949350505050565b6120e48383612148565b6120f16000848484611f43565b612130576040517f08c379a000000000000000000000000000000000000000000000000000000000815260040161212790612fd4565b60405180910390fd5b505050565b600080823b905060008111915050919050565b600073ffffffffffffffffffffffffffffffffffffffff168273ffffffffffffffffffffffffffffffffffffffff1614156121b8576040517f08c379a00000000000000000000000000000000000000000000000000000000081526004016121af906130f4565b60405180910390fd5b6121c181611604565b15612201576040517f08c379a00000000000000000000000000000000000000000000000000000000081526004016121f890613014565b60405180910390fd5b61220d60008383611f20565b6001600360008473ffffffffffffffffffffffffffffffffffffffff1673ffffffffffffffffffffffffffffffffffffffff168152602001908152602001600020600082825461225d91906133b1565b92505081905550816002600083815260200190815260200160002060006101000a81548173ffffffffffffffffffffffffffffffffffffffff021916908373ffffffffffffffffffffffffffffffffffffffff160217905550808273ffffffffffffffffffffffffffffffffffffffff16600073ffffffffffffffffffffffffffffffffffffffff167fddf252ad1be2c89b69c2b068fc378daa952ba7f163c4a11628f55a4df523b3ef60405160405180910390a45050565b600061232961232484613305565b6132d4565b90508281526020810184848401111561234157600080fd5b61234c848285613542565b509392505050565b600081359050612363816136fd565b92915050565b600081519050612378816136fd565b92915050565b60008135905061238d81613714565b92915050565b6000815190506123a281613714565b92915050565b6000813590506123b78161372b565b92915050565b6000815190506123cc8161372b565b92915050565b600082601f8301126123e357600080fd5b81356123f3848260208601612316565b91505092915050565b60008135905061240b81613742565b92915050565b60006020828403121561242357600080fd5b600061243184828501612354565b91505092915050565b60006020828403121561244c57600080fd5b600061245a84828501612369565b91505092915050565b6000806040838503121561247657600080fd5b600061248485828601612354565b925050602061249585828601612354565b9150509250929050565b6000806000606084860312156124b457600080fd5b60006124c286828701612354565b93505060206124d386828701612354565b92505060406124e4868287016123fc565b9150509250925092565b6000806000806080858703121561250457600080fd5b600061251287828801612354565b945050602061252387828801612354565b9350506040612534878288016123fc565b925050606085013567ffffffffffffffff81111561255157600080fd5b61255d878288016123d2565b91505092959194509250565b6000806040838503121561257c57600080fd5b600061258a85828601612354565b925050602061259b8582860161237e565b9150509250929050565b600080604083850312156125b857600080fd5b60006125c685828601612354565b92505060206125d7858286016123fc565b9150509250929050565b6000602082840312156125f357600080fd5b600061260184828501612393565b91505092915050565b60006020828403121561261c57600080fd5b600061262a848285016123a8565b91505092915050565b60006020828403121561264557600080fd5b6000612653848285016123bd565b91505092915050565b60006020828403121561266e57600080fd5b600061267c848285016123fc565b91505092915050565b6000806040838503121561269857600080fd5b60006126a6858286016123fc565b92505060206126b7858286016123fc565b9150509250929050565b60006126cd8383612e4f565b60208301905092915050565b6126e28161349d565b82525050565b60006126f382613345565b6126fd8185613373565b935061270883613335565b8060005b8381101561273957815161272088826126c1565b975061272b83613366565b92505060018101905061270c565b5085935050505092915050565b61274f816134af565b82525050565b600061276082613350565b61276a8185613384565b935061277a818560208601613551565b612783816136ec565b840191505092915050565b6127978161351e565b82525050565b60006127a88261335b565b6127b28185613395565b93506127c2818560208601613551565b6127cb816136ec565b840191505092915050565b60006127e18261335b565b6127eb81856133a6565b93506127fb818560208601613551565b80840191505092915050565b6000612814603283613395565b91507f4552433732313a207472616e7366657220746f206e6f6e20455243373231526560008301527f63656976657220696d706c656d656e74657200000000000000000000000000006020830152604082019050919050565b600061287a601e83613395565b91507f57726f6e67207072696365207061696420666f722073756363756c656e7400006000830152602082019050919050565b60006128ba601c83613395565b91507f4552433732313a20746f6b656e20616c7265616479206d696e746564000000006000830152602082019050919050565b60006128fa602483613395565b91507f4552433732313a207472616e7366657220746f20746865207a65726f2061646460008301527f72657373000000000000000000000000000000000000000000000000000000006020830152604082019050919050565b6000612960601983613395565b91507f4552433732313a20617070726f766520746f2063616c6c6572000000000000006000830152602082019050919050565b60006129a0602c83613395565b91507f4552433732313a206f70657261746f7220717565727920666f72206e6f6e657860008301527f697374656e7420746f6b656e00000000000000000000000000000000000000006020830152604082019050919050565b6000612a06603883613395565b91507f4552433732313a20617070726f76652063616c6c6572206973206e6f74206f7760008301527f6e6572206e6f7220617070726f76656420666f7220616c6c00000000000000006020830152604082019050919050565b6000612a6c602a83613395565b91507f4552433732313a2062616c616e636520717565727920666f7220746865207a6560008301527f726f2061646472657373000000000000000000000000000000000000000000006020830152604082019050919050565b6000612ad2602983613395565b91507f4552433732313a206f776e657220717565727920666f72206e6f6e657869737460008301527f656e7420746f6b656e00000000000000000000000000000000000000000000006020830152604082019050919050565b6000612b38602083613395565b91507f4552433732313a206d696e7420746f20746865207a65726f20616464726573736000830152602082019050919050565b6000612b78602c83613395565b91507f4552433732313a20617070726f76656420717565727920666f72206e6f6e657860008301527f697374656e7420746f6b656e00000000000000000000000000000000000000006020830152604082019050919050565b6000612bde601983613395565b91507f53756363756c656e74204944206f7574206f662072616e6765000000000000006000830152602082019050919050565b6000612c1e602683613395565b91507f6d73672e73656e64657220646f6573206e6f74206f776e20746869732073756360008301527f63756c656e7400000000000000000000000000000000000000000000000000006020830152604082019050919050565b6000612c84602983613395565b91507f4552433732313a207472616e73666572206f6620746f6b656e2074686174206960008301527f73206e6f74206f776e00000000000000000000000000000000000000000000006020830152604082019050919050565b6000612cea602f83613395565b91507f4552433732314d657461646174613a2055524920717565727920666f72206e6f60008301527f6e6578697374656e7420746f6b656e00000000000000000000000000000000006020830152604082019050919050565b6000612d50602183613395565b91507f4552433732313a20617070726f76616c20746f2063757272656e74206f776e6560008301527f72000000000000000000000000000000000000000000000000000000000000006020830152604082019050919050565b6000612db6603183613395565b91507f4552433732313a207472616e736665722063616c6c6572206973206e6f74206f60008301527f776e6572206e6f7220617070726f7665640000000000000000000000000000006020830152604082019050919050565b6000612e1c602083613395565b91507f6d73672e73656e64657220646f6573206e6f74206f776e207468697320706f746000830152602082019050919050565b612e5881613507565b82525050565b612e6781613507565b82525050565b612e7681613511565b82525050565b6000612e8882856127d6565b9150612e9482846127d6565b91508190509392505050565b6000602082019050612eb560008301846126d9565b92915050565b6000608082019050612ed060008301876126d9565b612edd60208301866126d9565b612eea6040830185612e5e565b8181036060830152612efc8184612755565b905095945050505050565b600060a082019050612f1c60008301886126d9565b612f296020830187612e5e565b612f366040830186612e5e565b612f436060830185612e5e565b612f506080830184612e5e565b9695505050505050565b60006020820190508181036000830152612f7481846126e8565b905092915050565b6000602082019050612f916000830184612746565b92915050565b6000602082019050612fac600083018461278e565b92915050565b60006020820190508181036000830152612fcc818461279d565b905092915050565b60006020820190508181036000830152612fed81612807565b9050919050565b6000602082019050818103600083015261300d8161286d565b9050919050565b6000602082019050818103600083015261302d816128ad565b9050919050565b6000602082019050818103600083015261304d816128ed565b9050919050565b6000602082019050818103600083015261306d81612953565b9050919050565b6000602082019050818103600083015261308d81612993565b9050919050565b600060208201905081810360008301526130ad816129f9565b9050919050565b600060208201905081810360008301526130cd81612a5f565b9050919050565b600060208201905081810360008301526130ed81612ac5565b9050919050565b6000602082019050818103600083015261310d81612b2b565b9050919050565b6000602082019050818103600083015261312d81612b6b565b9050919050565b6000602082019050818103600083015261314d81612bd1565b9050919050565b6000602082019050818103600083015261316d81612c11565b9050919050565b6000602082019050818103600083015261318d81612c77565b9050919050565b600060208201905081810360008301526131ad81612cdd565b9050919050565b600060208201905081810360008301526131cd81612d43565b9050919050565b600060208201905081810360008301526131ed81612da9565b9050919050565b6000602082019050818103600083015261320d81612e0f565b9050919050565b60006020820190506132296000830184612e5e565b92915050565b60006040820190506132446000830185612e5e565b6132516020830184612e5e565b9392505050565b600060c08201905061326d6000830189612e5e565b61327a6020830188612e5e565b6132876040830187612e5e565b6132946060830186612e5e565b6132a16080830185612e5e565b6132ae60a0830184612746565b979650505050505050565b60006020820190506132ce6000830184612e6d565b92915050565b6000604051905081810181811067ffffffffffffffff821117156132fb576132fa6136bd565b5b8060405250919050565b600067ffffffffffffffff8211156133205761331f6136bd565b5b601f19601f8301169050602081019050919050565b6000819050602082019050919050565b600081519050919050565b600081519050919050565b600081519050919050565b6000602082019050919050565b600082825260208201905092915050565b600082825260208201905092915050565b600082825260208201905092915050565b600081905092915050565b60006133bc82613507565b91506133c783613507565b9250827fffffffffffffffffffffffffffffffffffffffffffffffffffffffffffffffff038211156133fc576133fb613630565b5b828201905092915050565b600061341282613507565b915061341d83613507565b92508261342d5761342c61365f565b5b828204905092915050565b600061344382613511565b915061344e83613511565b92508261345e5761345d61365f565b5b828204905092915050565b600061347482613507565b915061347f83613507565b92508282101561349257613491613630565b5b828203905092915050565b60006134a8826134e7565b9050919050565b60008115159050919050565b60007fffffffff0000000000000000000000000000000000000000000000000000000082169050919050565b600073ffffffffffffffffffffffffffffffffffffffff82169050919050565b6000819050919050565b600060ff82169050919050565b600061352982613530565b9050919050565b600061353b826134e7565b9050919050565b82818337600083830152505050565b60005b8381101561356f578082015181840152602081019050613554565b8381111561357e576000848401525b50505050565b6000600282049050600182168061359c57607f821691505b602082108114156135b0576135af61368e565b5b50919050565b60006135c182613507565b91507fffffffffffffffffffffffffffffffffffffffffffffffffffffffffffffffff8214156135f4576135f3613630565b5b600182019050919050565b600061360a82613507565b915061361583613507565b9250826136255761362461365f565b5b828206905092915050565b7f4e487b7100000000000000000000000000000000000000000000000000000000600052601160045260246000fd5b7f4e487b7100000000000000000000000000000000000000000000000000000000600052601260045260246000fd5b7f4e487b7100000000000000000000000000000000000000000000000000000000600052602260045260246000fd5b7f4e487b7100000000000000000000000000000000000000000000000000000000600052604160045260246000fd5b6000601f19601f8301169050919050565b6137068161349d565b811461371157600080fd5b50565b61371d816134af565b811461372857600080fd5b50565b613734816134bb565b811461373f57600080fd5b50565b61374b81613507565b811461375657600080fd5b5056fea2646970667358221220da4a077b0ae6ccd9af6bbfe636a6d5149263b464dc09a3958686353d4014ea6c64736f6c63430008000033",
  "immutableReferences": {},
  "source": "pragma solidity ^0.8.0;\n\nimport \"@openzeppelin/contracts/token/ERC721/ERC721.sol\";\nimport \"./PotOwnershipInterface.sol\";\n\n// import \"@openzeppelin/contracts/token/ERC721/IERC721.sol\";\n\ncontract SuccOwnership is ERC721 {\n    // string name = \"CryptoSuccs\";\n    // string symbol = \"CS\";\n\n    modifier succIdInRange(uint256 succId) {\n        require(succId < succs.length, \"Succulent ID out of range\");\n        _;\n    }\n\n    event newSucc(\n        address owner,\n        uint256 succId,\n        uint256 parent1Id,\n        uint256 parent2Id,\n        uint256 genes\n    );\n\n    struct Succ {\n        uint256 genes;\n        uint64 sproutTime;\n        uint32 potId;\n        uint8 timesWatered;\n        uint8 watersNeededIndex;\n        bool isBlooming;\n    }\n\n    uint8[8] public watersNeeded = [\n        uint8(1),\n        uint8(2),\n        uint8(4),\n        uint8(8),\n        uint8(15),\n        uint8(25),\n        uint8(40),\n        uint8(60)\n    ];\n\n    Succ[] succs;\n\n    mapping(address => uint256) ownerToWaterOrbs;\n\n    PotOwnershipInterface PotOwnership;\n\n    constructor(\n        address PotOwnership_,\n        string memory name_,\n        string memory symbol_\n    ) ERC721(name_, symbol_) {\n        require(\n            PotOwnership_ != address(0),\n            \"PotOwnership contract cannot be 0\"\n        );\n        PotOwnership = PotOwnershipInterface(PotOwnership_);\n        // name = name_;\n        // symbol = symbol_;\n    }\n\n    function _createSucc(\n        uint256 _parent1Id,\n        uint256 _parent2Id,\n        uint256 _genes,\n        address _owner\n    ) internal returns (uint256) {\n        uint256 watersNeededIndex = 0;\n        if (_parent1Id != 0) {\n            watersNeededIndex = succs[_parent1Id].watersNeededIndex / 2;\n        } else if (_parent2Id != 0) {\n            watersNeededIndex = succs[_parent2Id].watersNeededIndex / 2;\n        }\n        succs.push(\n            Succ(\n                _genes,\n                uint64(block.timestamp),\n                0,\n                0,\n                uint8(watersNeededIndex),\n                false\n            )\n        );\n        uint256 _newSuccIndex = succs.length - 1;\n        _safeMint(_owner, _newSuccIndex);\n        emit newSucc(_owner, _newSuccIndex, _parent1Id, _parent2Id, _genes);\n        return _newSuccIndex;\n        // return 0;\n    }\n\n    function buySucc(uint256 _genes, uint256 _price)\n        external\n        payable\n        returns (uint256)\n    {\n        require(msg.value == _price, \"Wrong price paid for succulent\");\n        return _createSucc(0, 0, _genes, msg.sender);\n    }\n\n    function succsOfOwner(address _owner)\n        external\n        view\n        returns (uint256[] memory ownerTokens)\n    {\n        uint256 tokenCount = balanceOf(_owner);\n\n        if (tokenCount == 0) {\n            // Return an empty array\n            return new uint256[](0);\n        } else {\n            uint256[] memory result = new uint256[](tokenCount);\n            uint256 totalSuccs = succs.length - 1;\n            uint256 resultIndex = 0;\n\n            // We count on the fact that all succulents have IDs starting at 1 and increasing\n            // sequentially up to the totalSucc count.\n            uint256 succId;\n\n            for (succId = 1; succId <= totalSuccs; succId++) {\n                if (ownerOf(succId) == _owner) {\n                    result[resultIndex] = succId;\n                    resultIndex++;\n                }\n            }\n\n            return result;\n        }\n    }\n\n    function putSuccInPot(uint256 _succId, uint256 _potId)\n        external\n        returns (bool)\n    {\n        require(\n            ownerOf(_succId) == msg.sender,\n            \"msg.sender does not own this succulent\"\n        );\n        require(\n            PotOwnership.ownerOf(_potId) == msg.sender,\n            \"msg.sender does not own this pot\"\n        );\n        succs[_succId].potId = uint32(_potId);\n        return PotOwnership.setPotSucc(_potId, _succId);\n    }\n\n    function getSuccInfo(uint256 _succId)\n        external\n        view\n        succIdInRange(_succId)\n        returns (\n            uint256 genes,\n            uint256 sproutTime,\n            uint256 potId,\n            uint256 timesWatered,\n            uint256 watersNeededIndex,\n            bool isBlooming\n        )\n    {\n        Succ memory _thisSucc = succs[_succId];\n        genes = _thisSucc.genes;\n        sproutTime = uint256(_thisSucc.sproutTime);\n        potId = uint256(_thisSucc.potId);\n        timesWatered = uint256(_thisSucc.timesWatered);\n        watersNeededIndex = uint256(_thisSucc.watersNeededIndex);\n        isBlooming = _thisSucc.isBlooming;\n    }\n\n    function getSuccAge(uint256 _succId)\n        external\n        view\n        succIdInRange(_succId)\n        returns (uint256)\n    {\n        return block.timestamp - uint256(succs[_succId].sproutTime);\n    }\n\n    function getPotOwnership() external view returns (PotOwnershipInterface) {\n        return PotOwnership;\n    }\n}\n",
  "sourcePath": "/Users/ellenguo6/Hacks/crypto-succs/contracts/SuccOwnership.sol",
  "compiler": {
    "name": "solc",
    "version": "0.8.0+commit.c7dfd78e.Emscripten.clang"
  },
  "schemaVersion": "3.4.1",
  "updatedAt": "2021-05-30T03:32:37.451Z",
  "networkType": "ethereum",
  "devdoc": {
    "kind": "dev",
    "methods": {
      "approve(address,uint256)": {
        "details": "See {IERC721-approve}."
      },
      "balanceOf(address)": {
        "details": "See {IERC721-balanceOf}."
      },
      "getApproved(uint256)": {
        "details": "See {IERC721-getApproved}."
      },
      "isApprovedForAll(address,address)": {
        "details": "See {IERC721-isApprovedForAll}."
      },
      "name()": {
        "details": "See {IERC721Metadata-name}."
      },
      "ownerOf(uint256)": {
        "details": "See {IERC721-ownerOf}."
      },
      "safeTransferFrom(address,address,uint256)": {
        "details": "See {IERC721-safeTransferFrom}."
      },
      "safeTransferFrom(address,address,uint256,bytes)": {
        "details": "See {IERC721-safeTransferFrom}."
      },
      "setApprovalForAll(address,bool)": {
        "details": "See {IERC721-setApprovalForAll}."
      },
      "supportsInterface(bytes4)": {
        "details": "See {IERC165-supportsInterface}."
      },
      "symbol()": {
        "details": "See {IERC721Metadata-symbol}."
      },
      "tokenURI(uint256)": {
        "details": "See {IERC721Metadata-tokenURI}."
      },
      "transferFrom(address,address,uint256)": {
        "details": "See {IERC721-transferFrom}."
      }
    },
    "version": 1
  },
  "userdoc": {
    "kind": "user",
    "methods": {},
    "version": 1
  }
}